:080000000C9434000C94000084
:100008000C9400000C9400000C9400000C94000068
:100018000C9400000C9400000C9400000C94000058
:100028000C9400000C9400000C9400000C94000048
:100038000C9400000C9400000C9400000C94000038
:100048000C9400000C9400000C9400000C94000028
:100058000C9400000C9400000C9400000C94000018
:10006800F894EE27EFBBF1E0F5BFE5BFF8E1A895FE
:10007800A4B7A77FA4BFF0936000E09360008DE071
:10008800A2E0BB27ED938A95E9F780E098E0A0E02D
:10009800B1E0ED930197E9F7E0E0EEBBEFEFEDBFDC
:1000A800E8E0EEBFC0E0D3E00C945A00EFEFEAB905
:1000B800E5B9E8B9E6B1E770E030A9F4189B02C0E9
:1000C800589801C0589A199B02C0599801C0599A6A
:1000D8001A9B02C05A9801C05A9A1B9B02C05B988F
:1000E80001C05B9A62C1E13089F5189B04C01C9B72
:1000F80002C0E1E001C0E0E0E03011F4589801C02E
:10010800589A199B04C01D9B02C0E1E001C0E0E0C1
:10011800E03011F4599801C0599A1A9B04C01E9BEB
:1001280002C0E1E001C0E0E0E03011F45A9801C0FB
:100138005A9A1B9B04C01F9B02C0E1E001C0E0E08B
:10014800E03011F45B9801C05B9A2FC1E23089F569
:10015800189B04C01C9B02C0E1E001C0E0E0E03055
:1001680011F0589801C0589A199B04C01D9B02C0F1
:10017800E1E001C0E0E0E03011F0599801C0599A7F
:100188001A9B04C01E9B02C0E1E001C0E0E0E03021
:1001980011F05A9801C05A9A1B9B04C01F9B02C0B9
:1001A800E1E001C0E0E0E03011F05B9801C05B9A4B
:1001B800FCC0E33089F5189904C01C9902C0E0E03E
:1001C80001C0E1E0E03011F4589801C0589A19993B
:1001D80004C01D9902C0E0E001C0E1E0E03011F484
:1001E800599801C0599A1A9904C01E9902C0E0E0B2
:1001F80001C0E1E0E03011F45A9801C05A9A1B9905
:1002080004C01F9902C0E0E001C0E1E0E03011F451
:100218005B9801C05B9AC9C0E43089F5189904C09D
:100228001C9902C0E0E001C0E1E0E03011F058980C
:1002380001C0589A199904C01D9902C0E0E001C094
:10024800E1E0E03011F0599801C0599A1A9904C0B8
:100258001E9902C0E0E001C0E1E0E03011F05A98D8
:1002680001C05A9A1B9904C01F9902C0E0E001C05E
:10027800E1E0E03011F05B9801C05B9A96C0E53090
:1002880011F00C948801189B02C01C9B06C01C9B93
:1002980002C0189B02C0E0E001C0E1E0E03011F4C8
:1002A800589801C0589A199B02C01D9B06C01D9BF7
:1002B80002C0199B02C0E0E001C0E1E0E03011F4A7
:1002C800599801C0599A1A9B02C01E9B06C01E9BD2
:1002D80002C01A9B02C0E0E001C0E1E0E03011F486
:1002E8005A9801C05A9A1B9B02C01F9B06C01F9BAD
:1002F80002C01B9B02C0E0E001C0E1E0E03011F465
:100308005B9801C05B9A51C0E63011F00C94CD01A6
:10031800189B02C01C9B06C01C9B02C0189B02C0F5
:10032800E0E001C0E1E0E03011F0589801C0589ACF
:10033800199B02C01D9B06C01D9B02C0199B02C0D1
:10034800E0E001C0E1E0E03011F0599801C0599AAD
:100358001A9B02C01E9B06C01E9B02C01A9B02C0AD
:10036800E0E001C0E1E0E03011F05A9801C05A9A8B
:100378001B9B02C01F9B06C01F9B02C01B9B02C089
:10038800E0E001C0E1E0E03011F05B9801C05B9A69
:100398000CC0E73051F4E3B1EF70AE2FE3B1E07F6A
:1003A800F0E00E94DB01EA0FEBB984CEFFCFF595B0
:1003B800E795F595E795F595E795F595E79508950A
:00000001FF
