:0A0000000C9439000C9400000C94DD
:10000A0000000C9400000C9400000C9400000C9466
:10001A0000000C9400000C9400000C9400000C9456
:10002A0000000C9400000C9400000C9400000C9446
:10003A0000000C9400000C9400000C9400000C9436
:10004A0000000C9400000C9400000C9400000C9426
:10005A0000000C9400000C9400000C940000FC605A
:10006A00DBF366B7BEE1FEF6F894EE27EFBBF1E0EC
:10007A00F5BFE5BFF8E1A895A4B7A77FA4BFF093A1
:10008A006000E09360008DE0A2E0BB27ED938A95C3
:10009A00E9F780E098E0A0E0B1E0ED930197E9F795
:1000AA00E0E0EEBBEFEFEDBFE8E0EEBFC0E0D3E08B
:1000BA000C945F00EFEFEAB9409AE0910003EF5F1A
:1000CA00E0930003E150F0E0E859FF4F04900BB8C9
:1000DA00309B18C0E0910003EF5FE0930003E1500A
:1000EA00F0E0E859FF4F04900BB8A0910003AA3042
:1000FA0019F4E0E0E0930003E8EEF3E0FA93EA9300
:10010A000E948900E5CFFFCFE991F991309639F045
:10011A008AEF90E00197F1F7A8953197C9F708950A
:00000001FF
