:0A0000000C9443000C9400000C94D3
:10000A0000000C9400000C9400000C9400000C9466
:10001A0000000C9400000C9400000C9400000C9456
:10002A0000000C9400000C9400000C9400000C9446
:10003A0000000C9400000C9400000C9400000C9436
:10004A0000000C9400000C9400000C9400000C9426
:10005A0000000C9400000C9400000C9400000303B0
:10006A000302020C000800010006486F6C6100469A
:10007A00726563202D3E20256C750000F894EE27EA
:10008A00EFBBF1E0F5BFE5BFF8E1A895A4B7A77FFC
:10009A00A4BFF0936000E09360008DE0A2E0BB276C
:1000AA00ED938A95E9F780E098E0A0E0B1E0ED935E
:1000BA000197E9F7E0E0EEBBEFEFEDBFE8E0EEBF56
:1000CA00C0E0D3E00C9446012C978CE0A0E0B0E0AD
:1000DA00E8E6F0E00E942E051A93E7B1EF60E7B96F
:1000EA00E4B1E760E4B9E2E3F0E0FA93EA930E944C
:1000FA00810410E01C3090F4E2E0F0E0FA93EA9315
:10010A000E948104E12FF0E0DE011196AE0FBF1FBD
:10011A00EC91EA930ED00AD01F5FECCFECE0E093AB
:10012A000003EA9320D018812D960895299A2998D8
:10013A000895E881E87011F0439A01C04398E88174
:10014A00E47011F0429A01C04298E881E27011F01D
:10015A00419A01C04198E881E17011F0409A01C0CA
:10016A004098219608951A932898E2E0F0E0FA93CD
:10017A00EA930E948104E981E07F1E2FE12FF0E0DB
:10018A000E949E041E2F1A93D4DFD0DFE981EF70FC
:10019A001E2F1A93CEDFE2E0F0E0FA93EA930E9470
:1001AA008104C4DF18816BC01A93289AE2E0F0E058
:1001BA00FA93EA930E948104E981E07F1E2FE12FDE
:1001CA00F0E00E949E041E2F1A93B3DFAFDFE9818D
:1001DA00EF701E2F1A93ADDFE2E0F0E0FA93EA9394
:1001EA000E948104A3DF18814AC01A9310E0E12F0C
:1001FA001F5FA981BA81F0E0EA0FFB1FE491EA933D
:10020A00D3DFE12FA981BA81F0E0EA0FFB1FE49165
:10021A00E03069F714C01A9310E0E12F1F5FA9813B
:10022A00BA81F0E0AE0FBF1FEC91EA93BDDFA9815E
:10023A00BA81EE27A10FBE1FEC91E03071F7188149
:10024A0023960895E881F0E0309719F4E981E0589F
:10025A0014C0E130A0E0FA0719F4E981E0540DC0B6
:10026A00E230A0E0FA0719F4E981EC5606C0E3305F
:10027A00A0E0FA0721F4E981EC52EA9374DF2296AE
:10028A00089522DFE1E0EA93E0E0EA93DBDFE4E7C6
:10029A00F0E0FA93EA93A9DFE7E0E0938100E0E077
:1002AA00E0930103E0E0E0938500E0938400E093AB
:1002BA001503E0931603A0911503B0911603D29784
:1002CA0020F5E3E1F0E0FA93EA930E94810486EADA
:1002DA0097E00197F1F7B09B07C0B09AE09101034C
:1002EA00EF5FE093010309C0000000000000000076
:1002FA0000000000000000000000A5E1B3E0ED915D
:10030A00FD913196FE93EE93D6CFE0918400FF27BC
:10031A0066277727E0931103F09312036093130380
:10032A0070931403E0918500F0E00E94A704A0E016
:10033A00B1E080E090E00E94CC04A0911103B0915A
:10034A00120380911303909114030E9491047F93E6
:10035A006F93FF93EF93E0910103F0E00E94A704EB
:10036A00A0E0B0E081E090E00E94CC04AF91BF91A0
:10037A008F919F910E949104E0931103F0931203CD
:10038A006093130370931403A0911103B0911203A5
:10039A008091130390911403A132E1EABE07E7E0CA
:1003AA008E07E0E09E07A0F0E0911103F09112039E
:1003BA006091130370911403E050F0406140704063
:1003CA00E0931103F09312036093130370931403E1
:1003DA00E2E0F3E0FA93EA93E9E7F0E0FA93EA93CA
:1003EA00E0911103F09112036091130370911403C9
:1003FA000E94170584E02DD22896E0E0E0930103DD
:10040A00E6E0EA93E1E0EA931DDFE2E0F3E0FA9343
:10041A00EA9301DF47CFFFCF1A930A93AA81BB81E0
:10042A0012960E940D05309759F1AA81BB81149644
:10043A000E940D058F01309761F00230E0E01E073F
:10044A00F0F0F80131978F01AA81BB811496ED93E0
:10045A00FC93AA81BB811296ED91FD913196FE9390
:10046A00EE933197AC81A083AA81BB810E940D05CE
:10047A00FF232AF0ED91FD913196FE93EE9306C08B
:10048A00AA81BB81EFEFFFEFED93FC9319810881FD
:10049A00259608952B970E94200510E0A989BA890C
:1004AA00E0E0F0E0ED93FC93EF89F88D3196EF8B65
:1004BA00F88F3197E4912E2FE03011F40C94260432
:1004CA00E12FE03069F4253211F411E008C02A93D3
:1004DA00EA89FB89FA93EA93EE89FF890995B0C103
:1004EA00E130D9F4253249F42A93EA89FB89FA934F
:1004FA00EA93EE89FF890995A2C112E040E000E083
:10050A002D3211F401E09CC12B3211F44BE298C157
:10051A00203211F440E294C102C0E23039F450E0D2
:10052A0013E0203311F400688BC102C0E33091F468
:10053A00203310F02A3308F007C0AAE05A9F502D42
:10054A00E22FE0535E0F7CC12C3619F4026015E0ED
:10055A0077C104C0E53011F00C942504E22FE3368C
:10056A0079F4ED89FE893497ED8BFE8BA481AA93E9
:10057A00EA89FB89FA93EA93EE89FF8909955FC1B3
:10058A00E33791F4ED89FE893497ED8BFE8BAD89C3
:10059A00BE8914960E940D05EE83FF83FA93EA93AF
:1005AA000E946C041E2F14C0E037B9F4ED89FE894D
:1005BA003497ED8BFE8BAD89BE8914960E940D058A
:1005CA00EE83FF83FA93EA930E9476041E2F086053
:1005DA000F77E0E0E88B30E080C0E43611F0E936CE
:1005EA0011F4046002C0E537C1F4EAE0E88B01FFC8
:1005FA000AC0E0E0FAEC6AE97BE3E887F9876A87F0
:10060A007B871AE029C0E0E1F7E260E070E0E88762
:10061A00F9876A877B8715E01FC0E83511F40860FF
:10062A0004C0E83711F00C942404E0E1E88B01FFE0
:10063A000AC0E0E0F0E060E070E1E887F9876A87E5
:10064A007B8718E009C0E0E0F0E160E070E0E8874D
:10065A00F9876A877B8714E001FF0BC0ED89FE8961
:10066A003497ED8BFE8BAD89BE8914960E941105D5
:10067A001BC002FF0DC0ED89FE893497ED8BFE8BFE
:10068A00AD89BE8914960E940D050E94A7040CC06C
:10069A00ED89FE893497ED8BFE8BAD89BE89149660
:1006AA000E940D0566277727EC87FD876E877F876F
:1006BA0002FF13C0AF85AA235AF4EC85FD856E8527
:1006CA007F850E949604EC87FD876E877F874DE2BF
:1006DA00403011F01F5F01C00B7F00FD17C01517D6
:1006EA00A8F407FF08C002FF04C00B7F242F115093
:1006FA0001C020E301C020E22A93EA89FB89FA9328
:10070A00EA93EE89FF8909955150E9CF312FE8899B
:10071A00E030E9F43030D1F003FF06C0EE81FF810A
:10072A002591EE83FF8305C0AE81BF812D91AE83F3
:10073A00BF832A93EA89FB89FA93EA93EE89FF89B0
:10074A000995503009F051503150E4CF69C0E8851D
:10075A00F9856A857B85AC85BD858E859F850E94D6
:10076A00D1042E2F2A3030F003FF02C0295C01C0C9
:10077A00295A01C0205D04FD27C0213360F4A885F1
:10078A00B9858A859B85A130E0E0BE07E0E08E0747
:10079A00E0E09E0709F409C0531710F000FF01C0FA
:1007AA001EC020E207FF10C020E3006102FF0CC058
:1007BA000B7F4A93EA89FB89FA93EA93EE89FF89C8
:1007CA000995503009F051502A93EA89FB89FA9326
:1007DA00EA93EE89FF890995503009F0515031505A
:1007EA00E885F9856A857B85AC85BD858E859F857B
:1007FA000E94F604EC87FD876E877F87E889A885C3
:10080A00B9858A859B85FF27662777270E94D104A9
:10081A00E887F9876A877B870E941C0509F097CFCA
:10082A0000FF0DC0503059F05150E0E2EA93EA89D6
:10083A00FB89FA93EA93EE89FF890995F3CF10E0D1
:10084A0033CEA989BA890E940D050E9427056996A7
:10085A000895FF92F82E26970E942205DE011C9623
:10086A000E948D040E940D05309719F4EFEFFFEFF7
:10087A0029C0DE0116960E948D048D01DE011C96A8
:10088A000E948D040E940D05EE83FF83E0E0E88755
:10089A00E987DE011A960E948D040E940D05FA93DB
:1008AA00EA931A930A93E1E1F2E0FA93EA93FE01DA
:1008BA003A96FA93EA93EEDD9F01AE81BF81E0E0BA
:1008CA00EC93F9010E9429052A96FF900895A991AF
:1008DA00B991EE27FF276D91662311F03196FBCF70
:1008EA000895AA27BB27E991F9910590002011F0F4
:1008FA001196FBCFFD010895E991F991309639F0EF
:10090A0080ED97E00197F1F7A8953197C9F7089517
:10091A000024AF0DB01D0895EA0FFB1F681F791F51
:10092A000895F09560957095E195FF4F6F4F7F4F51
:10093A000895F595E795F595E795F595E795F59574
:10094A00E79508956F2F660F660B762F08957A9FA5
:10095A00702D6B9F700DF89F700DE99F700D6A9F47
:10096A00602D710DFB9F600D711DE89F600D711D5B
:10097A008827FA9FF02D610D781FEB9FF00D611DFE
:10098A00781FEA9FE02DF10D681F781F08952DD07A
:10099A00DEDF0EF4C6DF08953F934F935F93002482
:1009AA0011244427552730E2AA0FBB1F881F991F1D
:1009BA00001C111C441F551F0E1A1F0A460B570B09
:1009CA0028F40E0E1F1E461F571F01C0A1603A953C
:1009DA0059F7FD01BC01D001CA015F914F913F91C6
:1009EA000895DADFFD01BC010895E89477FF02C09B
:1009FA0098DF689497FF0BC00024A095B095809566
:100A0A0090951196801D901D00F8039400FA0895A0
:100A1A00ED91FC9111970895ED91FD916D917C9165
:100A2A00139708957A936A93FA93EA9308953097FD
:100A3A006040704008955A934A933A932A931A93BE
:100A4A000A9308955D814C813B812A81198108812D
:100A5A000895AC0FBD1F05900D928A95E1F7089590
:00000001FF
