:080000000C9483020C94000033
:100008000C9400000C9400000C9400000C94000068
:100018000C9400000C9400000C9400000C94000058
:100028000C9400000C9400000C9400000C94000048
:100038000C9400000C9400000C9400000C94000038
:100048000C9400000C9400000C9400000C94000028
:100058000C9400000C9400000C9400000C94000018
:10006800940294020100940201000C02940201001F
:100078000E030100010001008701010001000100D9
:100088000C02010001008701010001004A01010082
:100098000100B8010100EE010100D301B80101001F
:1000A8008701940201000E0370030100BA020E03D7
:1000B8000100940201000C024C02EE010100010053
:1000C8000C02010001008701010001004A01010042
:1000D8000100B8010100EE010100D301B8010100DF
:1000E8008701940201000E0370030100BA020E0397
:1000F8000100940201000C024C02EE010100010013
:10010800010001000E03E402BA0270020100940229
:100118000100A001B8010C020100B8010C024C0258
:10012800010001000E03E402BA0270020100940209
:10013800010018040100180418040100010001005E
:10014800010001000E03E402BA02700201009402E9
:100158000100A001B8010C020100B8010C024C0218
:10016800010001007002010001004C0201000100C1
:100178000C02010001000100010001000100010062
:10018800010001000E03E402BA02700201009402A9
:100198000100A001B8010C020100B8010C024C02D8
:1001A800010001000E03E402BA0270020100940289
:1001B80001001804010018041804010001000100DE
:1001C800010001000E03E402BA0270020100940269
:1001D8000100A001B8010C020100B8010C024C0298
:1001E800010001007002010001004C020100010041
:1001F8000C020100010001000100010001000100E2
:100208000C020C0201000C0201000C024C0201005D
:1002180094020C020100B8018701010001000100ED
:100228000C020C0201000C0201000C024C0201003D
:1002380001000100010001000100010001000C02A1
:100248000C0201000C0201000C024C020100940295
:100258000C020100B80187010100010001009402AD
:1002680094020100940201000C02940201000E03A2
:1002780001000100010087010100010001000C02DA
:10028800010001008701010001004A01010001008D
:10029800B8010100EE010100D301B8010100870196
:1002A800940201000E0370030100BA020E0301005C
:1002B800940201000C024C02EE01010001000C0244
:1002C800010001008701010001004A01010001004D
:1002D800B8010100EE010100D301B8010100870156
:1002E800940201000E0370030100BA020E0301001C
:1002F800940201000C024C02EE010100010094027C
:100308000C020100870101000100A0010100B801F1
:10031800BA020100BA02B801010001000100EE01B1
:1003280070030100700370030E030100BA02940207
:100338000C020100B80187010100010001009402CC
:100348000C020100870101000100A0010100B801B1
:10035800BA020100BA02B801010001000100EE0171
:10036800BA020100BA02BA02940201004C028701E3
:100378004A0101004A01060101000100010094023E
:100388000C020100870101000100A0010100B80171
:10039800BA020100BA02B801010001000100EE0131
:1003A80070030100700370030E030100BA02940287
:1003B8000C020100B801870101000100010094024C
:1003C8000C020100870101000100A0010100B80131
:1003D800BA020100BA02B801010001000100EE01F1
:1003E800BA020100BA02BA02940201004C02870163
:1003F8004A0101004A0106010100010001000C0246
:100408000C0201000C0201000C024C0201009402D3
:100418000C020100B80187010100010001000C0273
:100428000C0201000C0201000C024C020100010048
:100438000100010001000100010001000C020C0292
:1004480001000C0201000C024C02010094020C0293
:100458000100B80187010100010001009402940223
:100468000100940201000C02940201000E03010035
:1004780001000100870101000100010094020C0243
:100488000100870101000100A0010100B801BA02C2
:100498000100BA02B801010001000100EE01700379
:1004A8000100700370030E030100BA0294020C02EB
:1004B8000100B801870101000100010094020C024B
:1004C8000100870101000100A0010100B801BA0282
:1004D8000100BA02B801010001000100EE01BA02F0
:1004E8000100BA02BA02940201004C0287014A01D3
:1004F80001004A0106010100010001000000F89412
:10050800EE27EFBBF1E0F5BFE5BFF8E1A895A4B78A
:10051800A77FA4BFF0936000E09360008DE0A2E0A5
:10052800BB27ED938A95E9F780E098E0A0E0B1E079
:10053800ED930197E9F7E0E0EEBBEFEFEDBFE8E000
:10054800EEBFC0E0D3E00C94EC02E0E0E5BD089516
:1005580024971A930A93AE81BF8188859985E0E034
:10056800F0E060E071E40E942304A0E0B4E284EFCC
:1005780098E40E947104EA83FB836C837D830E9464
:1005880065038F01F801AA81BB818C819D81662753
:1005980077270E949E030E94EF040E94D103DF0187
:1005A800CB01E0E0F0E060E07FE30E94B60409F0F0
:1005B80010F40C94E1020F5F1F4FF8013197E7BD6B
:1005C800E2E4E4BDE2E0E5BD198108812A960895D8
:1005D800569AE0E0E0930003E093010328D00E94DC
:1005E800E704119769F023D00E94E3040E94DE0417
:1005F8000E949E030E94EA04ABDF24D0A6DF01C05C
:1006080021D0A0E0B3E0ED91FD913196FE93EE93F9
:10061800A0910003B0910103AF34E2E0BE0729F4D2
:10062800E0E0E0930003E0930103D8CFFFCFE0912F
:100638000003F0910103A8E6B0E0EE0FFF1FEA0FF8
:10064800FB1F0895E4E6F0E0FA93EA930C942C0378
:10065800E991F991309639F08AEF90E00197F1F736
:10066800A8953197C9F70895552342F4503811F4E5
:10067800E0FF04C03196691F791F6BF050E85727D7
:1006880011F45F93CAC05F3F31F0660F000C5795B5
:100698006795752F08955F9300200AF0CAC0C3C0FC
:1006A80050E8192E1522880F991F9527550F879501
:1006B80050E8072E0522660F771F7527550F679597
:1006C8000895689401C0E8945F93F2DF703818F0D9
:1006D8007F3F08F4A2C056E1571BAAF45195583041
:1006E8000EF4593030F0EFEFFFEF6FEF7FE777F957
:1006F8001AC077275523B9F0EE0FFF1F661F771F23
:100708005A95D1F710C07727583028F0EF2FF62FD9
:10071800672F5850F9CF552331F076956795F7959F
:10072800E7955A95D1F700200AF43CD15F910895D6
:10073800689401C0E894309760407040B1F000249C
:1007480026F0772312F400942DD1172E7EE1112084
:1007580032F07A95EE0FFF1F661F111CF9CFEF2FAD
:10076800F62F612D5F938ADF5F9108954F93AF0154
:10077800FD01DA01AB01BC01CA01402D012C142E88
:100788004F910895EA0FFB1F681F0895E095F095B3
:100798006095EF5FFF4F6F4F08955F9381DF90384B
:1007A80049F150E81526703821F1572F591B2BF1C4
:1007B80012F4DCDFFACF583118F0AA27BB278827B4
:1007C800583028F0AB2FB82F88275850F9CF552329
:1007D80029F08695B795A7955A95D9F7502D5125A3
:1007E80072F0D0DF38F46795F795E795739513F4B1
:1007F80020C0BCDF43DF5F910895D8F7FBCFEA1B29
:10080800FB0B680B51F010F40094C0DF662392F3E1
:10081800EE0FFF1F661F7A95CBF7EE27FF27662797
:1008280077275F910895EFEFFFEF6FE77FEF5F9115
:100838000895EFEFFFEF6FE77FE75F9108955F930C
:100848002FDF703851F3903841F301240894791F51
:1008580023F41CF300203AF3ECCF0F921F932F934D
:100868003F934F93112722279927689FA0018F9FB5
:10087800302D410D591F6B9F300D411D591F8E9F03
:1008880027D0BF9F25D06A9F23D0BE9F1DD0AF9F82
:100898001BD0AE9F110D291F391F491F591FE32F68
:1008A800F42F652F522F4F913F912F911F910F9049
:1008B80066232AF0550FEE1FFF1F661F02C07395AF
:1008C8004BF2D2DE5F910895100D211D391F02C031
:1008D800200D311D491F591F08955F93E1DE7038BF
:1008E80021F411200AF49FCFA4CF903809F495CFB2
:1008F80001240894970B1BF4D4F30020F3CF792F2D
:100908001F932F933F934F931124112722273327A7
:100918004427552790E2AE17BF078607410730F0F6
:10092800AE1BBF0B860B410B089401C08894551F62
:10093800221F331F111CAA1FBB1F881F441F9A9513
:1009480051F7F901612D4F913F912F911F91662326
:1009580032F0550FEE1FFF1F661F7A9543F284DEB3
:100968005F91089599239AF0772342F0971748F0FA
:1009780029F4AE17BF07860720F031F098948894C1
:10098800089598940894089518948894089577235E
:10099800C2F7971798F3A9F7EA17FB07680788F3D0
:1009A80099F3ECCFF09560957095E195FF4F6F4FF7
:1009B8007F4F08956F2F660F660B762F0895059069
:1009C800F491E02D0895A591B49108957A936A93CE
:1009D800FA93EA930895182E862F612D192E972FD2
:1009E800712D1B2EBF2FF12D1A2EAE2FE12D08953C
:00000001FF
