:040000000C946600F6
:100004000C9400000C9400000C9400000C9400006C
:100014000C9400000C9400000C9400000C9400005C
:100024000C9400000C9400000C9400000C9400004C
:100034000C9400000C9400000C9400000C9400003C
:100044000C9400000C9400000C9400000C9400002C
:100054000C9400000C9400000C9400000C9400001C
:100064000C94000080889098A0A7AFB6BDC4CBD1F3
:10007400D7DDE2E7EBEFF3F6F9FBFDFEFFFFFFFE52
:10008400FDFBF9F6F3EFEBE7E2DDD7D1CBC4BDB668
:10009400AFA7A0989088807870686059514A433C13
:1000A400352F29231E1915110D0A07050302010115
:1000B40001020305070A0D1115191E23292F353CCA
:1000C400434A515960687078F894EE27EFBBF1E029
:1000D400F5BFE5BFF8E1A895A4B7A77FA4BFF09347
:1000E4006000E09360008DE0A2E0BB27ED938A9569
:1000F400E9F780E098E0A0E0B1E0ED930197E9F73B
:10010400E0E0EEBBEFEFEDBFE8E0EEBFC0E0D3E030
:100114000C948C00E3E8E4BDE1E0E5BD569AE0E828
:10012400E0936100E0E0E0936100E0910003EF5FA1
:10013400E0930003E150F0E0E859FF4F049007BC5E
:10014400A0910003A43619F4E0E0E093000382ECEC
:1001540090E00197F1F7000000000000E6CFFFCF28
:00000001FF
