:0C0000000C948C2A0C9400000C9400005E
:10000C000C9400000C9400000C9400000C94000064
:10001C000C9400000C9400000C9400000C94000054
:10002C000C9400000C9400000C9400000C94000044
:10003C000C9400000C9400000C9400000C94000034
:10004C000C9400000C9400000C9400000C94000024
:10005C000C9400000C9400000C9400008282817FB0
:10006C007E7F7F7F7F81828383828281807D7C7F84
:10007C007F7F7E8083827F8081807F7F8182808072
:10008C0080818180818284827F7F7F7D7A7C7D7F6D
:10009C007F808183807D7D7E7D7D7E818482828355
:1000AC0083828180818181818182807F7F807F7F3B
:1000BC007F8080807E7F80807F808080807F80803A
:1000CC00817F808180807F808180808080817F7E25
:1000DC007F8080808080818080807F7F807F808116
:1000EC00808080818080808180807F808080808003
:1000FC008080808081807F807F808080807F8080F6
:10010C0080808080808080818080808080818180E0
:10011C008180817F80808180808080807F807F7FD4
:10012C00807F80808080808080807F8080808080C5
:10013C00807F807F7F8080808180808080808080B5
:10014C00808080808081818080807F8080808080A2
:10015C00808180818080808080807F808080808191
:10016C00808080808080807F7F80808080807F7F87
:10017C008080807F8180807F8080808080807F8075
:10018C0080808080808080808180817F8080808062
:10019C0080818180807F7F80808080808080808053
:1001AC00808180808080818080807F80807F808043
:1001BC0080808080818080818080807F7F817F8033
:1001CC008080808080808080807F8080807F808025
:1001DC00808080808080808080808080807F818013
:1001EC008080808080808080818081808080818000
:1001FC008080808080807F8080807F8080808081F4
:10020C00818081808080818080808080807F7F7FE2
:10021C008080808180807F7F8080808080817F80D3
:10022C00817F808180808080808080807F80817FC2
:10023C00808080807F8081807F818180817F8080B1
:10024C00818080808180808080808080818080809F
:10025C008081807F8080808180807F808080808092
:10026C00817F7F80807F7F808180807F8180807F85
:10027C007F82817E7E8183807E7F82827F7D808172
:10028C00817F7F80817F7F8081827F7F8081807F63
:10029C00808181807F808181807F8081807F80824E
:1002AC00807F7E81817F7E8082817E7E8183807F44
:1002BC007F81817F7F8081807F808181807F818031
:1002CC0080807F818180808081817F7F80817F7F22
:1002DC00808182807F7F81807F8081817F7F808110
:1002EC00817F7F8081807F808180807F8081808002
:1002FC00808081807F80818180808081817F7F80F0
:10030C0081807F808081807F8081807F80808180E0
:10031C007F8080817F7F80807F7F808181808180D2
:10032C00817F808080807F7F8080807F8080807FC5
:10033C007F8080807F80817F807F80807F7F8080B6
:10034C00807F808080808080808180808181807FA0
:10035C0080808080808080807F808180807F7F8192
:10036C00808080818081808180808080808080807E
:10037C00808181807F8080807F7F80818080808071
:10038C0080807F818080808080808180807F808160
:10039C008080808080808080808080808080817F51
:1003AC00808080808080807F807F80808080807F44
:1003BC0080808080808180808180807F807F808031
:1003CC00807F8080808081807F7F7E808081818023
:1003DC0080807F808081807F807F80808080808112
:1003EC008080808081808080808080808080808000
:1003FC007F808080808080818081807F80818080F0
:10040C007F81807F80807F8080807F7F81808081E2
:10041C00817F807F808181817F7F808080808080D0
:10042C008080808080817F8080807F8080808080C1
:10043C0081807F807F807F808080807F807F8080B4
:10044C008080808080808080807F8081808180809F
:10045C00807F8081808080807F818180807F80818F
:10046C0080807F80818080808080807F8080807F82
:10047C00817F80818080808080808080808080806F
:10048C0080808081808080807F818080808080805F
:10049C008180808080807F8080807F808080818050
:1004AC0080807F7F8081807F808080807F80808142
:1004BC0080807F808080807F81818080807F808031
:1004CC0080808080808081807F80807F8080808021
:1004DC008080808080808080808180818080807F0F
:1004EC007F808080807F808081817F807F7F7F8004
:1004FC008080807F7F80807F817F808080808080F3
:10050C0080808080817F807F8181807F80808080DF
:10051C0080808080808080807F808080807F8080D1
:10052C008080808080808081808180808080817FBD
:10053C0080808081807F80808080808080808080AF
:10054C008181808081808081808080807F8181809A
:10055C00807F81808080808080807F80807F7F8092
:10056C008080808081818080807F8180818080817B
:10057C0080818080818180818180807F807F80806C
:10058C0080808181808080818081818080807F7F5C
:10059C00807F80807F808080818181807F8080814E
:1005AC0080807F807F7F808180808080807F808141
:1005BC0080808080808080807F808181808180812C
:1005CC00807F807F8080808180807F807F81808120
:1005DC00807F80808180818080808080808080810D
:1005EC00807F8080807F80807F81807F8080818001
:1005FC008080808181808080808080807F808080EE
:10060C00808080807F808080807F8080827F8080DF
:10061C007F8080808180808180808080807F807FCF
:10062C0080807F808080807F8180808080808081BE
:10063C00807F808180808181818081807F7F8080AC
:10064C008180817F7F808080808080808080807F9F
:10065C007F7F807F80807F807F80807F8080818093
:10066C00808080807F7F8080808080808080808080
:10067C008080807F818080808080808080807F7F70
:10068C008180807F8080808180808080808180805C
:10069C0080817F807F807F8080808081818080804E
:1006AC008081807F7F808080808080807F807F8041
:1006BC0080808081808180808080807F808080802D
:1006CC00807F808080807F8181807F8080807F8020
:1006DC00807F80808080807F80808080808180800F
:1006EC00808180807F808180808080808081807FFD
:1006FC00808080818081808080818081807F807FEC
:10070C0080808080808080808080808080808080DD
:10071C0081807F80808081808181808081808081C8
:10072C008080818080808080808080807F80817FBD
:10073C00808080807F807F808081818080807F80AE
:10074C0081808080808180807F808080807F81819B
:10075C00808080808080808080808080808180808C
:10076C0080807F7F8080808080818080808080817D
:10077C0080808080807E80808080807F807F808071
:10078C00807F7F8080808081807F808181807F805E
:10079C00808180808080807F80818080807F81804C
:1007AC007F818180808081818080807F7F8080803C
:1007BC00818080808080808180807F80808180802B
:1007CC0080807F8180807F81808081807F8080811C
:1007DC0080808080818081808180807F8080807F0C
:1007EC00807F80808180818180807F817F807F80FD
:1007FC00807F8080807F80808181808181818080EA
:10080C008081807F80807F817F808081817F8080DC
:10081C00808081818080818081807F80807F8080CA
:10082C00807F7F80807F807F807F8081807F8080C1
:10083C00818081808180807F7F807F8080818181A9
:10084C00807F818181808080808080807E7F7F819D
:10085C0081817F8080808080807F807F808080808D
:10086C0080808181808080807F8080808181818078
:10087C008181818080808080808081808080818067
:10088C008081818180808080808080807F7F80805B
:10089C008180808180808080818081808081818145
:1008AC0080807F7F7F7F808081818180807F80803E
:1008BC0080807F8080818080818080807F7F80802D
:1008CC0081808081808080808180807F80807F801B
:1008DC0081817F818081818181808080807F808007
:1008EC007F80807F7F81808080807F8080808181FD
:1008FC008081808181817F807F807F8080808080EB
:10090C008081818081808080807F7F8080808081D9
:10091C008081808080807F7F7F7F7F8181828180CA
:10092C00818080817F7F817F7F807F7F80818281BA
:10093C00808080817F7F7F807F80808080807F80AF
:10094C00807F7F7F807F7F80818081828181818099
:10095C0080807E7E7E7F807F80818281818081808D
:10096C00807F7F8080807F80808081808080807F7E
:10097C00807F7F7F80808182818281807F807E7F6B
:10098C007F7F7F7E8081818181828281807F807F59
:10099C007F7F808080818080818180818080808049
:1009AC0080808080808182828080807F7F7E7E7F3D
:1009BC00818080828181828180817F807F7E7F7F28
:1009CC007F807F8081808080807F7F7F808080801F
:1009DC00818081818080807E807E7E7F808080800F
:1009EC0081818180817F807F7F7F7F807F808081FC
:1009FC0080808180817F7F807F80808080828281E7
:100A0C008180807F807E7F7F7F807F8081818281DB
:100A1C008181807F7F7F7E7F8080818082808181C9
:100A2C00807F7E7E7F808181808182818282817FB6
:100A3C00807E7D7F7F8080818182818181807F80AB
:100A4C007F807F7E7F80818181818080807F7F7F9E
:100A5C007F7F8080818182818281807F807E7E7D8C
:100A6C007F8080818182828182808080807E7E7E78
:100A7C00808081828181818180807F7E7F7F807F69
:100A8C0081818282838180807F7F7D7D7D807F805C
:100A9C00828183828281817F7F7D7D7E7E80808149
:100AAC008181818180807F7F7F7F7F808180828236
:100ABC00828282807F7E7D7D7E7F807F808282822B
:100ACC008282817E7E7F7F7E7E8081818181818218
:100ADC00817F7F7F7E7E7E80808282838283818005
:100AEC00807F7E7F7F7E7F7F818282818280817FFB
:100AFC007F7F7F7F7E7F8081808181818080807FEE
:100B0C007F7F807F80818181828181807F7E7F7EDB
:100B1C007E7F7F818181818281828280807F7E7FC6
:100B2C007F7F7F80818080808180807E7F7F7F80BF
:100B3C00818182808180818080807F7E7F7F7F80A9
:100B4C0080808281818181807F807F7F7F80807F98
:100B5C00807F8080807F80807F808080807F81818B
:100B6C0080818181807F7F8080807F808181818076
:100B7C00808081807F7F7F808080807F81807F806C
:100B8C0080807F808081808080808080817F808059
:100B9C0080807F7F7F818180818080818081818046
:100BAC007F7F80807F80808081807F80808080803C
:100BBC00807F7F80808181818081808080807F7F29
:100BCC00808181818081818182807F8080807F7F14
:100BDC007F7F7F7F818081808080807F7F807F800E
:100BEC00808080808080807F807F808080808181F9
:100BFC00818181808181817F7F80807F7F7F8080E8
:100C0C00807F80817F8081808080817F80808080D8
:100C1C0080807F818081807F807F808080808081C8
:100C2C00808081817F7F7F7E807F7F7F80808080BE
:100C3C00808080808081807F7F80808080808081A8
:100C4C0080807F8080808080808082818080818095
:100C5C008080807F7F80808180807F808081818088
:100C6C0080807F807F8080807F7F8081808081807A
:100C7C008080808081818181818080808081807F63
:100C8C007F8181818180807F81818080807F7F8056
:100C9C00808080817F808180807F80808180808047
:100CAC00808080808181808080818081817F7F8035
:100CBC0081808080807F7F80807F80818080807F2A
:100CCC008080807F80817F8081807F80807F818118
:100CDC008180808080808080818080808180807F06
:100CEC00808080808081807F8080818180808080F6
:100CFC0080807F807F8181808180808080817F80E7
:100D0C00807F81808080808081808180807F8081D5
:100D1C008081807F80807F817F80807F8081807FC9
:100D2C007F8080818080807F7F80808180808080B8
:100D3C0081817F7F7F8180807F80808081818080A6
:100D4C0080808080807F7F7F80808080808080809A
:100D5C00807F7F81808080808080808080807F7F8A
:100D6C0080807F8080807F80808080808081818176
:100D7C00807F7F807F7F80807F7F8080808081806C
:100D8C00808080808080807F8180808081817F7F57
:100D9C00807F80807F8080807F7F8081807F7F804C
:100DAC0080807F80817F8080818080808080818036
:100DBC007F7F7F8080808080807F80808080807F2C
:100DCC0080818082818181807F7F807F80817F8113
:100DDC008080808080817F80808080818080808006
:100DEC00808080807F8080808080808080808080F8
:100DFC0080807F8081817F8080817F7F7F80807FEA
:100E0C00808180807F7F808181817F8081808180D3
:100E1C00818080807F808080807F808081818080C5
:100E2C007F8080808181807F7F7F808080818080B7
:100E3C008180807F8080808081818081807F807FA5
:100E4C0080817F80807F80808181818180817F8093
:100E5C0080807F7F7F8081807F8080807F7F7F7F8D
:100E6C008081818082807F7F8180808080807F8074
:100E7C00828182817F7F7E7F7F81818181807F7F64
:100E8C008080817F7E7E7E7F8080828281807F7E5B
:100E9C007E7E7F818281808182818280817F7D7D47
:100EAC007D8081818281807F7E7E807F7E7F7E7D42
:100EBC007F8285878683807D7B7C7E7F8282828118
:100ECC008182828282807B787A7C7E868785817D16
:100EDC007C7B7C7F808081817F8185878684807B01
:100EEC0077777A7F838787858280807F80827F7CFB
:100EFC007D7D7D868885837D7674777A7D807C7A0E
:100F0C0076757A858E979E988E83797373787777BA
:100F1C007B787D8A949491857365656E7F939D9B98
:100F2C0093857973727271706E70787F87877F7A10
:100F3C007B7E8999A3A09687756C6E6E747F818079
:100F4C00858B8E8F8B7C6A6163738BA0B0AA937C2C
:100F5C00685B5D6974757C7E7B8188857C756E6F42
:100F6C007E9AB6BBB39E7D615860606C7D7C81932C
:100F7C009FA19D8670554F627F9DB2BBA582715D0E
:100F8C00505A61666C71747F858F9497949BA59A67
:100F9C009792796C6D6A6C707D858B98A59B8A7520
:100FAC005945456986AACAC7AE8C694D42495561F7
:100FBC006E787E868F92938E918D97A5A29A917B57
:100FCC00655F64626E829397A3AB927861514055D2
:100FDC00829FB6C3BA9175654F4248564F5B7A8C67
:100FEC0096A0AC9B94A1B1AD9E956A4C4C6870795F
:100FFC008E948F95AEA3836E4F3A396C95B3C8C956
:10100C00AD7F6F5442333D3B416388A0AFC2BCAA55
:10101C00B7C7B78E7E5936437186828F958D95B73B
:10102C00AD7A5738222D6FA8C2D0D1AD82765B3BFA
:10103C00232820336393A5B9CBC8D0E8E4AB744D17
:10104C0020215F929186918F98BCD39C5527080ED6
:10105C004995C0D2DBCAA88F77481F0E0D22528447
:10106C009AB0C5D0E4FCF0AF6B3613276C988D7F2B
:10107C008690ACDCEBA75220010E4586A6BDCBCDED
:10108C00BFA9854A1D04082551748EAFC5D9F4FB40
:10109C00CD854E2525568787727585A1CDEDC573F7
:1010AC003E1A1937677D8CABC4D0C4A96D381D208E
:1010BC0035485D6F89ACD0F6FBD1916136325878EA
:1010CC0071626E819EC7DEB77B564040536C6A6D71
:1010DC008BA9BEC0AC795240474D525A637395C12F
:1010EC00E6E9C7A07D5759757C6357616A89B0C31F
:1010FC00A27D6760687981706871859BA7997F6E06
:10110C006061605A4B51627FA5CEDCC6B5A7867A6A
:10111C0085774F46545E7EA4B297877E787F847E17
:10112C0061606C80929C907B777371685846485BC9
:10113C007BA1C7CDBFB8B399928C6D3F3D4E6085F6
:10114C00A0A2888584888D8A7A6165708391928546
:10115C007A7E79756956444F647F9FBDBEB2B7B62F
:10116C00A29B8F673E45536687988E7D87858C94AE
:10117C008972626E768B918978797F7B796A544813
:10118C00586984A4B4A9AEBAB3AAA88859465154D4
:10119C00708889787E86879893846F73727D908B24
:1011AC007A747D77797364525A657594AAA5A3B243
:1011BC00B1AEAF9D72525456637B7E7570837F9334
:1011CC00948B7A7C7D788C857B737E7576766A5D64
:1011DC00616C71879EA09AA7AEA9B1AB88625E5A6A
:1011EC005B767B7266797987978F827F8A7D898619
:1011FC007B717A7B71746B615F727682969B94992A
:10120C00A8A4ABAF9977686B6675797462656F76D5
:10121C008C8887828D88888D8076747E71767062DA
:10122C005D6A747F979D93909D9CA3AFA18570720E
:10123C006F787C76645D6C6C8286877C888B8991F8
:10124C00887F757D717171696268747C98A6A397AB
:10125C009B9697A49C7E626467758B866E667B7B7F
:10126C0092928175727B7D867A77768382726757CC
:10127C0054628494B4C7B7A0B099868D724035552A
:10128C006990A9B1988D997D715952517F9186932E
:10129C00918B8591604744484F638499C6F7F3AEB0
:1012AC008F734A637150254C85B8DCDAAF737B665B
:1012BC004F392C3B6EBEC5BFA99A7A745A2E313861
:1012CC00586D96B4CBE9FDB96C5A3E4263705454D8
:1012DC0099CDE1D3B46953513B322F5881C2E2CE40
:1012EC00A98E7652462F3A4C687F93B1CCE8E6B47F
:1012FC005C424853707C6D608FC9D3C29E76505649
:10130C00443434568FBFE5CDAA8877543F3A3D55C7
:10131C0067858EA5BAC2B5AA8C5F5F716F7387861D
:10132C0075829EA9A29C8C6C544A41476187A8CBBC
:10133C00C8A6896F55495157606B7C8A97A9AD999E
:10134C008E918C7A7980797E837D676B8EA9B1A919
:10135C009F6C564B48425C83A7CCC3A77B72595BEE
:10136C004F595B6E8591A19DA48A898999867B874B
:10137C007D79788466627EA4B5ABAD775B474842D5
:10138C0049738BCBD3CC8F76634B5451695D828D73
:10139C009F9D978B73737CA59D92928377767E62CB
:1013AC005873A3C3B9AE754C433C41407392D5E717
:1013BC00D8A472613E4D4566607F8B959B9B977858
:1013CC006B6B9CAA9F9285736E80785A609AC0C290
:1013DC00A98338333F54526DA0C1F7E3B869523931
:1013EC0034465C6D729CABB0A39170514B6BA4B93D
:1013FC00AEA19276717A764D5F8CADB0A1854A51D3
:10140C004C66567499C4EED4AC5C482D425C717B2E
:10141C007F9CA0A597855F4A445E9ED8D5B69F71E8
:10142C005D606B4B3F71A8CCB4AB7058565B5B5195
:10143C007E97D5DAC78B544B3F545A70738FA0A349
:10144C009B8572594A4D73B7E9D9A7815D5057698D
:10145C0055477EC2DABFA76E474F5B5C45759FD779
:10146C00E0C78E564E3A4955767A97AB9B8C838162
:10147C006750455984D4F4C793735D576865434BE3
:10148C00A0D2CFB6995A526054434782ACE8E8BD1B
:10149C00735046445059727897A3A192897557415D
:1014AC00425F8FE0FFD68F6D564D5E6A5A5291C6E1
:1014BC00D4B79B714C4F4B514A7DA9CED4B08A60A6
:1014CC005A4D4D536E84929B989391846F5746500E
:1014DC0072A3D2E1BE876D615E626F675B89B4B83F
:1014EC00A19A815F5A5B5C577894A9B6A58D726AF4
:1014FC005A576377787D909EA19483695352677C89
:10150C008EA9C3C6A5826F60666E706D6B85A4AD27
:10151C00A0907866645E5C5A718EA9AC9E867775D5
:10152C006E6E696E717E8A949088867E706B6A6C22
:10153C0083ADC6B19081665C798C745F748C94A019
:10154C00B291645A625D607A868D98A29182786EAF
:10155C00686F7670788D969694897A6E6C6D6B6BDD
:10156C007490ABB2A28E7B72838D826660748D9305
:10157C00958879737A786C6C717E88979386808164
:10158C007F7B7D7A75777E808082847D73717478A1
:10159C007E87949B979690868281837A74747B7EE7
:1015AC0082857E787579777674767F8B95928A852D
:1015BC00807B797A77757C858986817D7877727462
:1015CC00787D82898F8E90908F857E7C7C7F7C7DD0
:1015DC007B7B7A7E87857E787C7E7A7C8182818219
:1015EC008481818483807F7D78787B7C7A7F827D07
:1015FC007E8388838182817E8184828182888684B5
:10160C00807E808385817B7A7D7F848685808180C6
:10161C007B797978777B7E7E7F8587827B77787BF9
:10162C0081858684858989827D7E7E7E828785817F
:10163C007F807E7C7D80808182818082827E7D7EA7
:10164C008181817E7C81848483807A75787D7F7EA4
:10165C008181807E81817E8285848283858585825D
:10166C007D7C7F818284847F7C7C7977797E818389
:10167C0085868380827F7D7F8080807D7D7D7E7F5F
:10168C0080818180838581817E7E7F808486868532
:10169C00827F7D7C7A79797B7E848787837F7F814B
:1016AC008182817D7D7F818382807E7A78787A8049
:1016BC0083838482828482817F8083838686817CFB
:1016CC007C79797B7C8082878683807F7C7A7A7C2C
:1016DC00808488888685827E7B79797A7D828585EF
:1016EC00838383807B7979797C7F838787888580E6
:1016FC007B787A7E8083858583827D7A78797D80FC
:10170C008385868685817D7C7B7E838586878684A2
:10171C00807B7878797D8182858686837F7A7B7CD5
:10172C007B7F82838384837F7B7A7A7A7C7E8080C2
:10173C0082838584828180807F8183838486838277
:10174C00807D7C7C7D818283838383817F7D7D7C96
:10175C007C80828283827F7B7877787B7E82828397
:10176C008483827C7A7C7F838587858584837F7B59
:10177C007B7D80838684858484817E7C7E8083844B
:10178C00848280817F7B78797B7D7F8281807E7E65
:10179C007D7D7D7D7F82838283818080807F7F7F42
:1017AC007F80818382808182828283828182838214
:1017BC00817F7F8283817F7F7D7F7E7E7B7C7E812C
:1017CC0081807F7F7F81817F7E7E8181807E7D7F16
:1017DC007F80807F7F808281807F7F8083838283F4
:1017EC00848483817F7D7E80808080818081807FE6
:1017FC007D7D7D7E80818282838280807F7E7D7EE6
:10180C007E80818080807F807E7E7E8081828382CC
:10181C0082828282807F818181818080807F7F7EB5
:10182C007D7D7E8081808080818081807F7F8182B0
:10183C008381807F807F7E7D7D7E7F81818182839D
:10184C008180808080808182828281817F7D7C7D8D
:10185C007D7E7F8181818181807F7F7E808182827C
:10186C00838281807E7D7E7F7F8081818281807F6B
:10187C007F8080808182828281807F7E7E7E807F5D
:10188C0080818181807F7F7F7F8081828281817F47
:10189C007F7F7F81808182818280807E7E7F81823A
:1018AC00818281817F7E7E7E7F8081808081807F2E
:1018BC007F7F7F7F7F8181828281807F7F7F7F801E
:1018CC008181808180807F80818080808282818103
:1018DC0081817F807F8181808181807F807F8080FA
:1018EC007F8080807F80807F80807F8081818080EE
:1018FC007F8080818081808080807F8080818181D9
:10190C008080807F8080808181818181807F7E7FCB
:10191C007F8181818081807F7F7E7F8080818181BA
:10192C00818080807F7F8180808180808181827FA7
:10193C007F7F80818080808180807F7E7E807F81A0
:10194C008180808081807F7E808081828181808087
:10195C0080807F807F8081808080807F807F807F7F
:10196C0080808080818180807F7F81818080808069
:10197C0080808080807F80818080807F7F807F815D
:10198C008181808081807F7F7F7F8080808080804C
:10199C00808080807F808080818181818081808037
:1019AC0080818080808080807F7F7F80818080802C
:1019BC00817F80817F7F808080807F81818080801B
:1019CC007F7F7F7F808081818080807F7F7F808010
:1019DC008081818080807F7E807F808080808080FD
:1019EC00807F807F80808080808080807F807F7FF0
:1019FC007F818180808080817F7F7F7F80808181DB
:101A0C008181807F807F7F7F808180808181807FCA
:101A1C0080808080808181828180807F80808180B5
:101A2C0080808080807F7F7F7F80818182828180A7
:101A3C0080807F7F808181818181807F7F80808099
:101A4C00808281818180807F7F8080818180818183
:101A5C00807F7F7F7E7F808082817F7F7F7E7F7E85
:101A6C008080808080807F7F7F7F7F80818080816D
:101A7C00807F8080807F8181818281818180807F55
:101A8C00808081818282818180818080808181813E
:101A9C008180817F807E807F807F7F7F7F7F7E7E45
:101AAC007E7E7F7F80807F7F7F7F7F7F7F7F808038
:101ABC008080817F8080818181818281818281800F
:101ACC0080808180808181818181818180807F8003
:101ADC008080818180807F80807F7F807F807F7FFE
:101AEC00807F7F7F7F7F7F7F8080807F807E7F7FF6
:101AFC0080808081808080807F80808080818181D7
:101B0C0081808180808080808180818180808080C4
:101B1C008081808080807F818081818080808080B6
:101B2C008080808080807F7F807F807F80808080AD
:101B3C00807F807F807F808081818180807F7F809B
:101B4C007F7F8081808080807F8080808080817F8B
:101B5C00807F808080808180808180818080808077
:101B6C00808080818081808080807F808080807F69
:101B7C00808080807F7F80808081807F807F7F805D
:101B8C0080807F808081808080808080817F808049
:101B9C008081808080818180808080807F81818134
:101BAC0080807F808080817F81817F7F808080802A
:101BBC008080808080808080808080808080807F1A
:101BCC00808180807F807F80807F8080818080800A
:101BDC0080807F7F80808080808081807F808081FA
:101BEC0081818180808080808180807F80808180E5
:101BFC008080807F808081807F81808080808080D9
:101C0C00808080807F8080807F80817F80808080CA
:101C1C0080807F8180818080807F8180807F8080B8
:101C2C008080808080807F7F807F8080807F8180AB
:101C3C007F7F807F7F80807F7F808080808080819D
:101C4C008080808080808080808081818080808086
:101C5C00808080808080808080807F808080818078
:101C6C008080808180808080818080818180818063
:101C7C008080808080808081818080808080808056
:101C8C0080808080808180808181807F80807F8047
:101C9C008081808080808081807F7F808081808136
:101CAC0081808080808081807F8080807F81807F28
:101CBC0080807F80807F7F807F807F7F7F7F80811F
:101CCC0081818080818181808081818180818180FE
:101CDC00807F7F807F7F7F808080808182818180F8
:101CEC008180808080807F7F7F7E7F8080807F7EF0
:101CFC007E7F7F7F807F80808181808282818080D7
:101D0C0080807F80818081828281808181818080BE
:101D1C008080818181807F8080807F7F7F7E7F7FBC
:101D2C007F7F7F807F7F80807F7F808080818080AD
:101D3C00817F81808181818181818181818181818A
:101D4C008281818180808080807F7D7D7E8080818A
:101D5C0081807F7F8080807F807F80808080808179
:101D6C00807F7F7F7F808181808080808081818067
:101D7C008081808182818281818080817F7F80814E
:101D8C008180807F7F7F7F7E7F8180808181807F4B
:101D9C008080807F81807F7F807F7E7F807F7F7F40
:101DAC008080808081818080807F807F8080808027
:101DBC007F80828182818080807F7F7F8181818012
:101DCC00808080808080807F7F7F80807F7F807F0D
:101DDC007F80808081808181817F7F7E7E807F80FB
:101DEC0080808080818081807F7F808081808181E4
:101DFC00818181818181808080818080807E807FD3
:101E0C007E7F808080807F7F817F807F7F7F8080CE
:101E1C008181828180807F7F7F7F7F8081818182B1
:101E2C00818081818080818081808080807F7F7FA4
:101E3C008080808080817F8080807F7F7F807F809A
:101E4C008180808180807F807F8080808080818085
:101E5C00808181808080807F7E8081808180808075
:101E6C008081808081808080808081818180808061
:101E7C008081807F7F7E7F81818180818181818053
:101E8C00807F7F7F7F7F7F7F7F808080807F80814E
:101E9C008081807F8080818080818181817F807F33
:101EAC007F80807F7F8080828182818180807F7F24
:101EBC007F80807F7F7E7E80807F8080817F80801E
:101ECC0080818080808180818181807F8080808002
:101EDC008080808081818181808080807F7E7F7FF7
:101EEC007F7F7F818181818180807F8080807F80E6
:101EFC00818181818180807F7F807F7F7E7F8080D8
:101F0C008080818181828181807F7F7F80807F80C2
:101F1C0080808180818181818080808081807F7FB1
:101F2C00818081808081807F7F807F7F7F7F8080A8
:101F3C00808180817F7F7F7F7F8080818180818095
:101F4C00818182818081818180808080807F80807E
:101F5C00808080808080807F808080808080808076
:101F6C008080818080807F807F8080818180808064
:101F7C0080808081818080808080818081807F8052
:101F8C008080808080808081808080817F7F7F8046
:101F9C00808080807F7F80807F7F808180807F8039
:101FAC0081828081807F808081808281808080811D
:101FBC008080807E7E7E7F80807E7F818183827F19
:101FCC007F8081808080807F7F7F7F80807F80800A
:101FDC00818180818081808081818080807F8180EF
:101FEC007F7F7F7F807F7F7F7F7F7F8180818180EC
:101FFC008181808080817F7F8180807F80808080D4
:10200C00808081808180808180807F7F807F8080C4
:10201C007F7F7F7F7F8080818181808181818180B2
:10202C007E7F7E7E81837F80827F7F7F7F808180A9
:10203C008081808181818280807F7F807F817F7F92
:10204C008080807F80808080808080808080808085
:10205C0081807F81808180818080807F7E7F7F7F77
:10206C0080807F8080808080807F7F807F80808068
:10207C007F80818180807F7F808180808080828250
:10208C0082838282818080807F7F7F7E7E7F7F7E45
:10209C00818081818180807F7F8080807F7F7F7E37
:1020AC007E7F7F81818181818182828182807F7F1D
:1020BC00807E7E7F7F7F7E7F7F7F7F80808182821C
:1020CC008282807F7F807F7E7F8080807F80818105
:1020DC00818180808081807F808080807F7F8080F4
:1020EC0080808080818180807F7F7F7E7F7E7F7EED
:1020FC007E7F8080808080818181808180808180D2
:10210C0080818180807F808182828182807F8080BB
:10211C007F7F7F7F7E7F7F7E807F7F807F7F7F7FC3
:10212C00808080808181817F81818080818181819B
:10213C00818080817F7F7F80808180807F7E7F8097
:10214C007F7F7F808080808182828180808181807E
:10215C007F8080807F7F807F8180807F8081808076
:10216C00818180807F808080808080808081818060
:10217C008180808080808181807F7F80807F7E7F56
:10218C007E7F808080818080807F81808181808142
:10219C0081818080818080808080807F7F7F7F7F35
:1021AC007F7F8181808080818081818080807F8021
:1021BC008081807F80818181808081807E7F808111
:1021CC0080807F8180807F807F807F808080818005
:1021DC008080808081807F7F7F80808180817F80F4
:1021EC0080808080807F80818080807F7E808081E5
:1021FC00818080808080818080817F8081818081CE
:10220C00817F807F80807F807F80807F80808081C5
:10221C008180818181807F7F808080807F808080B1
:10222C0080807F7F7F80808080808080817F8080A5
:10223C00808080808180808080818181818081808C
:10224C008080807F7F7F7F8080807F808180808185
:10225C007F7F7F7F7F808081808081808080808075
:10226C00818082807F80807F808080818080808060
:10227C00808081807F807F80808080808080808053
:10228C00808080807F7F8080808080807F7F808046
:10229C008180807F817F8080808080818180808030
:1022AC0081818180818180818080807F7F8080801E
:1022BC0080807F807F7F7F7F7F8080818080818115
:1022CC008181817F7F808080807F80807F80808003
:1022DC0081807F808081808080807F7F7F818180F2
:1022EC00808080807F807F7F7F7F7F8181807F80E7
:1022FC00807F808181807F7E808080808081817FD3
:10230C00808180807F7F80808080808180807F7FC3
:10231C00807F7F818081807F8081808181808080AF
:10232C008180818180807F80807F7F7F80808080A2
:10233C0081807F808080818080808081818081818C
:10234C00808182808080807F808080807F8081807F
:10235C00807F80807F807F818082808080807F7F73
:10236C0080808080818180807F808080808081815E
:10237C007F808080807F808080818180808081814F
:10238C008080807F7F808080808180807F80808043
:10239C007F80807F81808180808081808080807F31
:1023AC00807F7F8180808080807F808181807F8022
:1023BC008081818080807F7F808080808080808011
:1023CC007F808080807F8181807F80808080818001
:1023DC00818080808080808180817F8080807F7FF1
:1023EC008080808180808081818081807F808081DD
:1023FC008080807F808081808180808080808080D0
:10240C00807F8080807F8080807F7F807F7F8081C5
:10241C0080808181818081818081808180817F7FAA
:10242C007F80807F7F7F80818080808080808180A2
:10243C0080818080807F818081807F80807F7F7F92
:10244C00808080808180808081808181808081817A
:10245C008281807F807F7F7F7F807F808080808073
:10246C0080808181818080808081807F7E7F80815F
:10247C0080808081808081818180807F818081804B
:10248C00818081807F8080807F80807F8080808041
:10249C00818181807F8080808081807F7F7F81802F
:1024AC00808080808080808081807F81818081801D
:1024BC008180818180807F80807F807F7F8082810E
:1024CC0080807F807F7F80818080807F7F7F808005
:1024DC008081818181817F80818080807F808081EB
:1024EC0081818080807F7F808180808081818181DB
:1024FC0081817F817F7F808081808080807F8181CE
:10250C007F8080807E8180808181808181818180BB
:10251C007F807F8080807F7F8080808080818080B2
:10252C0080807F7F80808180807F808180808080A0
:10253C008080808080807F808080808181807F7F90
:10254C00808081807F80817F7F80807F8080818080
:10255C0080808081808080808081808080807F806E
:10256C007F7F7F8080807F7F808081818080808062
:10257C0080808080807F7F7F8080817F8180818050
:10258C00808181818181807F808081807F7F7F7F3E
:10259C00807F80808080808180808080808080802F
:1025AC0080807F7F8080808080808081807F807F22
:1025BC008180818080808080818180818081808009
:1025CC008081808080808181807F7F807F807F7F01
:1025DC0081808181808081808080808180808080EA
:1025EC008081808080807F808080807F7F7F8080E2
:1025FC00808180808080807E807F807F8080807FD3
:10260C008080808081808180818080807F808081BB
:10261C008181807F808080817F7F7F7F80808281AD
:10262C0080807F80807F80807F807F7F81818180A0
:10263C0081817F8080808080808081808180817F8B
:10264C008080808080808080807F807F8080808080
:10265C0081807F80808180808080808181807F806C
:10266C007F80807F80807F8080808080807F7F8162
:10267C00808080808080807F8181807F808080804E
:10268C00808081808080808081808080818180803A
:10269C00807F8081807F818181818180807F807F2C
:1026AC007F80807F8180808180807F7F7F81808020
:1026BC00817F807F80808180807F7F807F817F7F12
:1026CC00808080808180808081808081807F8080FC
:1026DC00807F807F7F8081807F7F80808080807FF3
:1026EC007F7F818080818181818180807F817F80DB
:1026FC00807F808080807F808080808080807F80D1
:10270C00808081818080808081808080817E8080BB
:10271C0080818081808080808080807F7F80817FAD
:10272C007F80808080808180807F817F807F807FA0
:10273C008080808180807F807F808080808080808E
:10274C008080808081818180817F807F81807F807B
:10275C008081817E807F808080818080808080806D
:10276C008080808080808080808181808181818058
:10277C00807F7F7E7E7E807F7E808080807F808059
:10278C007F8080818081808080807F818181818039
:10279C0081818282808081818281807F807F7E7F27
:1027AC00807F7E7F7F807E7F807F7F818280808024
:1027BC008080808080808180808080818081818108
:1027CC0080808081807F7F7E80807F808080818000
:1027DC0080808080808081818181818181808080E6
:1027EC00818180807E7F80808180808180808080DC
:1027FC00807F7F7F7F7F7F7F7F7F7F7F80818080D7
:10280C0080808180808181808080818080808080B8
:10281C008080807F808080808080818080818181A9
:10282C00807F8080808081808080817F7F8080809D
:10283C00808080817F808080807F8081808080808C
:10284C008080807F7F7F7F8081808080808081807E
:10285C007F7F807F7F80817F80808080808080816F
:10286C008180808080808081808081808080807F5A
:10287C00808080807F808081808080818181818048
:10288C008080808180808080807F8080807F807F3E
:10289C008080818080808081818080808081818027
:1028AC008080808180818180808080818080808018
:1028BC00807F80818080808080808080807F7F7F0F
:1028CC0081808081808080807F81818181807F80F8
:1028DC00818080807F7F7F80807F8081807F8080EF
:1028EC008181817F8081807F807F7E807E7F8080E0
:1028FC0081818180808081808181818081818180C2
:10290C00807F7F7F7E7F807F7F7F808080818181C1
:10291C00807F808080808080818080817F818081A9
:10292C008181818181818080818080808080808193
:10293C0080807F7F7F7F7E7F7F7F807F8081818093
:10294C0081818081818080807F807F808181808077
:10295C0080818080808181818081808080807F8067
:10296C008080807F807F7F7F807F8081818181805C
:10297C0080807F80807F7F7F7F80808080807F8051
:10298C008081808080808080808080808080808139
:10299C0080807F80807F7F807F808081818080802D
:1029AC0080808080808081808180808080807F7F1B
:1029BC007F7E80807F80808080808081808080810D
:1029CC008080808081808180818080808080807FF9
:1029DC00808080808080807F808080807F7F7F80EF
:1029EC007F8080807F7F80808080807F80818081DD
:1029FC008181808081817F808081808180818080C5
:102A0C007F80808180818080808080807F7F7F7FBD
:102A1C0080817F7F80807F7F7F8080808081807FAE
:102A2C00818180818080808180818181807F807F95
:102A3C00807F7F807F7F8080807E8080808180808F
:102A4C00808081818180807F7F80808180817F7F79
:102A5C008080807F8180807F80817F7F7F8080806D
:102A6C0080807F8180808180808081818080808057
:102A7C0080807F7F808181807F8080807F80817F4C
:102A8C007F808080818081808080808081817F7F39
:102A9C00808080807F807F807F7F80818080807F2E
:102AAC0080808180807F7F80808080808080807F1C
:102ABC0080808181818080808181808081807F7F06
:102ACC007F808080817F8080807F81808080817FFB
:102ADC008080807F808081808080807F80808080EB
:102AEC00808080807F80818081807E817F7F8080DC
:102AFC00818080807F7F7F818080808080808081CA
:102B0C00807F7F8081818082827F7F7F7F7F7F80BB
:102B1C0080818081807F7F7F7E7E7F7F80818285A8
:102B2C0084827F7E7E7E81827F7D80838483827F90
:102B3C007D7C7E7E7E7D8184858483807D7D7F7E91
:102B4C007A7A82888E8E867D75767C7E7C797B8087
:102B5C0083858580828587827E7D7D7F80827A7960
:102B6C007C8288898D877D7A7A787C7F8382818745
:102B7C008B8C8376686166727D838B9BADA68E761B
:102B8C005E647A8D9B6B67788EB1A29B6A474D6EA3
:102B9C0076748996B0A7A99466515B707F7C7A8312
:102BAC008595A08A66463B5A7BAFE1CEA57E5C59E3
:102BBC0066759E65578089C2A8A686463F56616495
:102BCC0086A3DACAB4965842425B7A6E6F8596A495
:102BDC009A825C485DA9C2A7986F758591A2502A0C
:102BEC005B83CAC8B4863F3A5C6A567487CCD9D129
:102BFC00BC643732546E6F6A788391AA9B84778257
:102C0C008C75747586A1A7B5684A5479B4ADB38038
:102C1C004D3E4F646B869EC3BAAE8E5F5159676E44
:102C2C0061535D6B9BBDC4C0A56F4C485D97A6B34B
:102C3C009F546378A4C79E9755393856607CA5BAC3
:102C4C00DBA49F684E55556C585156739CC6D9C61B
:102C5C00AB604047589AADADA3475E799CCFA7A710
:102C6C0059363258657CACAFCE9A997D54574D533A
:102C7C0046425C8BAAD3E9D6A24E3D485F9BABB0D3
:102C8C0075458494C8C1AF7E27233B6168A1C4DB22
:102C9C00C1957D4639414E4D3E5186C2E3F8D68EE4
:102CAC0043284664A1C0CD7C506488B1B7BD773D44
:102CBC0015595F7DAAC4D8947D5D5A48584835286B
:102CCC0055ABE4F7D9BC71443E51779AB3CA7360E3
:102CDC00668CB9B0BC6436045764A2C2CACD668295
:102CEC005077414823234A8AF1E4F6AF9E51484A73
:102CFC00558C9ADDA76B5D6BACB6C7914C07246401
:102D0C0074B49FD3A0A3906D42030F0E6B9CF1EE95
:102D1C00E7CD9F6234332F7D90ECBA7C7466AC9E09
:102D2C00B97F481444857EA77AB493ADA56D38005D
:102D3C001B3186A7E4D2D7D4A76D3A2F397996E602
:102D4C00A27F7F7AB998B06039154F7979AC8DD460
:102D5C0099B0784D24092C3D8D99DCCAEDE3B877F8
:102D6C003A221F6792ECB4989582B18EA1562E1E12
:102D7C004D7871AB95D19BA27246331336327D944C
:102D8C00D9DCF4E9A3613024367795D88B9B9AA1D2
:102D9C00C38791283825746D7D9F93D996B5534F71
:102DAC001E222E4A858BD1CDFFD4A05A301C557DC6
:102DBC00B5B1749C84D4B2A96622272E8561A082F9
:102DCC00C1B4AA9B594F1742307172ADCFE5FFC306
:102DDC00843B262D6D86BF817D8EB0E6B0AB3B2348
:102DEC000A4A71719C94DAACBA7B5B2C1D34437229
:102DFC007CBDD1FEE8A65D2B244B7EAD9F68818EF9
:102E0C00D2C8BE7D2C1D276F63908AB6B9B4A66755
:102E1C005023423A656F9DBFE8FABF7E3636406656
:102E2C00939C737387C8D2B79A482E1E5A677F81BA
:102E3C00A2BBB0AA7668343D3759688EC2E8F5B4A7
:102E4C007D44434E698B776673A2D3C3B5844E29F8
:102E5C003665637B7FB5ADB19E8260384A3F5E6755
:102E6C00A8D3F8E5A469384B54778464697DBED443
:102E7C00BFAA6C4B2651556B7390BCA8B98982457F
:102E8C00443E4B5D81CAEAF8B48B43465672885770
:102E9C00666DAFC9C4B77861375A5158657BB5A513
:102EAC00C1928B544D4941575FB5D6FFCC9E5B44C4
:102EBC0056618764626695C4BEB5897151525E577E
:102ECC0067679E9EAF9B8C79535942584F8FC5F3C1
:102EDC00DFAE83535A558261586385BEAFC096826C
:102EEC00585B635663619B90A196938960674A56C1
:102EFC004576ADDCDDB8A16A69597663485C73AF81
:102F0C00ABC0A78F685B65515F60929392908E9176
:102F1C0073715C534264A0CED3BCA380736C7D618F
:102F2C00474C6D9EA3BCAB9A736E6752535A9190EB
:102F3C0099888A87777A6A5C425A8DC6CFC1A985EF
:102F4C00796F836B4D4A638F97AEA7A07E79745DC2
:102F5C005453858C988D8B7C6D76766F505978ABED
:102F6C00BDC4B8947F6C836F5853618585A2A29FB2
:102F7C00848185695F52818291908E7E626D757FAE
:102F8C006369728E9EB2C4A895757E715A5C617E1F
:102F9C0078929A98897E8F726E597C7F858F8A89F8
:102FAC00616A687D70777E848E93B8ADAB898676C6
:102FBC0057585D7B7B8892918A7F94847B64707B6D
:102FCC007C908D8E695D5F707B7C877F857A9EAAF5
:102FDC00B5A792886255566B7C7C8F8E8C7D8993BD
:102FEC00877E6E7C6E7C8E998B615C546C738F8F3C
:102FFC00897C7B97A1B1A99E8965595969777E8F88
:10300C0086827A88948D8A7777667C8C98856659C7
:10301C0052687A97958C7E788896ACB0A791725945
:10302C00556176828D857A71809499988277636FD9
:10303C0084918B705F525E72919B9D8B7D7B82988D
:10304C00ACB4A5825E51546C84948D7B6A73829669
:10305C00A0998A6D686A7A807B71655E657C94A4A0
:10306C009F9383788094AAAA917358505A7A91941A
:10307C00877975748295A09785796A66667276737E
:10308C006E717A8A9AA4A291838189918E8B7A68C7
:10309C005D65757E8284857C7C828F919090847432
:1030AC00636062656D7A8890999EA0908A858B8DFD
:1030BC0089877B6D626C747D7E8080767C818E8F3F
:1030CC009293887B6B655B5A617284939FA2A393E6
:1030DC008B86898C8B8C7F6F62696F798187857702
:1030EC00777A858C97998F7E6E645A5A5F6E7D8D38
:1030FC009AA1A59A928B8988888A83766667686F6D
:10310C007B878A7F7D797D84929A948A78685957D7
:10311C005B687B8B989EA198958F8F8A85867F752F
:10312C006A6C696F77838680817D7D7F8D9698919F
:10313C0084705F575664798C989E9F978F8F908D73
:10314C0089887E71676B6A707882817D7F7D7F81D3
:10315C008C9194928977665B565E728897A1A49A3B
:10316C00918D8F8D8B8C83746869676E7882827D6C
:10317C007F7B7C81898D8F918A7D6C6156586881AB
:10318C0093A0A89E948E8F8D8D8F8A7A6C69646AB9
:10319C007580827D7E7C7A80898E8F908B80726721
:1031AC005C5763738997A7A699928C8B898D8B82B8
:1031BC00736B66646D7A8282807F7B7E848C929442
:1031CC009086776B62595D68798B9AA6A39B938FD7
:1031DC008B8B8A887C706967666F7A808080807D33
:1031EC007F848D8F938D817367605A606B7E8C9C0E
:1031FC00A7A39A96938F8F8D88786B676566717B82
:10320C007F7F80827E82878D90938B7E7165615BE0
:10321C00636C7B8C98A2A099959190908B87786C1D
:10322C006665666F79828483847F848992919289A2
:10323C007C6F65615D626B788997A1A49E9996926B
:10324C00928B84786A6361646D787F8481828083D9
:10325C008B909391887C7168656061687081919C9A
:10326C00A6A5A09D979690877F6F645F6167757E1A
:10327C0084827F7F7D878F94928E80746B65635F71
:10328C0063667083919FA9AAA19C94948C867E6B93
:10329C00635E636A7C868884817F7D889396948D37
:1032AC00806F6762615F63656A7B8D9FABB3A99D1D
:1032BC0096918A868375665F616975858A857C7847
:1032CC00757E8C949992836E646164686B6E696E82
:1032DC007F94A5B2B5A8978E8B8B8C857B6A616128
:1032EC006A77838680766F727D8C96978B7D6A6405
:1032FC00666F7677746B6A72869CA8ADA7958D8A7B
:10330C008C95918B7B6B64646E7B84857F726C6D0A
:10331C00768690938D7F736E727D7E7E7768646601
:10332C007990A1A7A99A9092939D9B93816A5D60D5
:10333C006B78827E725F5659678397A1A3998A82B4
:10334C007C81827A73615A5B69829AA8ADA899973D
:10335C00959A9D948D786863646A6D6C645A546018
:10336C006F89A4AFAEA28C7C747479777464575750
:10337C005F7693AAB1B0A2939296A4A39B8A6B5842
:10338C0050545E696F6C676A758497A6A59D907E94
:10339C0076757878766F635D626F839BABABAA9F13
:1033AC009496989D9688745A51525E6E7C7F756D7A
:1033BC006A707E91A09F998D7F7B7A8180797565EB
:1033CC005E636C7C8C9DA19C97908D91999D9B8D3F
:1033DC007F6D65666F7679776A635D6674828F92AE
:1033EC00918E89898688847E7B7673707172737CEA
:1033FC00828C939A9E989A9796948B857B75706E17
:10340C006E6965615F636F7C858F9191918F9191EE
:10341C008D87796F6560636873797E82898D909CE6
:10342C009FA5A8A6A2948C80726F6C6E69665F5A79
:10343C005E6477828F948C8A8384868A8F837D7670
:10344C007170757D7B7B797A818494959596939632
:10345C00989D998D81726A686E74767269636269DF
:10346C0076838E908B837E7F84898B877E77706F3B
:10347C0072777C85898B9298989B9E9A98918C8078
:10348C0077726B6965696666676872738187878E08
:10349C00898E898B8D87877D7E7B8084868A8080D0
:1034AC007B7D868B968F8D847C7A767D7B7C797107
:1034BC00716D74787C7F7C7E797D7E82898A918C1B
:1034CC008D8C878882857E7D7D7B7C787E7C7F7FE2
:1034DC007E7E7C7F8186868786807B7877767878FF
:1034EC007B787C7E848A8D908E898484838482818F
:1034FC007D78777479797D7E7F827F87848B8A8AC9
:10350C0086817E79797A7779797A7B7B81818587D7
:10351C00868A848A8285807F827B7D777874787AAC
:10352C007D80818483858589888A88888784868341
:10353C0084807F7C797974757375767A7B827F85CC
:10354C008283828283818480817F7E7D797D7C8170
:10355C0083878B8D8D8C8B89888886827E79767219
:10356C00747275777B7B7A797B7E81838582857F8C
:10357C007E7B7A7C7E808485888A8B888A87888803
:10358C0083837E7D7A7B7979797A7E7C7F81828553
:10359C00848683817D7A767374767B7E8187868937
:1035AC008C8A8E898C8482787A7777787377777A1D
:1035BC007E82878B8D8E8E8986857D7A74737474EA
:1035CC00767C797D7E84868B898E8A8888838482BA
:1035DC00817E7979797C7B7F7C7F81808480817FFF
:1035EC007B7B7D7E8282817D7C7A7D7C80828280E9
:1035FC0081818282838685828582847F8480847F98
:10360C0082847D80797F7A818484867F827B7B7AB9
:10361C007A7E78797778787A7C7E7D8080828286D3
:10362C00878889888C8787857F827B7E7F80838251
:10363C0085838284838583857E7E7D787875767498
:10364C00707575797A7E838188868E868A86848168
:10365C007F848186838484808483858584847D8132
:10366C007A807C7C7D797D797E7C7D807C7F787D89
:10367C007B787C797F7E83878B8C888C8A878A8207
:10368C008A7B817A7F7D7A7F7A7F7C80817D827E46
:10369C00837B7D7D7B7B7A7B7C7C81818787898624
:1036AC0084848182807F807E817F808183858281FA
:1036BC00817F827C807B7F7C7D7C797C79807B8028
:1036CC00808381838485848183818380827F8180D0
:1036DC0083807F7D7E807E807D807C7D7D7E837EF1
:1036EC00847D857E80807E827F827F8380838082C2
:1036FC007F8180827C7F7F81847F868084838284AB
:10370C007E857C82787E7979797D7A7F7A837F87D2
:10371C00868B858681847F817B7F787D787F7C8496
:10372C0081857E848284828284828080807F7F8176
:10373C008081818381807B81787C797D7B7C7D7E9F
:10374C007E84838980897E877B818080827F817D56
:10375C007E8081837E837D82818486827F827E814E
:10376C007F7E817E817F807C7E7D7C7C787D7A7D76
:10377C00808081808283838482857F85818583801C
:10378C00847D82807C827A837C847D848083818327
:10379C007D827A837D82817C827A817F7F7F788132
:1037AC0079807C827F7F7F7F828281858385858300
:1037BC0085828482817E7B7B7A7E7B837D817E8108
:1037CC0084838684828281837F827D7C7B767E77F4
:1037DC007D7B7B817B8581858583868183838186C7
:1037EC007E867C817D7B837A837B7E807F848384D1
:1037FC00837F827E847F837D7F7C817D837C817BC4
:10380C00817D817E827E817C807D807D807E807FBB
:10381C00818283848482817E827D847C827D80818E
:10382C0080828282807C817E828081818080818086
:10383C00848083807F807E7F7B7D7C7C7A7B7E8096
:10384C008082838383838681837D7E7B7D7D7F7F66
:10385C00807F8382878586818380817C817E807C4A
:10386C007F7F8181818180817F7E7F7E7D7C7B7C5F
:10387C007E7E8081828383848381827F7F7C7D7D39
:10388C007E7E808182828583858384838080817F14
:10389C00807E828080818182807F7F7E7E7D7E7C27
:1038AC007E7F818182838382828180807F7E7D7C0A
:1038BC007C7C7D7E7F8183828483848383828080F1
:1038CC007F7F7E7E7F7E80808182828383818080E9
:1038DC00807E7E7F7E7F7F7F807E81828180817FE4
:1038EC007F7E7E7D7D7F7F7F8181828381807E7DD7
:1038FC007C7D7C7C7B7A797A7D7E7E7E81808185E5
:10390C0086868686868785858482817F7E7F7E7E7D
:10391C007C7C7C7B7A797A7A7B7D7F8180838485C1
:10392C0086868483828282817F7F7F81817F7F7F75
:10393C007E7F7F7E7E7E7F7F7F7F7F807F807F818B
:10394C00828181838181818180818080807F7F7F62
:10395C00807F7F7F7E7E7F7F7F7E7F7F8081828165
:10396C00828281818281818081828080807F7F8040
:10397C007F7F7F80807F8081807F7F7F7F80808042
:10398C00807F80808180808180808080807F80802B
:10399C0080808080807F7F808080807F808180801D
:1039AC008180817F808081818080808180807F7F09
:1039BC00807F80818080808080807F807F7F7F80FF
:1039CC008181807F80808080807F808080808080EB
:1039DC0080807F7F808181807F80808180808180DA
:1039EC0080818080807F80808181808180808081C7
:1039FC0080808080808080808080807F7F7F7F7FC0
:103A0C007F80807F81807F7F7F80808081818080AC
:103A1C0081818180807F8080808081808081818095
:103A2C007F80807F807F7F8080818180818180808A
:103A3C0080807E80807F818181808080807F80807B
:103A4C0080818181818080807F80807F7F807F806A
:103A5C0080807F7F7F7F80807F808180808081815C
:103A6C00808080808181808180818081817F817F45
:103A7C00808081808080807F8180817F7F80807F3B
:103A8C007F80808080807F8080807F807F7F80812E
:103A9C00818181808080807F807F80808080808019
:103AAC007F7F80807F807F80818080807F807E7F11
:103ABC008180808080807F817F8080807F808180FA
:103ACC00808080807F8081817F808180817F8080E9
:103ADC008181807F808080808080808080808080D9
:103AEC008081807F807F808281807F8081808080C8
:103AFC0080808081808080818080807F807F8080BA
:103B0C008080807F808080807F80807F807F8180AC
:103B1C0080808180807F8081808180818081807F96
:103B2C00808080807F7F8081807F80808181808089
:103B3C0080807F8080808080807F807F808180807B
:103B4C00808181808180808080808080807F807F68
:103B5C0080807F808080818080807F808080808159
:103B6C0081808080807F807F808081818081808047
:103B7C0080808081808180808081807F8080808136
:103B8C008080807F8081808081807F7F808080802A
:103B9C0080808081808180807F807F7F7F80818119
:103BAC0080808081807F7F80808080818180807F09
:103BBC008080817F7F808080807F8080807F7F80FD
:103BCC00808081818080817F8080808080808080E7
:103BDC00808081807F7F80818080808081808180D7
:103BEC00817F7F80808080807F808080817F7F80CC
:103BFC0080808081808181828180808080808080B3
:103C0C00807F7F7F808080807F7F808080818081AB
:103C1C0080807F818081808080808180807F808196
:103C2C0080807F80818080807F8080808080807E8B
:103C3C00808080807F80807F818080807F80817F7A
:103C4C00818180808081818080807F7F8080808066
:103C5C0080808081818081807F7F7F808080808058
:103C6C0080807F8080817F7F808080808180808049
:103C7C007F80808080807F80808180808080808039
:103C8C00808080807F808080818080808081818125
:103C9C007F8181807F7F7F808181807F8080808118
:103CAC008180807F808080817F808080807F7F7E0C
:103CBC007F80808080807F7F807F808080808080FC
:103CCC008281808080807F8181808080807F8080E5
:103CDC008080808181807E80807F808080808080D9
:103CEC0080807F7F7F80807F7F80808081818181C9
:103CFC007F7F7F808180818080808180807F8080B9
:103D0C00807F8081807F80818080808080808180A6
:103D1C00808080818180808080817F7F807F7F8098
:103D2C008080818080807F807F7F7F808081808089
:103D3C0080807F7F8081807F808180807F80808178
:103D4C00808080808081808081808080807F808066
:103D5C00808180808081807F7F80807F817F807F59
:103D6C007F80807F7F808080808080807F7F80804C
:103D7C007F7F80808180808081817F81807F808037
:103D8C00807F80808080807F818080808080808028
:103D9C00808080808180807E8081807F8080808018
:103DAC00808080807F7F80807F807F807F7F80800D
:103DBC0080818081808080818081808080808180F2
:103DCC0080818081808080808080807F80808080E6
:103DDC008181808080808081808080807F818080D4
:103DEC008080807F80818080807F7F80807F7F80CB
:103DFC007F808180818180818180818081807F81B1
:103E0C0080808080808180818180807F8080807FA5
:103E1C008080818080807F807F8080807F80808098
:103E2C00807F80807F808080818080808080808186
:103E3C007F7F7F80807F7F81808180808080808079
:103E4C008080808081808080808080808080808065
:103E5C007F7F808080808080808080807F80808158
:103E6C00818080808080808080807F808180818143
:103E7C00817F8180807F7F807F8181808080808036
:103E8C008080808080808080808080807F80808027
:103E9C008080807F7F808080807F8180827F808017
:103EAC007F80807F80808081808180818180818003
:103EBC007F7F7F7F80807F808180808080808181F8
:103ECC00808080807F8081818080808080808080E5
:103EDC008180807F8080808080808081807F807FD7
:103EEC00808081807F807F7F8080807F80818080C8
:103EFC00808080808080818181808080807F7F80B5
:103F0C0080808080818080807F7F80808080807FA7
:103F1C008181808080808080807F80808181808092
:103F2C0080817F8080807F7F808080818180808085
:103F3C008080807F7F7F80808080817F7F807F807A
:103F4C0081808080808180808081807F7F807F7F66
:103F5C00807F80818080808080807F7F80807F8058
:103F6C00808080808080807F808080808081818044
:103F7C0080828080808081808081808080817F7F32
:103F8C00807F7F808080808080807F81807F807F29
:103F9C008080818181807F807F7F80807F80808115
:103FAC0081808080808081808181808081808181FE
:103FBC008080807F7F8080808080808080808180F6
:103FCC00808080807F818081818281807F807E7FE4
:103FDC007F7F8080808180807F807F80817F8181D6
:103FEC0080808080807F81818080808080818180C2
:103FFC00808080807F808180808180808080807FB5
:10400C007F807F7E807F81808080807F80808080A9
:10401C0080807F8181808081807F808081807F8093
:10402C007F81808080808080808080808180818181
:10403C00808180808080808080808080807F808074
:10404C0081808081807F808180817F8181807F7F62
:10405C0080807F807F7F7F80807F81808081808156
:10406C008080808081808080807F7F7F8080808046
:10407C0080808080807F81818080808180807F8033
:10408C00807F8080807F80808181808080817F7F25
:10409C008080807F7F7F8081807F7F80807F808019
:1040AC0081818081808081818180808181808081FB
:1040BC00818080807F7F7F7F807F808080808080F8
:1040CC00817F8080808080807F80808080808080E5
:1040DC00807F8181808080808081807F7F808080D4
:1040EC0080807F8180808181807F808081808080C2
:1040FC0080808180808081818080807F81808080B1
:10410C0080807F7F7F80818080818180807F807FA5
:10411C008080808080818080818180817F7F818090
:10412C008180808180808080807F8080808181817F
:10413C00818180807F7F8080808081807F80818171
:10414C0080807F8081817F80818180808080807F62
:10415C0080807F807F7F80818280807F8081808152
:10416C00818180817F80818080808080808081813E
:10417C00808080807E80807F808180808181818131
:10418C00808180807F807F7F80807F7F8080807F28
:10419C007F818080818080808180808080807F8012
:1041AC00808081807F808080807F7F808080808005
:1041BC00818081818080817F7F80807F80808180F1
:1041CC00808080807F7F80818081807F80807F80E5
:1041DC007F7F7F80808080808080818180808080D4
:1041EC00808080807F7F8080807F807F8080807FC8
:1041FC0080808080818080807F80818180808080B1
:10420C008180807F7F7F80807F80807F7F807F80A8
:10421C008080807F8080808080808181807F7F8093
:10422C00818081808181808080808081808181807B
:10423C0080818080808080807F8080808081807F72
:10424C00808080818080818080808081808080805F
:10425C007F807F80818080808080807F8080818053
:10426C00808180808080807F817F7F7F8080808044
:10427C008080807F8180807F808080808080808033
:10428C008081807F7F7F8182808080807F80818021
:10429C008080808081808080808080808080818010
:1042AC008181808081807F808080807F81808180FF
:1042BC008080808081818180807F80808181807FEF
:1042CC00808180808080808181818180807F7F80DF
:1042DC007F807F7F807F7F8080808080807F8080D8
:1042EC00818080818181818182807F7F807F8180BC
:1042FC008080807F7F807F808080818181808080B2
:10430C0081808180807F818180818080807F807F9F
:10431C008080808081808080808080808081807F90
:10432C008180807F807F8080818080807F807F8083
:10433C00808080808080808080807F808080818071
:10434C00807F807F80808080818081808081807F61
:10435C00807F80808081807F808180807F807F8053
:10436C00807F808080807F80818180808081808040
:10437C0080808080807F807F80808080817E808034
:10438C00808081807F808080808080808080808120
:10439C00817F80808080818081808080807F7F8011
:1043AC008081808080807F807F80807F8081808002
:1043BC008081818080808080807F817F807F7F80F2
:1043CC008080807F807F807F8080808081818180E1
:1043DC00807F8081818080807F818080807F807ED3
:1043EC007F7F8080808081808081807F7F7F8080C4
:1043FC008080808180808180807F7F8081808080B0
:10440C00818080807F7F80808180808080807F81A0
:10441C00807F7F8080817F80818080808180807F91
:10442C008080808080818180808080807F8081817D
:10443C00808080818080807E808080808080818070
:10444C00808080808080808181818180818180805A
:10445C00818180807F808080807F7F808080807F52
:10446C007F807F7F80808080808081808080808042
:10447C008080818080808180807F807F7F7F808032
:10448C00818080808180808080818080808080801D
:10449C0081807F7F808181808080817F808080800F
:1044AC007F807F818081807F807F80807F7F808004
:1044BC0080808181807F7F80807F7F8081808180F0
:1044CC007F7F807F7F80807E8081818080808081E3
:1044DC0081807F7F7F808081808081818080807FD0
:1044EC007E7E8081818281817F7F808181818280BB
:1044FC00808080807E7E7E7F808182828280807DB3
:10450C007F80808081828181807F7E7F808081809E
:10451C008080808080817F7E808183838381807E88
:10452C007E7F8283808080808081817F7F7D7F8081
:10453C008383817F7E7E7F82818281808180808067
:10454C00807F7F8180818080807F8081807F81825D
:10455C008584827D797E7F83827D7A777B8085815D
:10456C007C79787C808785837F7E808692968F7E0F
:10457C007972767C8384707C83918F888A6E767452
:10458C00837A7B8786978D9375706B69706D7E7B54
:10459C008B8E8F816E6357627BA7CAD6A9806057BA
:1045AC0073768C655C8796CFABA4683B5240664CA7
:1045BC0086A3CBEDC6A142403A536E6D8585B2C73A
:1045CC00B79A634C3A405254768DB8C5BAAE9698A9
:1045DC007A6C645564769997798E92AA9F9273320D
:1045EC0038416B789AB9BEC9B5965A45414B5F7341
:1045FC008E97AEBDAB8D614939374E628097B1B99C
:10460C00A7A1A4B59C7A6948526195936B8C9FC500
:10461C00AA99772A2C3F736F8DB8C6D3B7A45B4089
:10462C0040455F62848FABC0AF96644927264A66CB
:10463C008FAFC4C2B3C7C39E6D524341638B946F9B
:10464C0087A9BBB2937F3D2D45627382AFBACAB9BD
:10465C00A4774E4B2F49567793A9CEAD9D74512A12
:10466C002349608CB6CFBCBFD3CF9364482A36683D
:10467C008E85749EC1CCC2996F282A39577289C114
:10468C00C9E3B99D65362D244F5883A1BABFA193B8
:10469C0062442E33435A90B5D7E3F0EAB7794933E5
:1046AC002A445D736A91C9DCE4AE98472D222845F3
:1046BC005EB6CEF8DBB87F443C172F3B6787A8C7A4
:1046CC00B8AD88663B262E3F74AED1E6FAEFB073D8
:1046DC00583A364E675B5993BDCFC8B99355493894
:1046EC0034396AA4B9DDC8AF806B4C2A3C3D5C7090
:1046FC00A2B0B0B5916B4341354677AACFEFFFD24C
:10470C0094695942455052537BAEBBC2B8AD7E66DC
:10471C004B30395790A2C6C2B0967E6A3F413C449A
:10472C0056779FA3B4A38B6C534F4D6A8DC4EEF197
:10473C00D5A988624E45362C417CA6B2C2BCAC8A47
:10474C0079522F3E5F90A4BEB4A69B7D67494B4027
:10475C004A5C728A93A1978E7C6D63687EA4D3D2D7
:10476C00BFAEA88B6C5B38213167808CACC5C19C0B
:10477C008B5F4143637C89B4BBB49C8B6B535142BC
:10478C0046557782888F8B8478776C6E8BBECDB7CD
:10479C00B1B3A28881653B335066617498ABA59C1C
:1047AC00967662687675849DA3A09889756C5D4633
:1047BC004F646D727E8682838379717AA3BAAEA6BA
:1047CC00B3B6A19C8860414E615B5D738F888D8E02
:1047DC0088797C897F8485948E8F877A7C6E675CE0
:1047EC006E7271727172707E7D7D7D91A8A79C96A0
:1047FC00A5A6A5A08F76626E6A5D5A717B737B7FCE
:10480C007E75888C898F9295878C807D78746F6A81
:10481C0079717771736A666E6B777F9095A6A7979F
:10482C0098A2A29AA1957D73796956596B70737C85
:10483C007673798D898893999B8F927F7C78736B33
:10484C006571707970716C6C6C6371788F9DB2ADA1
:10485C00A3AAA99F8D96897972746858646E6D6845
:10486C00727577818B8D92A09E948E8E7F76736EEF
:10487C0061616E69676A756D696E707D8496A6B7A5
:10488C00ADA8BAAD9B93957A636B6A5F5C717164EA
:10489C006C737470869096A2A3A197988678746AAC
:1048AC005E57655E5F676D646272757A86A6B6B197
:1048BC00B1C0C2AAA6A1907268695D585D6A5F60BA
:1048CC006B716F7188909CA1A8A39999888172666D
:1048DC00595D60565E63665C6677767DA0BCA2A867
:1048EC00D2D0A5A7BB9A7371775E525E6958505EA1
:1048FC006A6A647C8E9C9BA5A9A6A5928A7A6D593E
:10490C005D6155585857596966709BB09FA1D4D4B6
:10491C00ACBECBA983858765514A66564047676F05
:10492C005176869189A1ACACAE97A5927C576969FA
:10493C00494E515A5063617393A19BA5D8C5AAC522
:10494C00D0AA868F93755557715235446757487C5A
:10495C0088928898A4AC9D82A39B805B80784E4DF6
:10496C0059664A5A648A918A9EC3D196BED4B5912F
:10497C0087A27C5F50816F3B4E676C33647F807E77
:10498C0083B0A8A486A99A735F7380496067725C30
:10499C005F72798A839BA6CBABA6D5B59E8696848F
:1049AC006355657C4648667D524B90867D74A1AA02
:1049BC00988D93A87C65687E5547626B62597D8F94
:1049CC009C8E97B4C19D9FD7AB928B977E555467A5
:1049DC0070344C6E785566A0888885ACA296929DF2
:1049EC009968676D6E454B6260595E7C8A9E9CA887
:1049FC00BDCFB0ADD5AF8E7A867646405A6E314378
:104A0C006D795C61A6959396BEBB9C979B9E6650F8
:104A1C005D6B3C325A6157577989919EB7BAD4E194
:104A2C00B7CBD19D7468784924365E4E27587D7F6C
:104A3C005C8EB8A5A9B1D2BBA49191835A3B4755C2
:104A4C002E2E4C6059637D93A8B9C4C4EBE4AFC25D
:104A5C00C7955951733A0E2B624D28618A95709EF9
:104A6C00CAC4B5AACEB996797D7C52293E54342D50
:104A7C004A6A5F677FA4C1CFC5C3FCCE90A9B67B41
:104A8C00304C6F3617437A5647749A9B86ADBFC825
:104A9C00B8A1ABAA895F61735224445F54445A791C
:104AAC0077767EA5CAD8B1B3F1C67586A26E1A42C6
:104ABC00846A65768A7975878A8581918C8C8E88D3
:104ACC008484827573777468707878797E807F833C
:104ADC0085878E9A948490988076817F6A657D789C
:104AEC006F798D867A878C887D8B8B858785837B88
:104AFC0080777275756E727D797C8286807F8786F1
:104B0C0084919A857E918D75768178667981757799
:104B1C0089907F858B877E848A80838581777B7D56
:104B2C0075757777737E807D8086847D817F7E84AA
:104B3C00BBB57B88B88A64868250488B7E627DAA1E
:104B4C00A27D918C817387867A8A8A816D7D766B42
:104B5C00676D686C8B8279828E7C6B776E6679B1AF
:104B6C00B38B8AAC9B8A978A67547D8A6F6D8FA6AC
:104B7C008582807C6675867A7D808F7E8584787947
:104B8C0077786C7C7E79787B776769605D6285ACC1
:104B9C00B29998AFA8A9AA946B54778174687F8D49
:104BAC007F8A7F71526E87838887918A9F9B8972D7
:104BBC006F74666D6B6D637477635B62675F7A9F0E
:104BCC00B9B2B1BEBDBCBBA47D5657665E5F6B75FA
:104BDC006B80918368638284949A9C94989D907C5A
:104BEC006A6556616764636D746E6D675F566D8838
:104BFC00A1C2D3CFC8D1BCA9957C432B454F5666D7
:104C0C00857E829D9D846B818695A3AE9C879185C4
:104C1C006E5E57454164716D687C7E787F7D6E62F7
:104C2C0073839ECEEDD8BEBFAA91816A3B1C2E43E6
:104C3C005870919A919DA6A78D8884859192917BAD
:104C4C00796D64606058495C707B7C888A85858747
:104C5C007B6F766F7593C5D9D7CDB0857178654666
:104C6C002E41485E83ACB8A2A2979680807F757661
:104C7C00788B8B857065625E5C5E656A78899395CE
:104C8C008D837A766B6569758299B9D4D4BFA28805
:104C9C0076716F614E434A6584A3ADA39688867F77
:104CAC0087817877808B83857A68595B6261666DC2
:104CBC007787999D968D837A727679776E6D788BDE
:104CCC00AEC9C5AF927D6C73817D6C5E626C839E48
:104CDC00A093867D706E7B7F7974757775756D6A20
:104CEC006D74787B81868F979E9D978C837A767472
:104CFC00726D646A6F6F737E858C9DAEB2B0A28B41
:104D0C00848991857D75717178857D74675F555A3D
:104D1C006E7981878E8E90908883817E7A797F815F
:104D2C008185888174706E6C7073787B868E939796
:104D3C009A999595908B8883786E7076787B7F8125
:104D4C00818384888888827C797B7D7B7D7A76766A
:104D5C007B7D797C7D79787B7B7574767D7F84888F
:104D6C00898E8E908C908C83818182757A77777600
:104D7C007D82787D7E878B9495908B8A867F827BD3
:104D8C00746C767373787879727E797D7D7F878386
:104D9C008D878C8684817A807A7E797F827D817DF5
:104DAC008277817C8180838A8690898F86888380B4
:104DBC00827A7D767B757274767A777F7F8585882B
:104DCC0088898985838080797A7C7C7E7C81787BDC
:104DDC00797E83848B898D888D8B88867B7F767991
:104DEC00767A7D7D7F7D80797E7B818083818183D6
:104DFC008285838180797A797A787C807E828188B9
:104E0C0086878786878286858884858280807D7E5A
:104E1C007B7B7779797B7C7E817F817F8380807EB1
:104E2C007E7D7D7D7D807F7E7F7E7D7C7D7F7F7F97
:104E3C007E838489878989888887868383807F801D
:104E4C007D7F7A7F7C7E7B7B7A7B7E7C7D7C7D7E8E
:104E5C007D80808480807E81807F7F7E7E7F7D7D53
:104E6C00807F7E7E7E7F80828487888B8C8C8B8BF0
:104E7C00878381817D7C7877757879777B7B7E7E63
:104E8C00818486888687828380807C7B79787A7916
:104E9C007C7B7D7C7B7F7E817F83848687878B8BED
:104EAC008A87888484807E7C7A7A777878797B7D0F
:104EBC008080838688898A8A8784807E7A777676D2
:104ECC007574777A7C7F81848385868686858584D4
:104EDC0085828582817F7C7E7D7F7D7E7D7C7D7CD5
:104EEC007E7E82818385868786878583807E7B7A9A
:104EFC0078777677787A7C7D8082858586878887B7
:104F0C00868582807F7E7B7D7B7C7C7D7F80817FA4
:104F1C008281828081828283828281838283818169
:104F2C007F7E7B7C7C7B7C7A7F7E8080828383848B
:104F3C008285828280807E7F7E7C7D7D7F7E807F6D
:104F4C008382828281837F807E807F7F7D8080814F
:104F5C008080828281818081807F7E7F7E807C7F49
:104F6C007E817F817F81807F818082808180807F34
:104F7C0080827F807E807E7F7F807F808081818128
:104F8C00828082828282807F7F7F7F807E7F7E7F15
:104F9C007E82808282828281837E827E807F7F80FD
:104FAC007F807D807E7F7F7F8080818082808381F7
:104FBC00818282818181818080807E7E7E7E7E7EE8
:104FCC007E7F8180828182838284828280807F7EC8
:104FDC00807E7F7D7E7E7D807E817E8282818481CB
:104FEC008280827F807F7F817F817F7F7E807F7FB9
:104FFC007F80807F8080828183828380817E817F9D
:10500C007E807C7F7C7F7F7F827E857C877D867F98
:10501C0082827C86798678857C80817E857B847C87
:10502C0083817F837B877A867B857D827F7E827C72
:10503C00837A837C81807D847B857D838080877C63
:10504C00897A867C80807B85778777857E82837C56
:10505C00887A887C84807C867889778777857D813F
:10506C00817C847A867B837D80827D857C877B8333
:10507C007D82807F817E837E837D827E7F807D8228
:10508C007D827E81807F827F8380818180827E8110
:10509C007E827F807F7E827D847C838080837C8700
:1050AC007A877B847E7F857B877B847E827F7D82F3
:1050BC007B837C827E7E807E837F828180808080E9
:1050CC00837F827E817E807E7F7F808081808281D3
:1050DC00818180828081817F807E817D817D8280C3
:1050EC0080827C847B837D81807E857C857F8283AE
:1050FC007C877A867A80807C817B827C80817D85AE
:10510C007D8680838380847F8380817E7F7D7F7E8C
:10511C007F7F7F80808180818281847F847D83807A
:10512C0080827D837E807F7E807D807F7F817E827A
:10513C007F828081837F828280847E827E7F7F7D5E
:10514C00807D7F7F7F817F8282828480828081804C
:10515C0080817E7F7E7D807E817E817F8182808347
:10516C0081838180817F808180807E7F7F7F7E8034
:10517C007E807F7F7F81808182828181828280821A
:10518C007E817F7F807F807F81807F7F8081808018
:10519C008081818082808080807F808080807F8001
:1051AC0080808080808080808080808180818080F1
:1051BC00817F80807F7F817F808080807F818180E4
:1051CC0082808081808080818080807F7F7F7F7FD4
:1051DC0080807F8081808080818081807F80807FC3
:1051EC0080817F818080817F80808180807F8180B1
:1051FC008181808080807F7F807F81808080807FA4
:10520C0080807F7F7F7F80817F80807F7F807F8099
:10521C00808080808180808080808180808081807F
:10522C008181828180807F8180808181808080806B
:10523C00808080807F8080807F8080807F80808065
:10524C00818080818080818180807F80808080804F
:10525C007F807F8081818081808080808080808041
:10526C00808080807F7F7F7E807F80808080808038
:10527C008080807F8180808080807F807F80808024
:10528C008081817F80808181807F80807F7F808012
:10529C00807F8080817F80807F807F808180818003
:1052AC008182808080807F8080808080807F8080F1
:1052BC007F808081818081808080808081808080DF
:1052CC00808080807F807F8080808180807F8081D3
:1052DC007F80807F8080808080808080807F8081C4
:1052EC00808081808080808081807F80817F817FB1
:1052FC00808080808081808081808080817F8080A0
:10530C007F8081818080818180808080807F807F90
:10531C007F7F7F7F818180808080807F7F80808085
:10532C0081808080818081808180808180817F806C
:10533C00808080808080808080808081807F7F8062
:10534C008080807F8080807F808080808080808053
:10535C00807F8180808180818181808180807F803D
:10536C007F7E808081807F8081817F818081808031
:10537C00808081807F7F7F7F8080807F817E808026
:10538C00808080817F80818180808080808080800F
:10539C00807F80808080808181808080807F7F8002
:1053AC0080818080808080807F80807F80807F80F3
:1053BC008081818181808080807F807F80808080DF
:1053CC008080817F8080807F8081818080807F80D1
:1053DC00807F8080807F7F7F7F80808080808180C5
:1053EC00807F80808080817F7F808080807F8080B4
:1053FC008080818180808081818180818181818098
:10540C00808080807F7E7F7F8080807F817F7F8196
:10541C00818080808081807F7F7F7F7F807F7F7F86
:10542C007F80808080818281818080808081818169
:10543C00808181818080807F80807F7F8080808060
:10544C0080808080808080818081808080807F7F50
:10545C00808080807F7F7F80808080808080818042
:10546C0080807F7F8080818080808180808080812F
:10547C0081818180808080808080807F7F8080801F
:10548C00807F807F808081808081818080807F8010
:10549C00807F8080808080808080807F8080808101
:1054AC008080808180818080807F80807F7F8080F1
:1054BC0080808081808080808080808081808080DE
:1054CC007F7F807F7F80807F8080807F7F808081D6
:1054DC008080808180808181808081817F808080BC
:1054EC00808080807F8080818080808180818080AE
:1054FC0080807F808081808080808181808081809D
:10550C00808080808181818180808080F894EE27EA
:10551C00EFBBF1E0F5BFE5BFF8E1A895A4B7A77F15
:10552C00A4BFF0936000E09360008DE0A2E0BB2785
:10553C00ED938A95E9F780E098E0A0E0B1E0ED9377
:10554C000197E9F7E0E0EEBBEFEFEDBFE8E0EEBF6F
:10555C00C0E0D3E00C94B22AE3E8E4BDE1E0E5BDA1
:10556C00569AE0E8E0936100E0E0E0936100589A1D
:10557C00599A5A9AE0E0E0930003E09301034899AA
:10558C000EC02FD034D0A032ECE1BE0740F434D0A2
:10559C00E859FF4F3AD0000000000000F3CF4999C2
:1055AC000EC01FD024D0A037ECE1BE0740F424D0AD
:1055BC00E857F34E2AD0000000000000F3CF4A99C0
:1055CC000EC00FD014D0A032ECE1BE0740F414D0C2
:1055DC00E850F74C1AD0000000000000F3CFCACFFF
:1055EC00FFCFEEE1F0E0FA93EA930C94122BA0912A
:1055FC000003B09101030895A0E0B3E0ED91FD919B
:10560C003196FE93EE9331970895049007BC84EF86
:10561C0090E00197F1F70895E991F991309639F0FE
:10562C0080ED97E00197F1F7A8953197C9F70895A8
:00000001FF
