:020000000C945E
:1000020034000C9400000C9400000C9400000C943A
:1000120000000C9400000C9400000C9400000C945E
:1000220000000C9400000C9400000C9400000C944E
:1000320000000C9400000C9400000C9400000C943E
:1000420000000C9400000C9400000C9400000C942E
:1000520000000C9400000C9400000C9400000C941E
:1000620000000C940000F894EE27EFBBF1E0F5BF1E
:10007200E5BFF8E1A895A4B7A77FA4BFF0936000FD
:10008200E09360008DE0A2E0BB27ED938A95E9F74B
:1000920080E098E0A0E0B1E0ED930197E9F7E0E0BD
:1000A200EEBBEFEFEDBFE8E0EEBFC0E0D3E00C94B3
:1000B2005A00219AE1E8E0938000E9E0E0938100B0
:1000C200E0E0E0938900E9B1E0938800F9CFFFCF47
:00000001FF
