:060000000C9434000C9486
:1000060000000C9400000C9400000C9400000C946A
:1000160000000C9400000C9400000C9400000C945A
:1000260000000C9400000C9400000C9400000C944A
:1000360000000C9400000C9400000C9400000C943A
:1000460000000C9400000C9400000C9400000C942A
:1000560000000C9400000C9400000C9400000C941A
:100066000000F894EE27EFBBF1E0F5BFE5BFF8E13D
:10007600A895A4B7A77FA4BFF0936000E0936000A3
:100086008DE0A2E0BB27ED938A95E9F780E098E042
:10009600A0E0B1E0ED930197E9F7E0E0EEBBEFEF0A
:1000A600EDBFE8E0EEBFC0E0D3E00C945A00209A22
:1000B600289804D0289A02D0FBCFFFCFE4EFF1E0D6
:1000C600FA93EA930C946700E991F991309639F026
:1000D6008AEF90E00197F1F7A8953197C9F708954F
:00000001FF
