:040000000C943D001F
:100004000C9400000C9400000C9400000C9400006C
:100014000C9400000C9400000C9400000C9400005C
:100024000C9400000C9400000C9400000C9400004C
:100034000C9400000C9400000C9400000C9400003C
:100044000C9400000C9400000C9400000C9400002C
:100054000C9400000C9400000C9400000C9400001C
:100064000C9400001027E80364000A00010000104B
:10007400000110000100F894EE27EFBBF1E0F5BF9A
:10008400E5BFF8E1A895A4B7A77FA4BFF0936000EB
:10009400E09360008DE0A2E0BB27ED938A95E9F739
:1000A40080E098E0A0E0B1E0ED930197E9F7E0E0AB
:1000B400EEBBEFEFEDBFE8E0EEBFC0E0D3E00C94A1
:1000C4006300EFEFEAB9E0910103F0E0309729F41F
:1000D400589859985A985B984DC0E130A0E0FA07B7
:1000E40029F4589A59985A985B9844C0E230A0E091
:1000F400FA0729F45898599A5A985B983BC0E33008
:10010400A0E0FA0729F4589A599A5A985B9832C091
:10011400E430A0E0FA0729F4589859985A9A5B9861
:1001240029C0E530A0E0FA0729F4589A59985A9A58
:100134005B9820C0E630A0E0FA0729F45898599A51
:100144005A9A5B9817C0E730A0E0FA0729F4589A46
:10015400599A5A9A5B980EC0E830A0E0FA0711F455
:10016400589805C0E930A0E0FA0721F4589A599844
:100174005A985B9AE0910003F0E0309729F45C9878
:100184005D985E985F984DC0E130A0E0FA0729F4CD
:100194005C9A5D985E985F9844C0E230A0E0FA07EC
:1001A40029F45C985D9A5E985F983BC0E330A0E0C8
:1001B400FA0729F45C9A5D9A5E985F9832C0E4303D
:1001C400A0E0FA0729F45C985D985E9A5F9829C0CC
:1001D400E530A0E0FA0729F45C9A5D985E9A5F988E
:1001E40020C0E630A0E0FA0729F45C985D9A5E9A94
:1001F4005F9817C0E730A0E0FA0729F45C9A5D9A8B
:100204005E9A5F980EC0E830A0E0FA0711F45C989B
:1002140005C0E930A0E0FA0721F45C9A5D985E9885
:100224005F9AE3E6F0E0FA93EA930E94360187E6E8
:100234008A95F1F7E0910103EF5FE0930103A09148
:100244000103AA3079F4E0E0E0930103E0910003B4
:10025400EF5FE0930003A0910003AA3019F4E0E0FB
:10026400E093000330CFFFCFE991F991309639F054
:100274008AEF90E00197F1F7A8953197C9F70895AF
:00000001FF
