:060000000C943D000C947D
:1000060000000C9400000C9400000C9400000C946A
:1000160000000C9400000C9400000C9400000C945A
:1000260000000C9400000C9400000C9400000C944A
:1000360000000C9400000C9400000C9400000C943A
:1000460000000C9400000C9400000C9400000C942A
:1000560000000C9400000C9400000C9400000C941A
:1000660000001027E80364000A00010000100001E8
:1000760010000100F894EE27EFBBF1E0F5BFE5BFF5
:10008600F8E1A895A4B7A77FA4BFF0936000E0931A
:1000960060008DE0A2E0BB27ED938A95E9F780E04A
:1000A60098E0A0E0B1E0ED930197E9F7E0E0EEBB60
:1000B600EFEFEDBFE8E0EEBFC0E0D3E00C949900AF
:1000C6001A991AC019990CC0189903C0E4E6F0E011
:1000D60002C0E8ECF0E0FA93EA930E9427010BC015
:1000E600189903C0ECE2F1E002C0E0E9F1E0FA930E
:1000F600EA930E94270119C019990CC0189903C0E8
:10010600E4EFF1E002C0E8E5F2E0FA93EA930E9438
:1001160027010BC0189903C0ECEBF2E002C0E0E245
:10012600F3E0FA93EA930E9427010895EFEFEAB904
:10013600289A299A2A9A409A30994CC0309902C036
:10014600589ABEDF309903C05898599AB9DF30994A
:1001560003C059985A9AB4DF309903C05A985B9AEB
:10016600AFDF309903C05B985C9AAADF309903C071
:100176005C985D9AA5DF309903C05D985E9AA0DF12
:10018600309903C05E985F9A9BDF309903C05F98F1
:100196005E9A96DF309903C05E985D9A91DF30993A
:1001A60003C05D985C9A8CDF309903C05C985B9ABB
:1001B60087DF309903C05B985A9A82DF309903C073
:1001C6005A98599A7DDF309B03C00E941E0101C0D8
:1001D60059982FC0309B03C0589A5F9A71DF309BA5
:1001E60005C0599A5E9A58985F986ADF309B05C099
:1001F6005A9A5D9A59985E9863DF309B05C05B9A60
:100206005C9A5A985D985CDF309B05C05A9A5D9A55
:100216005B985C9855DF309B05C0599A5E9A5A9850
:100226005D984EDF309903C00E941E0102C05998A6
:100236005E9882CFFFCF589859985A985B985C98E9
:100246005D985E985F980895E991F991309639F036
:100256008AEF90E00197F1F7A8953197C9F70895CD
:00000001FF
