:0E0000000C943E000C9400000C9400000C9434
:10000E0000000C9400000C9400000C9400000C9462
:10001E0000000C9400000C9400000C9400000C9452
:10002E0000000C9400000C9400000C9467000C94DB
:10003E0000000C9400000C9400000C9400000C9432
:10004E0000000C9400000C9400000C9400000C9422
:10005E0000000C9400000C940000FC60DBF366B70B
:10006E00BEE1FEF600000100000372000000F894ED
:10007E00EE27EFBBF1E0F5BFE5BFF8E1A895A4B719
:10008E00A77FA4BFF0936000E0936000E4E7F0E088
:10009E0085919591009761F0A591B5910590159078
:1000AE00BF01F00105900D920197E1F7FB01F0CF32
:1000BE00EFEFEDBFE8E0EEBFC0E0D3E00C949B00A5
:1000CE000A928A939A93AA93EA93FA93EFB7EA93D2
:1000DE00E0910103EF5FE0930103A0910103A430CF
:1000EE00D1F4E0E0E5BD88E191E00197F1F7E0930E
:1000FE000103E0910003EF5FE0930003E150F0E0B5
:10010E00E859FF4F04900BB8A0910003AA3019F4E0
:10011E00E0E0E0930003E991EFBFF991E991A99135
:10012E009991899109901895EFEFEAB9289AE2E032
:10013E00E4BDE5E0E5BDE3EFE7BDE2E0E0936E0090
:10014E00E0910003F0E0E859FF4F04900BB878946B
:10015E00189902C0E5E001C0E0E0E5BDF9CFFFCFA0
:00000001FF
