:0C0000000C9434000C9400000C940000E0
:10000C000C9400000C9400000C9400000C94000064
:10001C000C9400000C9400000C9400000C94000054
:10002C000C9400000C9400000C9400000C94000044
:10003C000C9400000C9400000C9400000C94000034
:10004C000C9400000C9400000C9400000C94000024
:10005C000C9400000C9400000C940000F894EE2713
:10006C00EFBBF1E0F5BFE5BFF8E1A895A4B7A77F1A
:10007C00A4BFF0936000E09360008DE0A2E0BB278A
:10008C00ED938A95E9F780E098E0A0E0B1E0ED937C
:10009C000197E9F7E0E0EEBBEFEFEDBFE8E0EEBF74
:1000AC00C0E0D3E00C945A00569A579A5F9A5E9A25
:1000BC004F9A4E98E6E9F0E0FA93EA930E946A00B0
:1000CC004F984E9AF5CFFFCFE991F991309639F0D0
:1000DC0080ED97E00197F1F7A8953197C9F708954E
:00000001FF
