:040000000C94A400B8
:100004000C9400000C9400000C9400000C9400006C
:100014000C9400000C9400000C9400000C9400005C
:100024000C9400000C9400000C9400000C9400004C
:100034000C9400000C9400000C9400000C9400003C
:100044000C9400000C9400000C9400000C9400002C
:100054000C9400000C9400000C9400000C9400001C
:100064000C9400001027E80364000A00010000104B
:1000740000011000010053616261646F0000000020
:10008400446F6D696E676F0000004C756E65730098
:10009400000000004D6172746573000000004D693A
:1000A4006572636F6C6573004A75657665730000ED
:1000B4000000566965726E65730044616D65206C5D
:1000C4006120666563686120656E20666F726D618C
:1000D400746F2064642D6D6D2D79797979202D3EAE
:1000E400200025730025692563256925632569009A
:1000F400456C20646961206465206C612073656DC2
:10010400616E612065732025730A0D0056616C6F62
:100114007265732066756572612064656C20726116
:100124006E676F200A0D00466F726D61746F2069EF
:100134006E76616C69646F200A0D000043001E0333
:100144007A000000F894EE27EFBBF1E0F5BFE5BFBD
:10015400F8E1A895A4B7A77FA4BFF0936000E0934B
:1001640060008DE0A2E0BB27ED938A95E9F780E07B
:1001740098E0A0E0B1E0ED930197E9F7E0E4F1E065
:1001840085919591009761F0A591B5910590159091
:10019400BF01F00105900D920197E1F7FB01F0CF4B
:1001A400E0E0EEBBEFEFEDBFE8E0EEBFC0E0D3E090
:1001B4000C94DC00E2E0E093C000E8E1E093C100CD
:1001C400E6E0E093C200E0E0E093C500ECE0E093F9
:1001D400C400EEEBF0E00E94FA04E6EEF0E0FA93DD
:1001E400EA93E2E0F3E00E94010584E00E94A404A3
:1001F4002696E2E0F3E0FA93EA93E9EEF0E0FA936C
:10020400EA93E6E1F3E00E940105E0E0F3E00E94F6
:100214000105E8E1F3E00E940105E1E0F3E00E945A
:100224000105ECE1F3E00E94010584E10E948204EF
:100234006896A0910003AD3221F4A0910103AD3280
:1002440009F07DC00E940605119784F00E940605FE
:10025400909764F40E940B05119744F00E940B05DB
:100264001D9724F40E94100511970CF463C00E949A
:100274000B05139784F4E0911803F09119033C964D
:10028400E0931803F0931903ACE1B3E0ED91FD9111
:100294003197FE93EE93E0911803F0911903319690
:1002A400AAE1B0E00E947E05DF01EAE0F0E00E94EE
:1002B40096050E940605EA0FFB1F0E941005EA0F2F
:1002C400FB1FBF010E941005E4E0F0E00E949605C8
:1002D4006E0F7F1F0E941005E4E6F0E00E94960571
:1002E400A6E0B0E00E947E056E0F7F1F0E941005FD
:1002F400E0E9F1E00E949605DB01AE0FBF1FE7E0E5
:10030400F0E00E949B05E0931A03F0931B03E4EFD3
:10031400F0E0FA93EA93A0911A03B0911B03EAE088
:100324000E947805E25EFC4F0E94010584E05ED1E4
:10033400269604C0E0E1F1E00E94FA0404C0EBE276
:10034400F1E00E94FA0445CFFFCFE091C000E078CD
:10035400E1F3E091C6000895E091C000E072E1F39A
:10036400E881E093C60021960895EA81EA93F4DFD8
:10037400A881B981ED91FD913196FE93EE93239678
:10038400089526970E94C40500E0AC85BD85E0E091
:10039400F0E0ED93FC93EA89FB893196EA8BFB8BC1
:1003A4003197E4913E2FE03011F40C94F002E02FE9
:1003B400E03039F4353211F401E002C00E94150531
:1003C4000CC1E130A9F4353219F40E94150504C1B9
:1003D40002E050E010E03D3211F411E0FEC03B3287
:1003E40011F45BE2FAC0303211F450E2F6C002C0FC
:1003F400E23039F440E003E0303311F41068EDC02A
:1004040004C0E33011F00C94EF02303310F03A33AF
:1004140008F007C0AAE04A9F402DE32FE0534E0F97
:10042400DCC0E32FE33649F40E941E05E889F9890C
:10043400A481AA930E942405CFC0E33741F40E940B
:100444001E050E942C050E94E5040E2F0AC0E03709
:1004540061F40E941E050E942C050E94EF040E2FD9
:10046400186012601F7720E035C0E43611F0E936D9
:1004740011F4146002C0E53731F4E8E6F0E0EE83ED
:10048400FF8305E00DC0E83511F4186004C0E837B7
:1004940011F00C94EE02E2E7F0E0EE83FF8304E057
:1004A40012FF14C00E941E050E943605AB85AA23C4
:1004B4003AF4EA85FB850E946C05EA87FB875DE2D6
:1004C400503011F00F5F01C01B7F04C00E941E0555
:1004D4000E94360510FD11C0041778F417FF08C0F8
:1004E40012FF04C01B7F352F015001C030E301C04F
:1004F40030E20E9415054150EFCF202F11FF17C0A5
:100504002030A1F013FF06C0EE81FF813591EE8308
:10051400FF8305C0AE81BF813D91AE83BF830E943E
:100524001505403009F041502150EACF4BC030E36B
:10053400EE81FF810E94BB05E887F987EE81FF8188
:100544003296EE83FF83E885F985AA85BB85AE17CD
:10055400BF0750F03F5FA885B985EA85FB85EA1B94
:10056400FB0BEA87FB87EFCF3A3328F013FF02C077
:10057400395F01C0395D14FD1AC0313320F4A885F8
:10058400B985119709F409C0421710F010FF01C092
:1005940013C030E217FF0BC030E3106112FF07C035
:1005A4001B7F5A930E942405403009F041500E9459
:1005B4001505403009F041502150A885B98512979E
:1005C40008F0B5CF10FF08C0403031F04150E0E2F0
:1005D400EA930E942405F8CF00E0DDCEAC85BD850A
:1005E4000E94B7050E94CB0564960895FF92F82EE9
:1005F40026971A930A93DE0114960E9468058D01CA
:10060400E0E0EC83ED83EE83EF83DE0118960E9435
:100614003E050E944305E7EBF1E0FA93EA93FE01FD
:100624003896FA93EA93ADDE198108812896FF90F3
:1006340008950E94480529F0AB81BC81E0E0EC9369
:1006440002C083DE0E2F21C00E94480529F0AB8131
:10065400BC81E0E0EC9319C0A981BA8111960E9493
:10066400B705309789F0E981FA81A181B281EC91D3
:100674000E2FE03041F0A981BA811196ED91FD91E0
:100684003196FE93EE9301C000E0E02F0881259699
:10069400089525970E94C405E0E0F0E0E887F98713
:1006A4005E2FE989FA893196E98BFA8B3197E491C7
:1006B4002E2FE03011F40C947C040E945305C1F0F9
:1006C400EDB7FEB7FA93EA935F930E9424055F9116
:1006D4002E2FE03019F00E94530509F407C00E9440
:1006E40058051CF4EFEFFFEF07C1EACF522F01C109
:1006F400253211F00C94630440E0E989FA892591CC
:10070400E98BFA8B203310F02A3308F007C0AAE0F3
:100714004A9F402DE22FE0534E0FEFCF203009F4D3
:10072400E9C0EDB7FEB7FA93EA935F930E942405FC
:100734005F913E2FEA930E94CD04E03039F00E948D
:1007440058051CF4EFEFFFEFD7C0EBCF303009F4BE
:10075400C8C0532F403009F44FEFE22FE33699F429
:100764000E945D05EDB7FEB7FA93EA935F930E948A
:1007740024055F91D801EC930E9458051CF4EFEF17
:10078400FFEFBAC098C0E33741F50E945D05E42F3E
:100794004150E030F1F0EDB7FEB7FA93EA935F937E
:1007A4000E9424055F912E2FE03019F00E9453051A
:1007B40039F00E9458051CF4EFEFFFEF9DC009C00B
:1007C4001F930F930F5F1F4FE22FAF91BF91EC93D5
:1007D400DECFD801E0E0EC936EC0E1E0EA87E22FDF
:1007E400E43611F0E93619F4E0E0EA8702C0E537AF
:1007F40011F43AE008C0E83711F430E104C0E532FE
:1008040009F45FC077C0E0E0EE83EF83E42F41504A
:10081400E03011F40C945004EDB7FEB7FA93EA9368
:100824005F930E9424055F912E2FE13238F40E94D9
:1008340058051CF4EFEFFFEF5FC017C0EA85E03006
:1008440039F42D3219F4EFEFEA87E0CFE1E0EA87DB
:10085400303131F42A930E94D704E03031F007C0DC
:100864002A930E94C504E03011F4522F17C0213698
:1008740010F0275505C0213410F0275301C0205330
:10088400E32FAE81BF81F0E00E947005DF01E22F0B
:10089400F0E0EA0FFB1FEE83FF83B8CF0E945D05F3
:1008A400EA85AE81BF81F0E0E7FDFFEF0E947005AD
:1008B400D801ED93FC93E885F9853196E887F987AB
:1008C40018C0EDB7FEB7FA93EA935F930E9424052C
:1008D4005F91E21771F00E9458051CF4EFEFFFEFEF
:1008E4000BC0E885F985309719F4EFEFFFEF04C0EA
:1008F40001C0D7CEE885F9850E94CB05639608959B
:10090400FF92F82E23971A930A93DE0117960E94FA
:100914003E05309719F4EFEFFFEF30C0DE0111967A
:100924000E9468058D01DE0117960E943E05EB8347
:10093400FC83DE0115960E943E050E944305E6E213
:10094400F3E015C0FF92F82E23971A930A93DE0161
:1009540011960E9468058D01E0E0EB83EC83DE01D3
:1009640015960E943E050E944305EBE1F3E0FA93DD
:10097400EA93FE013896FA93EA938BDE1981088193
:100984002596FF900895E1E0F991F03310F0FA33E1
:1009940008F0EE270895E1E0F991F03229F0F930FA
:1009A40010F0FE3008F0EE270895E1E0F991F053DD
:1009B40040F0FA3038F0FF75F750FA3010F0F031AB
:1009C40008F0EE270895A991B991EE27FF276D91BC
:1009D400662311F03196FBCF0895AA27BB27E9912E
:1009E400F9910590002011F01196FBCFFD010895B7
:1009F400FA93EA9380E00E94F8022296089566270B
:100A040077270E94BF050895A0911603B09117039C
:100A14000895A0911803B09119030895A0911C039F
:100A2400B0911D0308953A93ED85FE85FA93EA93F8
:100A3400E989FA8909950895E889F9893497E88B51
:100A4400F98B0895ED85FE85FA93EA93E989FA898D
:100A540009950895A889B98914960E94B705EE836B
:100A6400FF83FA93EA930895A889B98914960E949A
:100A7400B705EA87FB8708950E9468050E94B705B9
:100A84000895FA93EA931A930A9308950A93A9810D
:100A9400BA81E0E0EC93AB81BC81EC910E2FE030A5
:100AA40008952A930E94CD04E0300895AB85BC8557
:100AB400AC91A0300895EF85F8893497EF87F88BCF
:100AC400AF85B88914960D911C9108950024AF0D3B
:100AD400B01D0895F195E195F0400895FA9FF02D29
:100AE400EB9FF00DEA9FE02DF10D08956E2F6A9FA4
:100AF400F0016B9FF00D08952AD0F0DF0EF4EADFC9
:100B040008950024112490E1AA0FBB1F001C111C9E
:100B14000E1A1F0A18F40E0E1F1E01C0A1609A952A
:100B240099F7FD01D001089512D0EBDF0EF4D2DF66
:100B34000895E894B7FF04C0A095B0951196689401
:100B4400F7FDC8DFDEDFFD010EF4C4DF0895E8948D
:100B5400F7FF02C0BFDF6894B7FF06C0A095B09549
:100B6400119600F8039400FA0895ED91FC91119701
:100B740008950590F491E02D08957A936A93FA9379
:100B8400EA9308955A934A933A932A931A930A93A9
:100B940008955D814C813B812A81198108810895E2
:00000001FF
