:0E0000000C9454000C9400000C9400000C941E
:10000E0000000C9400000C9400000C9400000C9462
:10001E0000000C9400000C9400000C9400000C9452
:10002E0000000C9400000C9400000C9400000C9442
:10003E0000000C9400000C9400000C9400000C9432
:10004E0000000C9400000C9400000C9400000C9422
:10005E0000000C9400000C94000003030302020C39
:10006E0000080001000654656D706572617475724A
:10007E00613A0025332E316620256343202000008F
:10008E002D4E414E000001002D4E414E00494E4670
:10009E0000000100110394000000F894EE27EFBB5E
:1000AE00F1E0F5BFE5BFF8E1A895A4B7A77FA4BF1F
:1000BE00F0936000E09360008DE0A2E0BB27ED932B
:1000CE008A95E9F780E098E0A0E0B1E0ED93019722
:1000DE00E9F7E0EAF0E085919591009761F0A5913E
:1000EE00B59105901590BF01F00105900D92019705
:1000FE00E1F7FB01F0CFE0E0EEBBEFEFEDBFE8E0A4
:10010E00EEBFC0E0D3E00C9483012C978CE0A0E00E
:10011E00B0E0E8E6F0E00E94C80A0A93E7B1EF60AB
:10012E00E7B9E4B1E760E4B9E2E3F0E0FA93EA9309
:10013E000E94670800E00C3090F4E2E0F0E0FA93E1
:10014E00EA930E946708E02FF0E0DE011196AE0FF1
:10015E00BF1FEC91EA930ED00AD00F5FECCFECE00C
:10016E00E0930003EA931FD008812D960895299AF3
:10017E0029980895E881E87011F0439A01C04398D8
:10018E00E881E47011F0429A01C04298E881E27071
:10019E0011F0419A01C04198E881E17011F0409A46
:1001AE0001C04098A7C00A932898E2E0F0E0FA93C5
:1001BE00EA930E946708E981E07F0E2FE02FF0E0BE
:1001CE000E94280A0E2F0A93D5DFD1DFE981EF7046
:1001DE000E2F0A93CFDFE2E0F0E0FA93EA930E944B
:1001EE006708C5DF08816BC00A93289AE2E0F0E049
:1001FE00FA93EA930E946708E981E07F0E2FE02FC1
:10020E00F0E00E94280A0E2F0A93B4DFB0DFE981D6
:10021E00EF700E2F0A93AEDFE2E0F0E0FA93EA936E
:10022E000E946708A4DF08814AC00A9300E0E02F0D
:10023E000F5FA981BA81F0E0EA0FFB1FE491EA9308
:10024E00D3DFE02FA981BA81F0E0EA0FFB1FE49122
:10025E00E03069F714C00A9300E0E02F0F5FA98128
:10026E00BA81F0E0AE0FBF1FEC91EA93BDDFA9811A
:10027E00BA81EE27A00FBE1FEC91E03071F7088116
:10028E0023960895E881F0E0309719F4E981E0585B
:10029E0014C0E130A0E0FA0719F4E981E0540DC072
:1002AE00E230A0E0FA0719F4E981EC5606C0E3301B
:1002BE00A0E0FA0721F4E981EC52EA9374DF22966A
:1002CE000895E881E06CE0937C0083E08A95F1F775
:1002DE00E0917A00E064E0937A00E0917A00E071B8
:1002EE00E1F3E0917A00E061E0937A00E09178002A
:1002FE00F09179002196089508DFE0E2E0937E0008
:10030E00E0ECE0937C00E2E0EA93E0E0EA93BADF0F
:10031E00E4E7F0E0FA93EA9388DFE3E8E0937A000B
:10032E00E5E0EA93CEDFE0930103F0930203662744
:10033E0077270E94DF08A0E0B0E08CED92E40E94E7
:10034E006909DF01CB01E0E0F0E060E874E40E94AF
:10035E00B709E0930303F0930403609305037093CE
:10036E000603E7E0F3E0FA93EA93E1E8F0E0FA93AC
:10037E00EA93E0910303F0910403609105037091F9
:10038E0006030E94A40AEFEDF0E060E070E00E9428
:10039E00A40A88E00E9493062C96E4E0EA93E1E03A
:1003AE00EA9370DFE7E0F3E0FA93EA9354DFE8EEC6
:1003BE00F3E0FA93EA930E946708B2CFFFCF1A9345
:1003CE000A93AA81BB8112960E94900A309759F126
:1003DE00AA81BB8114960E94900A8F01309761F01A
:1003EE000230E0E01E07F0F0F80131978F01AA818C
:1003FE00BB811496ED93FC93AA81BB811296ED916D
:10040E00FD913196FE93EE933197AC81A083AA8134
:10041E00BB810E94900AFF232AF0ED91FD91319647
:10042E00FE93EE9306C0AA81BB81EFEFFFEFED9333
:10043E00FC9319810881259608952497E0E0E883BE
:10044E00E983E0E8EA83EFE3EB830E94BD0AED85E2
:10045E00FE85EF3FAFEFFA0759F4EF81F885FA9377
:10046E00EA93EEE8F0E0FA93EA930E94D10649C1CE
:10047E00EF3FAFE7FA0759F4EF81F885FA93EA9365
:10048E00EFE8F0E0FA93EA930E94D1063AC1AA850A
:10049E00A73010F0E6E0EA870A85E02F0150E03041
:1004AE0079F0AB81BC818D819E81E0E0F0E060E26D
:1004BE0071E40E946909EB83FC836D837E83EDCF2B
:1004CE00EB85FC856D857E850E94B60A81F420E061
:1004DE00AB81BC818D819E81E0E0F0E060E271E451
:1004EE000E946909EB83FC836D837E837EC02A851F
:1004FE00EB81FC816D817E81AB85BC858D859E8572
:10050E000E94FC0909F010F40C94B302AB81BC817B
:10051E008D819E81E0E0F0E060E271E40E94690965
:10052E00EB83FC836D837E83EB81FC816D817E8109
:10053E00AB85BC858D859E850E94FC0960F0EDEC37
:10054E00FCEC6CEC7DE30E946909EB87FC876D8700
:10055E007E872F5FE9CF25C0EB81FC816D817E8187
:10056E00AB85BC858D859E850E94FC0960F4E0E01C
:10057E00F0E060E271E40E946909EB87FC876D8709
:10058E007E872150E9CFAB81BC818D819E81E0E0D9
:10059E00F0E060E271E40E946909EB83FC836D83F5
:1005AE007E83EB85FC856D857E85A0E0B0E080E0E6
:1005BE009FE30E941909EB87FC876D877E87EB818D
:1005CE00FC816D817E81AB85BC858D859E850E946B
:1005DE00FC0958F0EDECFCEC6CEC7DE30E94690933
:1005EE00EB87FC876D877E872F5F00E0EA85E0173B
:1005FE0010F40C945203AB81BC818D819E81EDEC85
:10060E00FCEC6CEC7DE30E946909A0E0B0E080E0B8
:10061E009FE30E9419090E94A40A0E942007EB83FF
:10062E00FC836D837E83AB85BC858D859E850E9404
:10063E00B7090E94A6081E2FAF81B8851196AF8309
:10064E00B8871197E12FE05DEC93E12FFF27662726
:10065E0077270E94DF08AB81BC818D819E810E942D
:10066E006909AB85BC858D859E850E94A90A0E946D
:10067E001209EB87FC876D877E87E02F0F5FE030D6
:10068E0009F0B4CFAF81B8851196AF83B8871197B3
:10069E00EEE2EC93ABCFEF81F8853196EF83F887DE
:1006AE003197A985A08320302CF42195AF81B88590
:1006BE00EDE203C0AF81B885EBE2EC93EF81F885F4
:1006CE003196EF83F8873196EF83F8873197BF0124
:1006DE00A22FEAE00E944A0AE05DDB01EC93EF8173
:1006EE00F8853196EF83F8873197BF01A22FEAE0A4
:1006FE000E94740AE05DDB01EC93AF81B885E0E007
:10070E00EC930E94C40A2F960895EF9761970E946A
:10071E00BA0A00E0FE01E85AFF4F0190F081E02D89
:10072E00E887F987FE01EA5AFF4F0190F081E02D2C
:10073E00EE83FF83AE81BF81E0E0F0E0ED93FC93AA
:10074E00DE01A45ABF4FED91FD913196FE93EE93CB
:10075E003197E4913E2FE03011F40C948A06E02F8D
:10076E00E03069F4353211F401E008C03A93EF81BC
:10077E00F885FA93EA93EB85FC850995C3C2E130BF
:10078E00F1F4353249F43A93EF81F885FA93EA930E
:10079E00EB85FC850995B5C202E0E0E0ED8B10E03B
:1007AE003D3211F411E0AEC23B3219F4EBE2ED8BA7
:1007BE00A9C2303219F4E0E2ED8BA4C202C0E230DD
:1007CE0039F440E003E0303311F410689BC202C0EC
:1007DE00E33091F4303310F03A3308F007C0AAE05A
:1007EE004A9F402DE32FE0534E0F8CC250E03E3215
:1007FE0011F404E087C20FC0E43099F4303310F0E6
:10080E003A3308F008C01062AAE05A9F502DE32F29
:10081E00E0535E0F77C23C3619F4126005E072C2E7
:10082E0004C0E53011F00C948906E32FE336B1F4E1
:10083E00FE01E65AFF4F0190F081E02D3497DE0164
:10084E00A65ABF4FED93FC93A481AA93EF81F8852E
:10085E00FA93EA93EB85FC85099553C2E53411F0C2
:10086E00E53609F404C0E63611F00C94AA04FE0134
:10087E007696EE87FF87DE01A65ABF4F0D90BC918C
:10088E00A02D0E94940AEA87FB876C877D87FE0164
:10089E00E65AFF4F0190F081E02D3497DE01A65A03
:1008AE00BF4FED93FC93AD85AA2322F0AD89AB32F9
:1008BE0069F020C0EA85FB856C857D850E947308F2
:1008CE00EA87FB876C877D87EDE2ED8B17FF0AC009
:1008DE00ED89EA93EF81F885FA93EA93EB85FC852F
:1008EE00099508C0EE85FF853196EE87FF87319713
:1008FE00AD89A08315FF56E0363671F4EA85FB8587
:10090E006C857D850E94A40A5A93EB89FC89FA9323
:10091E00EA930E9437070DC0EA85FB856C857D85BD
:10092E000E94A40A5A933A93EC89FD89FA93EA93AA
:10093E0084DDFE017696EE87FF87FA93EA930E9496
:10094E00DC060E2F45C0E337E9F4FE01E65AFF4FF1
:10095E000190F081E02D3497DE01A65ABF4FED9342
:10096E00FC93DE01A65ABF4F0D90BC91A02D14969C
:10097E000E94900AEE87FF87FA93EA930E94DC06A4
:10098E000E2F1FC0E03749F5FE01E65AFF4F0190CA
:10099E00F081E02D3497DE01A65ABF4FED93FC9304
:1009AE00DE01A65ABF4F0D90BC91A02D14960E9449
:1009BE00900AEE87FF87FA93EA930E94E6060E2FBF
:1009CE0018601F77503011F0501708F001C0052F36
:1009DE0050E0E0E0EC8B20E0AAC0E43611F0E936FE
:1009EE0011F4146002C0E537C1F4EAE0EC8B11FF9C
:1009FE000AC0E0E0FAEC6AE97BE3E88BF98B6A8BDC
:100A0E007B8B0AE029C0E0E1F7E260E070E0E88B62
:100A1E00F98B6A8B7B8B05E01FC0E83511F41860EB
:100A2E0004C0E83711F00C948806E0E1EC8B11FF5E
:100A3E000AC0E0E0F0E060E070E1E88BF98B6A8BD1
:100A4E007B8B08E009C0E0E0F0E160E070E0E88B4D
:100A5E00F98B6A8B7B8B04E0503011F01F7701C04D
:100A6E0051E011FF16C0FE01E65AFF4F0190F081D2
:100A7E00E02D3497DE01A65ABF4FED93FC93DE01B5
:100A8E00A65ABF4F0D90BC91A02D14960E94940AA9
:100A9E0031C012FF18C0FE01E65AFF4F0190F081DF
:100AAE00E02D3497DE01A65ABF4FED93FC93DE0185
:100ABE00A65ABF4F0D90BC91A02D14960E94900A7D
:100ACE000E94370A17C0FE01E65AFF4F0190F081CF
:100ADE00E02D3497DE01A65ABF4FED93FC93DE0155
:100AEE00A65ABF4F0D90BC91A02D14960E94900A4D
:100AFE0066277727EA87FB876C877D8712FF16C0EC
:100B0E00AD85AA2362F4EA85FB856C857D850E94FE
:100B1E00200AEA87FB876C877D87EDE2ED8BED89F6
:100B2E00E03019F00F5F5F5F01C01B7F252F10FDB6
:100B3E001AC0041710F4241708F015C017FF08C0C8
:100B4E0012FF04C01B7F3D89015001C030E301C07C
:100B5E0030E23A93EF81F885FA93EA93EB85FC85C0
:100B6E0009954150E6CF051740F5106112FF17C0E9
:100B7E001B7FED89EA93FE01E95AFF4F0190F08148
:100B8E00E02DFA93EA93FE01E55AFF4F0190F081B2
:100B9E00E02D0995403009F0415001505150E0E3ED
:100BAE00EA93EF81F885FA93EA93EB85FC85099534
:100BBE00403009F041505150D6CF202FEC89E03013
:100BCE00E9F42030D1F013FF06C0EE85FF85359194
:100BDE00EE87FF8705C0AE85BF853D91AE87BF8787
:100BEE003A93EF81F885FA93EA93EB85FC850995A4
:100BFE00403009F041502150E4CF74C0E889F989A2
:100C0E006A897B89AA85BB858C859D850E944F0A42
:100C1E003E2F3A3030F013FF02C0395C01C0395A12
:100C2E0001C0305D14FD32C0313360F4A889B9893A
:100C3E008A899B89A130E0E0BE07E0E08E07E0E004
:100C4E009E0709F40BC0521740F4421710F010FF24
:100C5E0001C027C030E217FF19C030E3106112FF48
:100C6E0015C01B7FED89EA93FE01E95AFF4F0190F3
:100C7E00F081E02DFA93EA93FE01E55AFF4F0190C1
:100C8E00F081E02D0995403009F041503A93EF8103
:100C9E00F885FA93EA93EB85FC850995403009F0C7
:100CAE0041502150E889F9896A897B89AA85BB85DB
:100CBE008C859D850E94800AEA87FB876C877D87DD
:100CCE00EC89A889B9898A899B89FF2766277727A6
:100CDE000E944F0AE88BF98B6A8B7B8B0E94B60AB7
:100CEE0009F08CCF10FF0DC0403059F04150E0E2BA
:100CFE00EA93EF81F885FA93EA93EB85FC850995E3
:100D0E00F3CF00E01DCDAE81BF810E94900A0E94FC
:100D1E00C10AEF966F960895FF92F82E26970E94BD
:100D2E00BC0ADE011C960E941C0A0E94900A309793
:100D3E0019F4EFEFFFEF29C0DE0116960E941C0A90
:100D4E008D01DE011C960E941C0A0E94900AEE8301
:100D5E00FF83E0E0E887E987DE011A960E941C0A0D
:100D6E000E94900AFA93EA931A930A93E6EEF1E040
:100D7E00FA93EA93FE013A96FA93EA93C6DC9F0140
:100D8E00AE81BF81E0E0EC93F9010E94C30A2A967E
:100D9E00FF900895E991F991A991B991CD0105902E
:100DAE000D920020E1F7FC010895A991B991EE276B
:100DBE00FF276D91662311F03196FBCF0895AA2778
:100DCE00BB27E991F9910590002011F01196FBCF08
:100DDE00FD0108957B816A81F981E88177FB770FA8
:100DEE0067FD7160972F9E5781F078F0983190F4DF
:100DFE00AA27BB27882708948795B795A7959A9514
:100E0E00D1F7EA23FB23682305C0E8947727EE2762
:100E1E00FF2766276F77769508F4606877F9A991B2
:100E2E00B99189919991EA17FB076807790797FBA2
:100E3E0008950E949A0A0E94A40A0E94F1060E9436
:100E4E009F0A19F40E949A0A09C0E6F70E949A0AAC
:100E5E00A0E0B0E080E89FE30E9412092496089576
:100E6E002497E0E0E883E983EA83EFE3EB831A93C8
:100E7E000A93EB85FC85EF3FAFEFFA0759F4EE814D
:100E8E00FF81FA93EA93E6E9F0E0FA93EA930E947F
:100E9E00D10612C1EF3FAFE7FA0759F4EE81FF8199
:100EAE00FA93EA93E7E9F0E0FA93EA930E94D10607
:100EBE0003C1AC85AA2392F4E985FA856B857C85FE
:100ECE000E947308E987FA876B877C87AE81BF81A2
:100EDE001196AE83BF831197EDE2EC93A885A730F0
:100EEE0010F0E6E0E8870885E02F0150E03079F059
:100EFE00AA81BB818C819D81EDECFCEC6CEC7DE3D9
:100F0E000E946909EA83FB836C837D83EDCFEA81BE
:100F1E00FB816C817D81A985BA858B859C850E941C
:100F2E001909E987FA876B877C8700E0E0E0F0E03B
:100F3E0060E87FE3EA83FB836C837D83EA81FB8138
:100F4E006C817D81A985BA858B859C850E94FC0963
:100F5E00E8F0AA81BB818C819D81E0E0F0E060E247
:100F6E0071E40E946909EA83FB836C837D830F5FC2
:100F7E00073258F0EE81FF81FA93EA93EBE9F0E045
:100F8E00FA93EA930E94D10697C0D8CF003049F465
:100F9E00AE81BF811196AE83BF831197E0E3EC93D0
:100FAE0049C0E02F0150E03011F40C942108AA81C1
:100FBE00BB818C819D81EDECFCEC6CEC7DE30E94A1
:100FCE006909A0E0B0E080E09FE30E9419090E9449
:100FDE00A40A0E942007EA83FB836C837D83A98584
:100FEE00BA858B859C850E94B7090E94A6081E2F84
:100FFE00AE81BF811196AE83BF831197E12FE05D65
:10100E00EC93E12FF0E0AA81BB818C819D810E943F
:10101E00370A0E94DF080E946909A985BA858B8567
:10102E009C850E94A90A0E941209E987FA876B879C
:10103E007C87B7CFE885E03009F43AC0AE81BF8136
:10104E001196AE83BF831197EEE2EC93E885E150E3
:10105E00E887EF5F69F1A985BA858B859C85E0E00D
:10106E00F0E060E271E40E946909E987FA876B8714
:10107E007C870E94A6081E2FAE81BF811196AE837B
:10108E00BF831197E12FE05DEC93E12FF0E0A9858E
:10109E00BA858B859C850E94370A0E94DF080E94C4
:1010AE00A90A0E941209E987FA876B877C87CECF3F
:1010BE00AE81BF81E0E0EC93198108812D960895F1
:1010CE00E991F991309639F08AEF90E00197F1F7B6
:1010DE00A8953197C9F7089530976040704009F090
:1010EE0070580895552342F4503811F4E0FF04C0AF
:1010FE003196691F791F6BF050E8572711F45F93F3
:10110E00CFC05F3F31F0660F000C57956795752F76
:10111E0008955F9300200AF0CFC0C8C050E8192E82
:10112E001522880F991F9527550F879550E8072E82
:10113E000522660F771F7527550F679508956894DA
:10114E0001C0E8945F93F2DF703818F07F3F08F427
:10115E00A7C056E1571BAAF4519558300EF45930DA
:10116E0030F0EFEFFFEF6FEF7FE777F91AC07727D9
:10117E005523B9F0EE0FFF1F661F771F5A95D1F753
:10118E0010C07727583028F0EF2FF62F672F5850C2
:10119E00F9CF552331F076956795F795E7955A95E2
:1011AE00D1F700200AF445D15F910895689401C0EB
:1011BE00E894309760407040B1F0002426F0772319
:1011CE0012F4009436D1172E7EE1112032F07A956A
:1011DE00EE0FFF1F661F111CF9CFEF2FF62F612D9B
:1011EE005F938ADF5F9108954F93AF01FD01DA019E
:1011FE00AB01BC01CA01402D012C142E4F91089554
:10120E00EA0FFB1F681F0895E095F0956095EF5F5C
:10121E00FF4F6F4F08955F9381DF903871F150E863
:10122E00152604C05F937ADF903839F1703821F1BA
:10123E00572F591B2BF112F4D7DFFACF583118F074
:10124E00AA27BB278827583028F0AB2FB82F88271E
:10125E005850F9CF552329F08695B795A7955A95ED
:10126E00D9F7502D512572F0CBDF38F46795F795ED
:10127E00E795739513F420C0B7DF3EDF5F910895B5
:10128E00D8F7FBCFEA1BFB0B680B51F010F4009460
:10129E00BBDF662392F3EE0FFF1F661F7A95CBF727
:1012AE00EE27FF27662777275F910895EFEFFFEF71
:1012BE006FE77FEF5F910895EFEFFFEF6FE77FE747
:1012CE005F9108955F932ADF703851F3903841F3A0
:1012DE0001240894791F23F41CF300203AF3ECCF79
:1012EE000F921F932F933F934F93112722279927E6
:1012FE00689FA0018F9F302D410D591F6B9F300DA0
:10130E00411D591F8E9F27D0BF9F25D06A9F23D086
:10131E00BE9F1DD0AF9F1BD0AE9F110D291F391F31
:10132E00491F591FE32FF42F652F522F4F913F91D5
:10133E002F911F910F9066232AF0550FEE1FFF1F5E
:10134E00661F02C073954BF2CDDE5F910895100DAE
:10135E00211D391F02C0200D311D491F591F08952F
:10136E005F93DCDE703821F411200AF49FCFA4CFF6
:10137E00903809F495CF01240894970B1BF4D4F3FD
:10138E000020F3CF792F1F932F933F934F93112468
:10139E001127222733274427552790E2AE17BF0780
:1013AE008607410730F0AE1BBF0B860B410B08942E
:1013BE0001C08894551F221F331F111CAA1FBB1F6B
:1013CE00881F441F9A9551F7F901612D4F913F9156
:1013DE002F911F91662332F0550FEE1FFF1F661FD0
:1013EE007A9543F27FDE5F91089599239AF07723E1
:1013FE0042F0971748F029F4AE17BF07860720F082
:10140E0031F09894889408959894089408951894B7
:10141E00889408957723C2F7971798F3A9F7EA17D8
:10142E00FB07680788F399F3ECCF0024AF0DB01DCE
:10143E000895F09560957095E195FF4F6F4F7F4F32
:10144E000895F595E795F595E795F595E795F59555
:10145E00E7950895FE2FFF0FFF0B6F2F7F2F089537
:10146E006F2F660F660B762F0895002498E0AA0F53
:10147E00001C0E1A10F40E0E01C0A1609A95B9F759
:10148E00EA2FA02D089539D0F0DF0EF4E1950895DE
:10149E003F934F935F93002411244427552730E246
:1014AE00AA0FBB1F881F991F001C111C441F551F1C
:1014BE000E1A1F0A460B570B28F40E0E1F1E461F40
:1014CE00571F01C0A1603A9559F7FD01BC01D0012B
:1014DE00CA015F914F913F910895E894A7FF02C012
:1014EE00A1956894E7FDE195C0DFEA2F0EF4E19532
:1014FE000895CEDFFD01BC010895E894E7FF02C018
:10150E00E1956894A7FF04C0A19500F8039400FA32
:10151E000895ED91FC9111970895ED91FD916D91C6
:10152E007C9113970895E881F9816A817B810895F2
:10153E00E883F9836A837B8308957A936A93FA9397
:10154E00EA930895182E862F612D192E972F712D3F
:10155E001B2EBF2FF12D1A2EAE2FE12D0895309791
:10156E006040704008955A934A933A932A931A937F
:10157E000A9308955D814C813B812A8119810881EE
:10158E000895AC0FBD1F05900D928A95E1F7089551
:00000001FF
