:060000000C943D000C947D
:1000060000000C9400000C9400000C9400000C946A
:1000160000000C9400000C9400000C9400000C945A
:1000260000000C9400000C9400000C9400000C944A
:1000360000000C9400000C9400000C9400000C943A
:1000460000000C9400000C9400000C9400000C942A
:1000560000000C9400000C9400000C9400000C941A
:1000660000001027E80364000A00010000100001E8
:1000760010000100F894EE27EFBBF1E0F5BFE5BFF5
:10008600F8E1A895A4B7A77FA4BFF0936000E0931A
:1000960060008DE0A2E0BB27ED938A95E9F780E04A
:1000A60098E0A0E0B1E0ED930197E9F7E0E0EEBB60
:1000B600EFEFEDBFE8E0EEBFC0E0D3E00C94B00098
:1000C600E881E064E0937C0083E08A95F1F7E091B3
:1000D6007A00E064E0937A00E0917A00E071E1F35F
:1000E600E0917A00E061E0937A00E0917800F09187
:1000F600790021960895E0E0EA93E2DF6627772704
:10010600E0930003F09301036093020370930303EB
:10011600ACEBB2E080E090E00E9426020E9454011F
:10012600DF01CB01E0E0F0E060E874E40E94D90171
:10013600A0E0B0E088EC92E40E948901A4E0B3E07C
:100146000E941F010E944602E0910403F0910503FC
:10015600FA93EA930E94E4000895EFEFE4B9409A17
:10016600E1E0E0937E00E0E4E0937C00E3E8E093E6
:100176007A00289A2F9ABFDF299A2E9A28982F98C4
:10018600BADF2A9A2D9A29982E98B5DF2B9A2C9A9F
:100196002A982D98B0DF2A9A2D9A2B982C98ABDFA7
:1001A600299A2E9A2A982D98A6DF289829982A986F
:1001B6002B982C982D982E982F9829982E98D9CF31
:1001C600FFCFE991F991309639F08AEF90E00197E7
:1001D600F1F7A8953197C9F70895552342F4503899
:1001E60011F4E0FF04C03196691F791F6BF050E8E7
:1001F600572711F45F93C8C05F3F31F0660F000CBC
:1002060057956795752F08955F9300200AF0C8C02B
:10021600C1C050E8192E1522880F991F9527550F32
:10022600879550E8072E0522660F771F7527550F0D
:1002360067950895689401C0E8945F93F2DF70387B
:1002460018F07F3F08F4A0C056E1571BAAF4519559
:1002560058300EF4593030F0EFEFFFEF6FEF7FE7D5
:1002660077F91AC077275523B9F0EE0FFF1F661FDF
:10027600771F5A95D1F710C07727583028F0EF2FFF
:10028600F62F672F5850F9CF552331F0769567959D
:10029600F795E7955A95D1F700200AF4CCD05F91EF
:1002A6000895689401C0E894309760407040B1F0BA
:1002B600002426F0772312F40094BDD0172E7EE199
:1002C600112032F07A95EE0FFF1F661F111CF9CF31
:1002D600EF2FF62F612D5F938ADF5F9108954F937D
:1002E600AF01FD01DA01AB01BC01CA01402D012CB1
:1002F600142E4F910895EA0FFB1F681F0895E0958D
:10030600F0956095EF5FFF4F6F4F08955F9381DF24
:10031600903839F1703821F1572F591B2BF112F40F
:10032600DEDFFACF583118F0AA27BB2788275830C6
:1003360028F0AB2FB82F88275850F9CF552329F02E
:100346008695B795A7955A95D9F7502D512572F0F0
:10035600D2DF38F46795F795E795739513F420C0C7
:10036600BEDF45DF5F910895D8F7FBCFEA1BFB0B95
:10037600680B51F010F40094C2DF662392F3EE0F7F
:10038600FF1F661F7A95CBF7EE27FF27662777278D
:100396005F910895EFEFFFEF6FE77FEF5F910895AD
:1003A600EFEFFFEF6FE77FE75F9108955F9331DF30
:1003B600703821F411200AF4EDCFF2CF903809F409
:1003C600E3CF01240894970B1BF4D4F30020F3CF5A
:1003D600792F1F932F933F934F9311241127222791
:1003E60033274427552790E2AE17BF0786074107F4
:1003F60030F0AE1BBF0B860B410B089401C08894EE
:10040600551F221F331F111CAA1FBB1F881F441F05
:100416009A9551F7F901612D4F913F912F911F91B7
:10042600662332F0550FEE1FFF1F661F7A9543F2C3
:10043600D4DE5F910895F09560957095E195FF4F34
:100446006F4F7F4F08957A9F702D6B9F700DF89FA9
:10045600700DE99F700D6A9F602D710DFB9F600DF9
:10046600711DE89F600D711D8827FA9FF02D610DA3
:10047600781FEB9FF00D611D781FEA9FE02DF10DAF
:10048600681F781F0895ED93FD936D937C930895EF
:00000001FF
