:0A0000000C94E2010C9400000C9433
:10000A0000000C9400000C9400000C9400000C9466
:10001A0000000C9400000C9400000C9400000C9456
:10002A0000000C9400000C9400000C9400000C9446
:10003A0000000C9400000C9400000C9400000C9436
:10004A0000000C9400000C9400000C9400000C9426
:10005A0000000C9400000C9400000C940000436112
:10006A0066653A202052697374726574746F202031
:10007A00202000436166653A2020496E64726979DE
:10008A006120202020202000436166653A2020520A
:10009A006F6D6120202020202020202000436166EF
:1000AA00653A202043696F63617474696E6F20201A
:1000BA002000436166653A20205269737472657440
:1000CA00746F2033782000436166653A2020496EB8
:1000DA006472697961203278202020004361666564
:1000EA003A2020526F6D6120202032782020202073
:1000FA0000436166653A202043696F6361747469DD
:10010A006E6F2032780006012601060126014A0197
:10011A004A014A01260106012601060103030302D8
:10012A00020C00080001000602040E111F100E0046
:10013A00091209001F1F0E0E2D00280028001400A6
:10014A0078004B004B0028004600500050004B003E
:10015A00AA009600A000960048616369656E646F04
:10016A002063616665202020202020200046616CE3
:10017A0074616E20256920736567756E646F730AF2
:10018A00002E20200046616C74616E202569207360
:10019A006567756E646F7320002E2E20002E2E2E3A
:1001AA000046616C74616E20256920736567756EFF
:1001BA00646F7300202020202020204C6973746F04
:1001CA002120202020202020004E6976656C2062A4
:1001DA00616A6F20646520616775612120002020B3
:1001EA0020526563617267756520616775612020B9
:1001FA002020004D6963726F636F6E74726F6C6159
:10020A00646F7265730041676F73746F2D4469631D
:10021A0069656D62726500323031340050726F79EF
:10022A006563746F2046696E616C004A6176696520
:10023A00722064652056656C6173636F005269634E
:10024A006172646F204D6564696E61004665726E05
:10025A00616E646F2056696C6C65727300417865D3
:10026A006C2053616C617A6172004269656E7665D1
:10027A006E69646F2061206C612000436166657459
:10028A0065726120496E74656C6967656E74650094
:10029A0020496E646971756520756E61206F70639F
:1002AA00696F6E200020202020202020202020207E
:1002BA002020202020202020200020204361666565
:1002CA007465726120417061676164612020004435
:1002DA00414D45204C41204D4F54484552465543C7
:1002EA004B494E47204F5043494F4E2052494748A9
:1002FA0054204E4F57200A002563002563206C6561
:10030A006C0A004361736F2031200A002020466185
:10031A00766F7220646520656E63656E646572200F
:10032A00004361736F2032200A004361736F2033E8
:10033A00200A00202020202041706167616E646FCE
:10034A002E2E2E2020202000202020456E63656E50
:10035A006469656E646F2E2E2E202020002053655E
:10036A006C656363696F6E206572726F6E65612C6E
:10037A00200020696E74656E7465206E75657661FD
:10038A006D656E74652000002D4E414E000001001F
:10039A002D4E414E00494E4600000700010332012E
:1003AA00080009033A010F00110342010F00240358
:1003BA0052010100460398030000F894EE27EFBBB0
:1003CA00F1E0F5BFE5BFF8E1A895A4B7A77FA4BF00
:1003DA00F0936000E09360008DE0A2E0BB27ED930C
:1003EA008A95E9F780E098E0A0E0B1E0ED93019703
:1003FA00E9F7E4EAF3E085919591009761F0A59118
:10040A00B59105901590BF01F00105900D920197E5
:10041A00E1F7FB01F0CFE0E0EEBBEFEFEDBFE8E084
:10042A00EEBFC0E0D3E00C94D3032C978CE0A0E09D
:10043A00B0E0E6E2F1E00E942E100A93E7B1EF6025
:10044A00E7B9EAB1E468EAB9E2E3F0E00E94940BA2
:10045A0000E00C3070F40E94980B0E949B0BDE01A6
:10046A001196AE0FBF1FEC91EA930E949E0B0F5F8D
:10047A00F0CFECE0E0930003EA931FD008812D96B9
:10048A0008955A9A5A980895E881E87011F0439AA3
:10049A0001C04398E881E47011F0429A01C0429881
:1004AA00E881E27011F0419A01C04198E881E17057
:1004BA0011F0409A01C040980FC30A935F980E94B6
:1004CA00980B0E94A20B0E94A60B0E94AB0BD9DFCD
:1004DA000881A8C00A935F9A0E94980B0E94A20BF7
:1004EA000E94A60B0E94AB0BCCDF08819BC00A932B
:1004FA005F9A0E94980B0E94A20B0E94A60B0E9470
:10050A00AB0BBFDF08818EC00A9300E00E94B20BDA
:10051A000E94B80BE02FA981BA810E94BE0BB1F7E5
:10052A000881E3C20A9300E0E02F0F5FAB81BC8130
:10053A00F0E00E94B80BE981FA810E94940BE02F47
:10054A00AB81BC810E94BE0B79F70881259608957C
:10055A000A9300E00E94B20BAE0FBF1FEC91EA9320
:10056A00C6DF0E94C40BE030A9F70881BEC2E1E0F1
:10057A00EA93A3DF0895E881F0E0309719F4E9815E
:10058A00E05814C0E130A0E0FA0719F4E981E05418
:10059A000DC0E230A0E0FA0719F4E981EC5606C072
:1005AA00E330A0E0FA0721F4E981EC52EA9385DF0F
:1005BA0039C00A93EB81EE0FEE0FEE0FE05CEA937F
:1005CA007CDF00E0083030F40E94C40BEA9382DF3B
:1005DA000F5FF8CFE0E8EA9370DF08812496089568
:1005EA00E0E0E5BD0895EFEFE093B400E8E8F3E159
:1005FA000E94940BE0E0E093B4000895E881F98149
:10060A00A4E2B4EF0E949A0FE0933A03F0933B03FB
:10061A00E2E4E4BDE3E0E5BDE0913A03F0913B0397
:10062A003197E7BD22960895DEDFE5E0E093890081
:10063A00E4E10E94CB0BE6E0E0938900E4EA0E9441
:10064A00CB0B0E94D00B0E94D70B0895E6E0E093F3
:10065A008B00E4EA0E94DA0BE5E0E0938B00E4E128
:10066A000E94DA0B0E94DF0BE0912103F091220332
:10067A000E947A0FF0E0E0932103F0932203089599
:10068A00D3DFA0913403B09135030E941C1014F0FB
:10069A000C94A3030E94E60BE2E6F1E00E94EC0B45
:1006AA000E94F00B31960E94F90B0E94EB082696E5
:1006BA00A0913403B09135031A9774F50E94FF0B89
:1006CA000E94020CEBE8F1E00E94EC0B0E94080C7D
:1006DA00EFE8F1E00E940D0C0E94BB0828960E94E8
:1006EA00F00B0E94F90B0E94EB0826960E94FF0B62
:1006FA000E94020CE3EAF1E00E94EC0B0E94FF0B5D
:10070A000E94140C0E941B0C0E94020CE7EAF1E002
:10071A000E94EC0B0E94FF0B0E94080CEBEAF1E02E
:10072A000E940D0C0E94BB082896E3E4F3E00E94A5
:10073A00940B0E94140C0E941B0CA3CF0E94E60B80
:10074A00EEEBF1E00E94EC0B0E94250C0E942B0CB0
:10075A00A5E1B0E00E947F0FE859FF4F0E94EC0B21
:10076A0063DF08950E94E60BE3EDF1E00E94EC0BD3
:10077A000E94250CE8EEF1E00E94EC0B0E94300C7E
:10078A000E94360C12974CF4459A0E943B0C4598ED
:10079A000E943B0C0E943E0CF3CF089546DEE0E037
:1007AA00EA93E1E0F3E0FA93EA9303DFE1E0EA9304
:1007BA00E9E0F3E0FA93EA93FCDE219AE3E2E093BC
:1007CA00B000E7E0E093B100E2EAE0938000EAE1FA
:1007DA00E0938100EEE4E0938700E0E2E093860094
:1007EA00E0E0E093C000E8E1E093C100E6E0E093D6
:1007FA00C200E0E0E093C500E3E3E093C4000E9496
:10080A00D00B0E94DF0B589A5B98E0E0E093340328
:10081A00E09335030E94460C539A229A2D9A249A01
:10082A00569A3C9A3D9A239AE0E0E093B4000E94DB
:10083A004D0CEDEFF1E00E94EC0BE2E00E94530C4C
:10084A00E0E1F2E00E94580CE8E0EA93E2E0EA9381
:10085A0092DEE1E2F2E00E94580CE3E0EA93EA93C6
:10086A008ADEE6E2F2E00E94EC0B0E94600C7FDE78
:10087A000E944D0CE5E3F2E00E94EC0BE3E00E94DB
:10088A00530CE7E4F2E00E94EC0BE2E0EA93EA930D
:10089A0072DEE6E5F2E00E94EC0BE4E0EA93E3E0C4
:1008AA00EA9369DEE7E6F2E00E94EC0B0E94600C34
:1008BA005EDE449A0E94600CE1E0F0E0E0932103DE
:1008CA00F0932203449845982B980E94300C0E947A
:1008DA004D0CE4E7F2E00E94EC0BE1E0EA9307DE5C
:1008EA00E0E00E94530CE5E8F2E00E94EC0B0E9463
:1008FA00E60BA0913603B0913703A639E0E0BE07B4
:10090A00C4F430DF0E94360C14974CF40E943E0C5B
:10091A003197AEE1B1E00E94630C62DEF3CF0E9430
:10092A00D70B1D9B03C00E94460CFBCF0E94300CC4
:10093A00C3C00E946E0C29F40E94E60BEAE9F2E0B9
:10094A0004C00E94E60BE4ECF2E0FA93EA93DCDDE1
:10095A000E94250C0E94740CE9EDF2E00E94770CCB
:10096A00E2E0F3E0FA93EA93E3E2F3E0662777271B
:10097A000E94061084E00E94530A2696E5E0F3E0FE
:10098A00FA93EA93E0912303FF27662777270E94C9
:10099A00061084E00E94EB0826960E942B0C3897DA
:1009AA0014F00C942805EDE0F3E00E94770C0E9405
:1009BA006E0CD1F50E942B0CA1E1B3E00E947E0CD3
:1009CA00E0933403F09335032B9A5ADE0E942B0CE2
:1009DA00A4E2B3E00E947E0CA0913603B0913703E3
:1009EA00AE1BBF0BA0933603B09337032B98449AE0
:1009FA000E943B0C0E94360C17974CF40E943E0C46
:100A0A003197A0E1B1E00E94630CEADDF3CFE8EB95
:100A1A00FBE00E94940B0E94E60B0E94740C0E9459
:100A2A00250C0E94740C0EC00E94E60BE4ECF2E066
:100A3A000E94EC0B0E94250CE6E1F3E00E94EC0B0D
:100A4A000E94600C39C0EBE2F3E00E94770C0E942E
:100A5A002B0CE830A0E0FA07E9F4E4E3F3E00E94A3
:100A6A00770C0E946E0C29F40E94E60BEDE3F3E08A
:100A7A0004C00E94E60BE2E5F3E0FA93EA9344DD50
:100A8A000E94250C0E94740CE1DDE8EBFBE00E9459
:100A9A00940B12C0EDE0F3E00E94770C0E94E60B83
:100AAA00E7E6F3E00E94EC0B0E94250CECE7F3E08A
:100ABA000E94EC0B0E94600C05CFFFCFE091C000B2
:100ACA00E078E1F3E091C6000895E091C000E07299
:100ADA00E1F3E881E093C60021960895EA81EA935A
:100AEA00F4DFA881B9810E94850C239608951A9390
:100AFA000A93AA81BB8112960E94EE0F309729F1C0
:100B0A00AA81BB8114960E94EE0F8F01309761F083
:100B1A000230E0E01E07C0F0F80131978F01AA8188
:100B2A00BB811496ED93FC93AA81BB8112960E9415
:100B3A00850C3197AC81A083AA81BB810E94EE0FFC
:100B4A00FF2312F00E94850C06C0AA81BB81EFEF39
:100B5A00FFEFED93FC93198167C32497E0E0E883E4
:100B6A00E983E0E8EA83EFE3EB830E942310ED8553
:100B7A00FE85EF3FAFEFFA0739F40E948B0CE2E9EA
:100B8A00F3E00E94900CB6C0EF3FAFE7FA0739F4E2
:100B9A000E948B0CE3E9F3E00E94900CABC0AA859B
:100BAA00A73010F0E6E0EA870A85E02F0150E0302E
:100BBA0019F00E94940CF9CFEB85FC856D857E8532
:100BCA000E94181021F420E00E94940C2EC02A855D
:100BDA000E94A30C09F010F40C94FE050E94940CD8
:100BEA000E94A30C28F00E94AE0C0E94B30CF8CF0E
:100BFA000DC00E94A30C40F40E94AE0C0E94BF0CD0
:100C0A000E94C60C2150F5CF0E94940CEB85FC85FE
:100C1A006D857E850E94CB0C0E94C60C0E94A30C97
:100C2A0020F00E94AE0C0E94B30C00E0EA85E017A7
:100C3A00A8F1AB81BC818D819E810E94D20C0E9459
:100C4A00CB0C0E9406100E94DD0AEB83FC836D83A5
:100C5A007E830E94AE0C0E94F50E0E94E40D1E2FA8
:100C6A000E94D90C0E94E00CFF27662777270E9472
:100C7A001D0EAB81BC818D819E810E94A70E0E94B0
:100C8A00AE0C0E94E50C0E94C60CE02F0F5FE0300C
:100C9A0069F60E94D90CEEE2EC93C8CF0E94EA0CE6
:100CAA003197A985A08320302CF42195AF81B8858E
:100CBA00EDE203C0AF81B885EBE2EC930E94EA0C47
:100CCA000E94EA0C3197BF01A22FEAE00E94950F19
:100CDA00E05DDB01EC930E94EA0C3197BF01A22F81
:100CEA00EAE00E94D20FE05DDB01EC93AF81B885A8
:100CFA00E0E0EC930E942A102F960895EF976197EF
:100D0A000E94201000E0FE01E85AFF4F0190F08196
:100D1A00E02DE887F987FE01EA5AFF4F0190F0813A
:100D2A00E02DEE83FF83AE81BF81E0E0F0E0ED933A
:100D3A00FC93DE01A45ABF4F0E94850C3197E491BF
:100D4A003E2FE03011F40C94B208E02FE03059F451
:100D5A00353211F401E006C03A930E948B0CEB8500
:100D6A00FC850995F9C1E130E1F4353239F43A9359
:100D7A000E948B0CEB85FC850995EDC102E0E0E051
:100D8A00ED8B10E03D3211F411E0E6C13B3219F46B
:100D9A00EBE2ED8BE1C1303219F4E0E2ED8BDCC11C
:100DAA0002C0E23039F440E003E0303311F4106855
:100DBA00D3C102C0E33091F4303310F03A3308F073
:100DCA0007C0AAE04A9F402DE32FE0534E0FC4C14B
:100DDA0050E03E3211F404E0BFC10FC0E43099F490
:100DEA00303310F03A3308F008C01062AAE05A9F74
:100DFA00502DE32FE0535E0FAFC13C3619F4126059
:100E0A0005E0AAC104C0E53011F00C94B108E32F43
:100E1A00E33671F40E94F00C0E94F70C0E94F00C69
:100E2A00A481AA930E948B0CEB85FC85099593C13A
:100E3A00E53411F0E53609F404C0E63611F00C94F5
:100E4A007307FE017696EE87FF870E94FE0C0E94CA
:100E5A00F20F0E94050D0E940A0DAD85AA2322F009
:100E6A00AD89AB3249F01AC00E940C0D0E94B10D37
:100E7A000E94050DEDE2ED8B17FF08C0ED89EA939C
:100E8A000E948B0CEB85FC85099508C0EE85FF85D1
:100E9A003196EE87FF873197AD89A08315FF56E01B
:100EAA00363661F40E940C0D0E9406105A93EB89A3
:100EBA00FC89FA93EA930E94F40A0BC00E940C0D73
:100ECA000E9406105A933A93EC89FD89FA93EA93A1
:100EDA0044DEFE0176960E94110D1EC0E33739F4F6
:100EEA000E940A0D0E94190D0E94110D0EC0E037D2
:100EFA00C1F40E940A0D0E94190DEE87FF87FA932A
:100F0A00EA930E94A30A0E2F18601F77503011F03F
:100F1A00501708F001C0052F50E0E0E0EC8B20E00C
:100F2A006EC0E43611F0E93611F4146002C0E537F8
:100F3A00A1F4EAE0EC8B11FF08C0E0E0FAEC6AE900
:100F4A007BE30E941E0D0AE023C0E0E1F7E260E0C5
:100F5A0070E00E941E0D05E01BC0E83511F4186010
:100F6A0004C0E83711F00C94B008E0E1EC8B11FFF3
:100F7A0008C0E0E0F0E060E070E10E941E0D08E0C9
:100F8A0007C0E0E0F0E160E070E00E941E0D04E0BE
:100F9A00503011F01F7701C051E011FF08C00E94C4
:100FAA000A0D0E94FE0C14960E94F20F0FC012FF47
:100FBA0007C00E940A0D0E94190D0E94750F06C0F3
:100FCA000E940A0D0E94190D66277727EA87FB8778
:100FDA006C877D8712FF12C0AD85AA2342F40E9456
:100FEA000C0D0E945E0F0E94050DEDE2ED8BED895E
:100FFA00E03019F00F5F5F5F01C01B7F252F10FDE6
:10100A0018C0041710F4241708F013C017FF08C0FB
:10101A0012FF04C01B7F3D89015001C030E301C0AB
:10102A0030E23A930E948B0CEB85FC85099541507E
:10103A00E8CF051798F4106112FF06C00E94230D2D
:10104A0009F0415001505150E0E3EA930E948B0CA1
:10105A000E94370D09F041505150EBCF202FEC89F7
:10106A00E030C9F42030B1F013FF06C0EE85FF85E9
:10107A003591EE87FF8705C0AE85BF853D91AE8766
:10108A00BF873A930E948B0C0E94370D09F041509A
:10109A002150E8CF53C00E943C0D0E94AD0F3E2F55
:1010AA003A3030F013FF02C0395C01C0395A01C02E
:1010BA00305D14FD21C0313360F4A889B9898A8969
:1010CA009B89A130E0E0BE07E0E08E07E0E09E07E2
:1010DA0009F40BC0521740F4421710F010FF01C078
:1010EA0012C030E217FF08C030E3106112FF04C0DB
:1010FA000E94230D09F041503A930E948B0C0E94E2
:10110A00370D09F0415021500E943C0D0E94DE0F1C
:10111A000E94050DEC89A889B9898A899B89FF27CC
:10112A00662777270E94AD0F0E941E0DE889F9896C
:10113A006A897B890E94181009F0ADCF10FF0BC095
:10114A00403049F04150E0E2EA930E948B0CEB8573
:10115A00FC850995F5CF00E0ECCDAE81BF810E94F8
:10116A00EE0F0E942710EF966F960895FF92F82EC1
:10117A0026970E9422100E94450D309719F4EFEF2E
:10118A00FFEF1FC0DE0116960E945A0F8D010E94C2
:10119A00450DEE83FF83E0E0E887E987DE011A96D2
:1011AA000E944C0DECE7F5E0FA93EA93FE013A96B9
:1011BA00FA93EA93A3DD9F01AE81BF81E0E0EC934D
:1011CA00F9010E9429102A96FF900895FF92F82E9D
:1011DA0026971A930A93DE0114960E945A0F8D01DC
:1011EA00E0E0EC83ED83EE83EF83DE0118960E9444
:1011FA004C0DE3E7F5E00E94550D80DD1981088169
:10120A002896FF9008950A93A981BA81E0E0EC93A9
:10121A00AB81BC81EC910E2FE03019F0E0E0EC9349
:10122A0002C04CDC0E2FE02F0881259608952597E1
:10123A000E942010E0E0F0E0E887F9875E2FE98954
:10124A00FA893196E98BFA8B3197E4912E2FE030A7
:10125A0011F40C944D0A0E945C0DC1F0EDB7FEB773
:10126A00FA93EA935F930E94610D5F912E2FE0300B
:10127A0019F00E945C0D09F407C00E94690D1CF464
:10128A00EFEFFFEF07C1EACF522F01C1253211F06C
:10129A000C94340A40E0E989FA892591E98BFA8BA2
:1012AA00203310F02A3308F007C0AAE04A9F402DE5
:1012BA00E22FE0534E0FEFCF203009F4E9C0EDB72B
:1012CA00FEB7FA93EA935F930E94610D5F913E2FF6
:1012DA00EA930E94760AE03039F00E94690D1CF404
:1012EA00EFEFFFEFD7C0EBCF303009F4C8C0532F70
:1012FA00403009F44FEFE22FE33699F40E946E0D65
:10130A00EDB7FEB7FA93EA935F930E94610D5F917E
:10131A00D801EC930E94690D1CF4EFEFFFEFBAC0FD
:10132A0098C0E33741F50E946E0DE42F4150E0303A
:10133A00F1F0EDB7FEB7FA93EA935F930E94610D5D
:10134A005F912E2FE03019F00E945C0D39F00E9457
:10135A00690D1CF4EFEFFFEF9DC009C01F930F93B7
:10136A000F5F1F4FE22FAF91BF91EC93DECFD801F1
:10137A00E0E0EC936EC0E1E0EA87E22FE43611F098
:10138A00E93619F4E0E0EA8702C0E53711F43AE0F9
:10139A0008C0E83711F430E104C0E53209F45FC04F
:1013AA0077C0E0E0EE83EF83E42F4150E03011F4A0
:1013BA000C94210AEDB7FEB7FA93EA935F930E9461
:1013CA00610D5F912E2FE13238F40E94690D1CF4F1
:1013DA00EFEFFFEF5FC017C0EA85E03039F42D3236
:1013EA0019F4EFEFEA87E0CFE1E0EA87303131F430
:1013FA002A930E94800AE03031F007C02A930E94A3
:10140A006E0AE03011F4522F17C0213610F027551A
:10141A0005C0213410F0275301C02053E32FAE81B9
:10142A00BF81F0E00E947F0FDF01E22FF0E0EA0FB8
:10143A00FB1FEE83FF83B8CF0E946E0DEA85AE8153
:10144A00BF81F0E0E7FDFFEF0E947F0FD801ED9327
:10145A00FC93E885F9853196E887F98718C0EDB7D6
:10146A00FEB7FA93EA935F930E94610D5F91E217C8
:10147A0071F00E94690D1CF4EFEFFFEF0BC0E885D5
:10148A00F985309719F4EFEFFFEF04C001C0D7CE0A
:10149A00E885F9850E94271063960895FF92F82E31
:1014AA0023971A930A93DE0111960E945A0F8D010F
:1014BA00E0E0EB83EC83DE0115960E944C0DE8E038
:1014CA00F9E00E94550DB3DE198108812596FF9037
:1014DA000895E1E0F991F03310F0FA3308F0EE27BD
:1014EA000895E1E0F991F03229F0F93010F0FE3078
:1014FA0008F0EE270895E1E0F991F05340F0FA3050
:10150A0038F0FF75F750FA3010F0F03108F0EE2796
:10151A000895E991F991A991B991CD0105900D929A
:10152A000020E1F7FC010895A991B991EE27FF2760
:10153A006D91662311F03196FBCF0895AA27BB2738
:10154A00E991F9910590002011F01196FBCFFD0168
:10155A0008957B816A81F981E88177FB770F67FDBE
:10156A007160972F9E5781F078F0983190F4AA27EE
:10157A00BB27882708948795B795A7959A95D1F799
:10158A00EA23FB23682305C0E8947727EE27FF2781
:10159A0066276F77769508F4606877F9A991B9910B
:1015AA0089919991EA17FB076807790797FB0895CC
:1015BA000E94790D0E9406100E94AE0A0E94011034
:1015CA0019F40E94790D09C0E6F70E94790DA0E08E
:1015DA00B0E080E89FE30E94500E24960895249775
:1015EA00E0E0E883E983EA83EFE3EB831A930A9363
:1015FA00EB85FC85EF3FAFEFFA0729F478D2EAE9E9
:10160A00F3E089D188C0EF3FAFE7FA0729F46FD238
:10161A00EBE9F3E080D17FC0AC85AA2352F4E985D7
:10162A00FA856B857C850E94B10D66D26AD2EDE29D
:10163A00EC93A885A73010F0E6E0E8870885E02F4C
:10164A000150E03021F064D2A8D167D2F8CF6AD233
:10165A000E94570E51D200E0E0E0F0E060E87FE33C
:10166A005CD260D20E943A0F60F052D283D155D236
:10167A000F5F073228F03BD2EFE9F3E04CD14BC0C1
:10168A00F0CF003021F43DD2E0E3EC9320C0E02F0C
:10169A000150E030E1F03CD280D178D10E940610AE
:1016AA000E94DD0A3AD23ED20E94F50E0E94E40D53
:1016BA001E2F27D280D1F0E02BD20E94750F0E94F4
:1016CA001D0E0E94A70E37D27BD116D2E0CFE88535
:1016DA00E030E9F016D2EEE2EC93E885E150E887D3
:1016EA00EF5FA9F028D246D107D2E985FA856B8542
:1016FA007C850E94E40D1E2F04D25DD1F0E01BD23E
:10170A000E94750F0E941D0E5BD1F6D1E6CFAE8105
:10171A00BF81E0E0EC93198108812D960895FA9330
:10172A00EA930C94A50DE2E0F0E0F9CFE02FF0E0A7
:10173A0008950E9449020C944602E981E07F0E2F27
:10174A00F5CF0E94660F0E2F0A93F3CFE981EF704F
:10175A000E2F0A930E944902E6CFE02F0F5FA9815C
:10176A00BA81F0E00895EA0FFB1FE491EA930C9422
:10177A007C02F0E0EA0FFB1FE491E0300895A981B2
:10178A00BA81EE27A00FBE1FEC910895E09388005E
:10179A00EAEFF0E0C4CFE5E0E0938900ECEDE093F6
:1017AA0088000895E4EFF1E0BACFE0938A00EAEF07
:1017BA00F0E0B5CFE5E0E0938B00ECEDE0938A0032
:1017CA000895E0E0EA93E2E0EA930C94C002FA9307
:1017DA00EA930C948902E7E7F1E0FA93EA93E0913D
:1017EA003403F091350308950E94750F0E94061084
:1017FA0084E00895E8ECF0E092CFEEE0EA93E2E0CC
:10180A00EA930C94C002ECE3F3E0FA93EA930895A6
:10181A00FA93EA93E0913403F0913503E5CFE0E0DF
:10182A00EA93E3E0EA930E94C002EDCF0E94AD0280
:10183A00A4E3B3E0ED91FD913197FE93EE93089501
:10184A00E0E0EA93E3E0EA930C94C002E091230318
:10185A00F0E0F0970895E0E0E0933803E09339036D
:10186A000895A0913803B09139030895E8EEF3E0A2
:10187A0056CFA8E3B3E0ED91FD913196FE93EE9336
:10188A000895E4E8F3E0E0933603F093370308950C
:10189A00E1E0EA93E0E0EA930C94C002EA93E1E023
:1018AA00EA930C94C002FA93EA93E6E9F0E0FA9319
:1018BA00EA930C949702E0EDF7E031CFEE0FFF1FA9
:1018CA00EA0FFB1F0E94F80FFA93EA930E940303A0
:1018DA0069CFA0912103B091220311970895EFEAED
:1018EA00F2E075CFFA93EA9380E00E94EB08229621
:1018FA000895EE0FFF1FAE0FBF1F0E94EE0F08954F
:10190A00ED91FD913196FE93EE930895EF81F8855E
:10191A00FA93EA930895FA93EA930C948E0AAB81A8
:10192A00BC818D819E81E0E0F0E060E271E40E947A
:10193A00A70EEB83FC836D837E830895EB81FC8184
:10194A006D817E81AB85BC858D859E850E943A0F0F
:10195A000895AB85BC858D859E850895EDECFCECDC
:10196A006CEC7DE30E94A70EEB87FC876D877E8770
:10197A002F5F0895E0E0F0E060E271E40E94A70EB4
:10198A000895EB87FC876D877E870895A0E0B0E015
:10199A0080E09FE30E94570E0895EDECFCEC6CEC9E
:1019AA007DE30E94A70E0895AF81B8851196AF8393
:1019BA00B88711970895E12FE05DEC93E12F089520
:1019CA000E940B100E94500E0895EF81F8853196FF
:1019DA00EF83F8870895FE01E65AFF4F0190F081E0
:1019EA00E02D08953497DE01A65ABF4FED93FC937C
:1019FA000895DE01A65ABF4F0D90BC91A02D0895FF
:101A0A00EA87FB876C877D870895E5DFEBCFEA8558
:101A1A00FB856C857D850895EE87FF87FA93EA93A7
:101A2A000E94990A0E2F0895E4DF14960E94EE0F81
:101A3A000895E88BF98B6A8B7B8B08951B7FED8960
:101A4A00EA93FE01E95AFF4F0190F081E02DFA93E3
:101A5A00EA93FE01E55AFF4F0190F081E02D0995C6
:101A6A0040300895EB85FC85099540300895E88952
:101A7A00F9896A897B89AA85BB858C859D850895A4
:101A8A00DE011C960E945A0F0E94EE0F08950E94D2
:101A9A005A0F0E94EE0FFA93EA931A930A93089543
:101AAA00FA93EA93FE013896FA93EA9308952A93F1
:101ABA000E94760AE0300895ED85FE85FA93EA934E
:101ACA00E989FA8909950895AB85BC85AC91A0305E
:101ADA000895EF85F8893497EF87F88BAF85B88931
:101AEA0014960D911C9108950E94FC0F0895EE81A1
:101AFA00FF81FA93EA930895E987FA876B877C87CF
:101B0A000895AE81BF811196AE83BF831197089560
:101B1A00AA81BB818C819D810895EA83FB836C83B2
:101B2A007D830895EA81FB816C817D81A985BA85CF
:101B3A008B859C850895A985BA858B859C85089592
:101B4A00E991F991309639F080ED97E00197F1F734
:101B5A00A8953197C9F7089530976040704009F009
:101B6A0070580895552342F4503811F4E0FF04C028
:101B7A003196691F791F6BF050E8572711F45F936C
:101B8A00CFC05F3F31F0660F000C57956795752FF0
:101B9A0008955F9300200AF0CFC0C8C050E8192EFC
:101BAA001522880F991F9527550F879550E8072EFC
:101BBA000522660F771F7527550F67950895689454
:101BCA0001C0E8945F93F2DF703818F07F3F08F4A1
:101BDA00A7C056E1571BAAF4519558300EF4593054
:101BEA0030F0EFEFFFEF6FEF7FE777F91AC0772753
:101BFA005523B9F0EE0FFF1F661F771F5A95D1F7CD
:101C0A0010C07727583028F0EF2FF62F672F58503B
:101C1A00F9CF552331F076956795F795E7955A955B
:101C2A00D1F700200AF445D15F910895689401C064
:101C3A00E894309760407040B1F0002426F0772392
:101C4A0012F4009436D1172E7EE1112032F07A95E3
:101C5A00EE0FFF1F661F111CF9CFEF2FF62F612D14
:101C6A005F938ADF5F9108954F93AF01FD01DA0117
:101C7A00AB01BC01CA01402D012C142E4F910895CD
:101C8A00EA0FFB1F681F0895E095F0956095EF5FD6
:101C9A00FF4F6F4F08955F9381DF903871F150E8DD
:101CAA00152604C05F937ADF903839F1703821F134
:101CBA00572F591B2BF112F4D7DFFACF583118F0EE
:101CCA00AA27BB278827583028F0AB2FB82F882798
:101CDA005850F9CF552329F08695B795A7955A9567
:101CEA00D9F7502D512572F0CBDF38F46795F79567
:101CFA00E795739513F420C0B7DF3EDF5F9108952F
:101D0A00D8F7FBCFEA1BFB0B680B51F010F40094D9
:101D1A00BBDF662392F3EE0FFF1F661F7A95CBF7A0
:101D2A00EE27FF27662777275F910895EFEFFFEFEA
:101D3A006FE77FEF5F910895EFEFFFEF6FE77FE7C0
:101D4A005F9108955F932ADF703851F3903841F319
:101D5A0001240894791F23F41CF300203AF3ECCFF2
:101D6A000F921F932F933F934F931127222799275F
:101D7A00689FA0018F9F302D410D591F6B9F300D19
:101D8A00411D591F8E9F27D0BF9F25D06A9F23D000
:101D9A00BE9F1DD0AF9F1BD0AE9F110D291F391FAB
:101DAA00491F591FE32FF42F652F522F4F913F914F
:101DBA002F911F910F9066232AF0550FEE1FFF1FD8
:101DCA00661F02C073954BF2CDDE5F910895100D28
:101DDA00211D391F02C0200D311D491F591F0895A9
:101DEA005F93DCDE703821F411200AF49FCFA4CF70
:101DFA00903809F495CF01240894970B1BF4D4F377
:101E0A000020F3CF792F1F932F933F934F931124E1
:101E1A001127222733274427552790E2AE17BF07F9
:101E2A008607410730F0AE1BBF0B860B410B0894A7
:101E3A0001C08894551F221F331F111CAA1FBB1FE4
:101E4A00881F441F9A9551F7F901612D4F913F91CF
:101E5A002F911F91662332F0550FEE1FFF1F661F49
:101E6A007A9543F27FDE5F91089599239AF077235A
:101E7A0042F0971748F029F4AE17BF07860720F0FB
:101E8A0031F0989488940895989408940895189431
:101E9A00889408957723C2F7971798F3A9F7EA1752
:101EAA00FB07680788F399F3ECCF0024AF0DB01D48
:101EBA000895F09560957095E195FF4F6F4F7F4FAC
:101ECA000895F595E795F595E795F595E795F595CF
:101EDA00E7950895FE2FFF0FFF0B6F2F7F2F0895B1
:101EEA006F2F660F660B762F0895EF2BE1E009F04E
:101EFA00E0E00895FA9FF02DEB9FF00DEA9FE02DA8
:101F0A00F10D0895002498E0AA0F001C0E1A10F48F
:101F1A000E0E01C0A1609A95B9F7EA2FA02D089577
:101F2A004CD0F0DF0EF4E19508950024112490E1DD
:101F3A00AA0FBB1F001C111C0E1A1F0A18F40E0E42
:101F4A001F1E01C0A1609A9599F7FD01D00108955D
:101F5A003F934F935F93002411244427552730E27F
:101F6A00AA0FBB1F881F991F001C111C441F551F55
:101F7A000E1A1F0A460B570B28F40E0E1F1E461F79
:101F8A00571F01C0A1603A9559F7FD01BC01D00164
:101F9A00CA015F914F913F910895E894A7FF02C04B
:101FAA00A1956894E7FDE195ADDFEA2F0EF4E1957E
:101FBA000895CEDFFD01BC010895E894E7FF02C051
:101FCA00E1956894A7FF04C0A19500F8039400FA6C
:101FDA000895ED91FC9111970895ED91FD916D9100
:101FEA007C91139708950590F491E02D0895E88166
:101FFA00F9816A817B810895E883F9836A837B8307
:10200A0008957A936A93FA93EA930895182E862F7D
:10201A00612D192E972F712D1B2EBF2FF12D1A2EE0
:10202A00AE2FE12D08953097604070400895002446
:10203A000A160B0608955A934A933A932A931A93C7
:10204A000A9308955D814C813B812A811981088117
:10205A000895AC0FBD1F05900D928A95E1F708957A
:00000001FF
