:040000000C94340028
:100004000C9400000C9400000C9400000C9400006C
:100014000C9400000C9400000C9400000C9400005C
:100024000C9400000C9400000C9400000C9400004C
:100034000C9400000C9400000C9400000C9400003C
:100044000C9400000C9400000C9400000C9400002C
:100054000C9400000C9400000C9400000C9400001C
:100064000C940000F894EE27EFBBF1E0F5BFE5BF78
:10007400F8E1A895A4B7A77FA4BFF0936000E0932C
:1000840060008DE0A2E0BB27ED938A95E9F780E05C
:1000940098E0A0E0B1E0ED930197E9F7E0E0EEBB72
:1000A400EFEFEDBFE8E0EEBFC0E0D3E00C945A0000
:1000B400EFEFEBB9E5B9E3E0E7B9E9B1AE2FE3B1AE
:1000C400EA1711F4409A09C0E3B1AE2FE9B1EA1777
:1000D40018F44098419A02C040984198EECFFFCF5F
:00000001FF
