:0A0000000C948E000C9400000C9488
:10000A0000000C9400000C9400000C9400000C9466
:10001A0000000C9400000C9400000C9400000C9456
:10002A0000000C9400000C9400000C9400000C9446
:10003A0000000C9400000C9400000C9400000C9436
:10004A0000000C9400000C9400000C9400000C9426
:10005A0000000C9400000C9400000C94000010277F
:10006A00E80364000A00010000100001100001000A
:10007A0003030302020C000800010006081F0A0C11
:10008A000F0C0E1B08140E1F0E14080000040E1F7E
:10009A000E04151F0A061E06061B0A1F0E1F0E1F38
:1000AA000E150A040E040E040A040000040E0400CD
:1000BA00000000000000040F0000000020202020A3
:1000CA002043524F4E4F4D4554524F00253032690E
:1000DA003A253032693A256900000800140386007F
:1000EA0007001C038E0006002403960008002C0358
:1000FA009C0008003403A40008003C03AC0005007F
:10010A004403B40008005C03BA0004000400C200FF
:10011A000000F894EE27EFBBF1E0F5BFE5BFF8E188
:10012A00A895A4B7A77FA4BFF0936000E0936000EE
:10013A008DE0A2E0BB27ED938A95E9F780E098E08D
:10014A00A0E0B1E0ED930197E9F7E4EEF0E08591E4
:10015A009591009761F0A591B59105901590BF0111
:10016A00F00105900D920197E1F7FB01F0CFE0E075
:10017A00EEBBEFEFEDBFE8E0EEBFC0E0D3E00C94DA
:10018A00DE012C978CE0A0E0B0E0EAE7F0E00E9404
:10019A00BE051A93E7B1EF60E7B9E4B1E760E4B9E5
:1001AA00E2E3F0E0FA93EA930E94860510E01C303D
:1001BA0090F4E2E0F0E0FA93EA930E948605E12FD8
:1001CA00F0E0DE011196AE0FBF1FEC91EA930DD05D
:1001DA0009D01F5FECCFECE05E2E5A9220D0188136
:1001EA002D960895299A29980895E881E87011F0C2
:1001FA00439A01C04398E881E47011F0429A01C021
:10020A004298E881E27011F0419A01C04198E88170
:10021A00E17011F0409A01C04098219608951A930E
:10022A002898E2E0F0E0FA93EA930E948605E981D1
:10023A00E07F1E2FE12FF0E00E949A051E2F1A93ED
:10024A00D4DFD0DFE981EF701E2F1A93CEDFE2E010
:10025A00F0E0FA93EA930E948605C4DF18818CC005
:10026A001A93289AE2E0F0E0FA93EA930E9486054C
:10027A00E981E07F1E2FE12FF0E00E949A051E2FF0
:10028A001A93B3DFAFDFE981EF701E2F1A93ADDF48
:10029A00E2E0F0E0FA93EA930E948605A3DF188170
:1002AA006BC01A93289AE2E0F0E0FA93EA930E946C
:1002BA008605E981E07F1E2FE12FF0E00E949A0572
:1002CA001E2F1A9392DF8EDFE981EF701E2F1A9389
:1002DA008CDFE2E0F0E0FA93EA930E94860582DF7F
:1002EA0018814AC01A9310E0E12F1F5FA981BA81D1
:1002FA00F0E0EA0FFB1FE491EA93D3DFE12FA98133
:10030A00BA81F0E0EA0FFB1FE491E03069F714C00C
:10031A001A9310E0E12F1F5FA981BA81F0E0AE0FB6
:10032A00BF1FEC91EA93BDDFA981BA81EE27A10F25
:10033A00BE1FEC91E03071F7188123960895E88189
:10034A00F0E0309719F4E981E05814C0E130A0E0F8
:10035A00FA0719F4E981E0540DC0E230A0E0FA0787
:10036A0019F4E981EC5606C0E330A0E0FA0721F45B
:10037A00E981EC52EA9353DF229608951A93EB81AE
:10038A00EE0FEE0FEE0FE05CEA9349DF10E0183053
:10039A0050F4A981BA81EE27A10FBE1FEC91EA930E
:1003AA005FDF1F5FF4CFE0E8EA9339DF1881249614
:1003BA000895E7DE589A599AE0E0EA93E4E1F3E017
:1003CA00FA93EA93DBDFE1E0EA93ECE1F3E0FA93F4
:1003DA00EA93D4DFE2E0EA93E4E2F3E0FA93EA9301
:1003EA00CDDFE3E0EA93ECE2F3E0FA93EA93C6DFC7
:1003FA00E4E0EA93E4E3F3E0FA93EA93BFDFE5E0AB
:10040A00EA93ECE3F3E0FA93EA93B8DFE6E0EA93DF
:10041A00E4E4F3E0FA93EA93B1DFE7E0EA93ECE489
:10042A00F3E0FA93EA93AADFE8E0EA93E4E5F3E07B
:10043A00FA93EA93A3DFE9E0EA93ECE5F3E0FA93AF
:10044A00EA939CDF88249924E0E0EA93EA9377DF31
:10045A00E6ECF0E0FA93EA9345DF489B3AC1499902
:10046A0003C0442477246624E0E0F3E0FA93EA9395
:10047A00E6EDF0E0FA93EA93E72DFF276627772760
:10048A000E94AB05E42DFF27662777270E94AB055C
:10049A00E62DFF27662777270E94AB058CE0DED280
:1004AA006096E8E0EA93E2E0EA9349DFE0E0EA9363
:1004BA00F8DEEAE0F0E08E169F064CF4EEE0EA93EE
:1004CA00E2E0EA933CDFE3E0EA93EBDE06C0EAE02F
:1004DA00F0E0FA93EA930E948605F401309739F422
:1004EA00E9E0EA93E2E0EA932ADFE1E0B3C0E1302F
:1004FA00A0E0FA0739F4E9E0EA93E2E0EA931FDFC1
:10050A00E2E0A8C0E230A0E0FA0779F4E9E0EA9371
:10051A00E2E0EA9314DFE0E2EA93C3DEEAE0EA9378
:10052A00E2E0EA930CDFE1E095C0E330A0E0FA07ED
:10053A0039F4EAE0EA93E2E0EA9301DFE2E08AC012
:10054A00E430A0E0FA0779F4EAE0EA93E2E0EA9319
:10055A00F6DEE0E2EA93A5DEEBE0EA93E2E0EA9374
:10056A00EEDEE1E077C0E530A0E0FA0739F4EBE02F
:10057A00EA93E2E0EA93E3DEE2E06CC0E630A0E070
:10058A00FA0779F4EBE0EA93E2E0EA93D8DEE0E2F4
:10059A00EA9387DEECE0EA93E2E0EA93D0DEE1E078
:1005AA0059C0E730A0E0FA0739F4ECE0EA93E2E058
:1005BA00EA93C5DEE2E04EC0E830A0E0FA0779F43B
:1005CA00ECE0EA93E2E0EA93BADEE0E2EA9369DE7B
:1005DA00EDE0EA93E2E0EA93B2DEE1E03BC0E93023
:1005EA00A0E0FA0739F4EDE0EA93E2E0EA93A7DE45
:1005FA00E2E030C0EA30A0E0FA0779F4EDE0EA93ED
:10060A00E2E0EA939CDEE0E2EA934BDEEEE0EA9374
:10061A00E2E0EA9394DEE5E01DC0EB30A0E0FA07E1
:10062A0039F4EEE0EA93E2E0EA9389DEE6E012C00A
:10063A00EC30A0E0FA0741F0ED30A0E0FA0721F033
:10064A00EE30A0E0FA0741F4EEE0EA93E2E0EA9342
:10065A0076DEE7E0EA9325DEE6E0EA93E1E0EA9374
:10066A006EDEE0E0F3E0FA93EA9352DEE4E1F0E0D2
:10067A00FA93EA930E9486056394F40131964F0136
:10068A00EEE0F0E0E815F90519F48824992406C08B
:10069A00E5E0F0E0FA93EA930E948605EAE0E615BF
:1006AA0091F466244394ECE3E41531F444247394FE
:1006BA00E71509F4772406C0E5E0F0E0FA93EA9337
:1006CA000E94860506C0EAE0F0E0FA93EA930E94E7
:1006DA008605C3CEFFCF1A930A93AA81BB811296CD
:1006EA000E94A305309759F1AA81BB8114960E94F2
:1006FA00A3058F01309761F00230E0E01E07F0F0A9
:10070A00F80131978F01AA81BB811496ED93FC936E
:10071A00AA81BB811296ED91FD913196FE93EE93DB
:10072A003197AC81A083AA81BB810E94A305FF23D4
:10073A002AF0ED91FD913196FE93EE9306C0AA81BF
:10074A00BB81EFEFFFEFED93FC93198108812596AA
:10075A00089526970E94B00510E0AC85BD85E0E0BB
:10076A00F0E0ED93FC93EA89FB893196EA8BFB8BE7
:10077A003197E4912E2FE03011F40C942B05E12FE0
:10078A00E03069F4253211F411E008C02A93ED85AE
:10079A00FE85FA93EA93E989FA89099556C1E13007
:1007AA00D9F4253249F42A93ED85FE85FA93EA9322
:1007BA00E989FA89099548C112E040E000E02D3242
:1007CA0011F401E042C12B3211F44BE23EC1203256
:1007DA0011F440E23AC102C0E23039F450E013E0C9
:1007EA00203311F4006831C104C0E33011F00C94D5
:1007FA002A05203310F02A3308F007C0AAE05A9FCE
:10080A00502DE22FE0535E0F20C1E22FE33679F438
:10081A00E889F9893497E88BF98BA481AA93ED8545
:10082A00FE85FA93EA93E989FA8909950DC1E337B6
:10083A0091F4E889F9893497E88BF98BA889B98901
:10084A0014960E94A305EE83FF83FA93EA930E940B
:10085A0071051E2F14C0E037B1F4E889F98934977D
:10086A00E88BF98BA889B98914960E94A305EE83AF
:10087A00FF83FA93EA930E947B051E2F08600260A9
:10088A000F7730E043C0E43611F0E93611F4046022
:10089A0002C0E53731F4E8E6F0E0EE83FF8315E0C5
:1008AA000DC0E83511F4086004C0E83711F00C9463
:1008BA002905E2E7F0E0EE83FF8314E002FF1AC0A5
:1008CA00E889F9893497E88BF98BA889B98914964C
:1008DA000E94A305EA87FB87AB85AA232AF40E9414
:1008EA009605EA87FB874DE2403011F01F5F01C091
:1008FA000B7F0CC0E889F9893497E88BF98BA889B2
:10090A00B98914960E94A305EA87FB8700FD17C0E0
:10091A001517A8F407FF08C002FF04C00B7F242F95
:10092A00115001C020E301C020E22A93ED85FE8523
:10093A00FA93EA93E989FA8909955150E9CF312F57
:10094A0001FF1DC03030D1F003FF06C0EE81FF81E8
:10095A002591EE83FF8305C0AE81BF812D91AE83C1
:10096A00BF832A93ED85FE85FA93EA93E989FA898A
:10097A000995503009F051503150E4CF56C020E368
:10098A00EE81FF810E94A705E887F987EE81FF8142
:10099A003296EE83FF83E885F985AA85BB85AE1773
:1009AA00BF0750F02F5FA885B985EA85FB85EA1B4A
:1009BA00FB0BEA87FB87EFCF2A3328F003FF02C03D
:1009CA00295F01C0295D04FD1FC0213320F4A885D9
:1009DA00B985119709F409C0531710F000FF01C037
:1009EA001EC020E207FF10C020E3006102FF0CC016
:1009FA000B7F4A93ED85FE85FA93EA93E989FA8992
:100A0A000995503009F051502A93ED85FE85FA93E5
:100A1A00EA93E989FA890995503009F05150315021
:100A2A00A885B985129708F0AACF00FF0DC05030EB
:100A3A0059F05150E0E2EA93ED85FE85FA93EA9384
:100A4A00E989FA890995F3CF10E08DCEAC85BD8589
:100A5A000E94A3050E94B70564960895FF92F82E96
:100A6A0026970E94B205DE011C960E9492050E94FA
:100A7A00A305309719F4EFEFFFEF29C0DE011696B0
:100A8A000E9492058D01DE011C960E9492050E9429
:100A9A00A305EE83FF83E0E0E887E987DE011A9683
:100AAA000E9492050E94A305FA93EA931A930A9365
:100ABA00E0E7F3E0FA93EA93FE013A96FA93EA93AF
:100ACA0048DE9F01AE81BF81E0E0EC93F9010E940C
:100ADA00B9052A96FF900895A991B991EE27FF27A3
:100AEA006D91662311F03196FBCF0895AA27BB2793
:100AFA00E991F9910590002011F01196FBCFFD01C3
:100B0A000895E991F991309639F08AEF90E00197CA
:100B1A00F1F7A8953197C9F708950024AF0DB01DD4
:100B2A000895F195E195F0400895F595E795F595C5
:100B3A00E795F595E795F595E7950895ED91FC917B
:100B4A00119708950590F491E02D08957A936A9388
:100B5A00FA93EA9308955A934A933A932A931A93E3
:100B6A000A9308955D814C813B812A81198108810C
:100B7A000895AC0FBD1F05900D928A95E1F708956F
:00000001FF
